{
	"contracts/elections/elections.sol": {
		"Election": {
			"abi": [
				{
					"inputs": [],
					"stateMutability": "nonpayable",
					"type": "constructor"
				},
				{
					"inputs": [
						{
							"internalType": "string",
							"name": "_name",
							"type": "string"
						},
						{
							"internalType": "string",
							"name": "_description",
							"type": "string"
						},
						{
							"internalType": "string",
							"name": "_symbol",
							"type": "string"
						}
					],
					"name": "addCandidate",
					"outputs": [],
					"stateMutability": "nonpayable",
					"type": "function"
				},
				{
					"inputs": [
						{
							"internalType": "uint256",
							"name": "",
							"type": "uint256"
						}
					],
					"name": "candidates",
					"outputs": [
						{
							"internalType": "uint256",
							"name": "id",
							"type": "uint256"
						},
						{
							"internalType": "string",
							"name": "name",
							"type": "string"
						},
						{
							"internalType": "string",
							"name": "description",
							"type": "string"
						},
						{
							"internalType": "string",
							"name": "symbol",
							"type": "string"
						},
						{
							"internalType": "uint256",
							"name": "voteCount",
							"type": "uint256"
						}
					],
					"stateMutability": "view",
					"type": "function"
				},
				{
					"inputs": [],
					"name": "candidatesCount",
					"outputs": [
						{
							"internalType": "uint256",
							"name": "",
							"type": "uint256"
						}
					],
					"stateMutability": "view",
					"type": "function"
				},
				{
					"inputs": [],
					"name": "electionCreator",
					"outputs": [
						{
							"internalType": "address",
							"name": "",
							"type": "address"
						}
					],
					"stateMutability": "view",
					"type": "function"
				},
				{
					"inputs": [],
					"name": "electionEnded",
					"outputs": [
						{
							"internalType": "bool",
							"name": "",
							"type": "bool"
						}
					],
					"stateMutability": "view",
					"type": "function"
				},
				{
					"inputs": [],
					"name": "electionStarted",
					"outputs": [
						{
							"internalType": "bool",
							"name": "",
							"type": "bool"
						}
					],
					"stateMutability": "view",
					"type": "function"
				},
				{
					"inputs": [],
					"name": "endElection",
					"outputs": [],
					"stateMutability": "nonpayable",
					"type": "function"
				},
				{
					"inputs": [
						{
							"internalType": "uint256",
							"name": "_candidateId",
							"type": "uint256"
						}
					],
					"name": "getCandidate",
					"outputs": [
						{
							"internalType": "uint256",
							"name": "",
							"type": "uint256"
						},
						{
							"internalType": "string",
							"name": "",
							"type": "string"
						},
						{
							"internalType": "string",
							"name": "",
							"type": "string"
						},
						{
							"internalType": "string",
							"name": "",
							"type": "string"
						},
						{
							"internalType": "uint256",
							"name": "",
							"type": "uint256"
						},
						{
							"internalType": "address[]",
							"name": "",
							"type": "address[]"
						}
					],
					"stateMutability": "view",
					"type": "function"
				},
				{
					"inputs": [],
					"name": "getTotalCandidates",
					"outputs": [
						{
							"internalType": "uint256",
							"name": "",
							"type": "uint256"
						}
					],
					"stateMutability": "view",
					"type": "function"
				},
				{
					"inputs": [],
					"name": "getTotalVotes",
					"outputs": [
						{
							"internalType": "uint256",
							"name": "",
							"type": "uint256"
						}
					],
					"stateMutability": "view",
					"type": "function"
				},
				{
					"inputs": [
						{
							"internalType": "address",
							"name": "_voter",
							"type": "address"
						}
					],
					"name": "getVoter",
					"outputs": [
						{
							"internalType": "bool",
							"name": "",
							"type": "bool"
						},
						{
							"internalType": "uint256",
							"name": "",
							"type": "uint256"
						}
					],
					"stateMutability": "view",
					"type": "function"
				},
				{
					"inputs": [],
					"name": "startElection",
					"outputs": [],
					"stateMutability": "nonpayable",
					"type": "function"
				},
				{
					"inputs": [],
					"name": "totalVotes",
					"outputs": [
						{
							"internalType": "uint256",
							"name": "",
							"type": "uint256"
						}
					],
					"stateMutability": "view",
					"type": "function"
				},
				{
					"inputs": [
						{
							"internalType": "uint256",
							"name": "_candidateId",
							"type": "uint256"
						}
					],
					"name": "vote",
					"outputs": [],
					"stateMutability": "nonpayable",
					"type": "function"
				},
				{
					"inputs": [
						{
							"internalType": "address",
							"name": "",
							"type": "address"
						}
					],
					"name": "voters",
					"outputs": [
						{
							"internalType": "bool",
							"name": "hasVoted",
							"type": "bool"
						},
						{
							"internalType": "uint256",
							"name": "votedCandidateId",
							"type": "uint256"
						}
					],
					"stateMutability": "view",
					"type": "function"
				}
			],
			"devdoc": {
				"kind": "dev",
				"methods": {},
				"version": 1
			},
			"evm": {
				"assembly": "    /* \"contracts/elections/elections.sol\":57:2957  contract Election {... */\n  mstore(0x40, 0x80)\n    /* \"contracts/elections/elections.sol\":1122:1181  constructor() {... */\n  callvalue\n  dup1\n  iszero\n  tag_1\n  jumpi\n  0x00\n  dup1\n  revert\ntag_1:\n  pop\n    /* \"contracts/elections/elections.sol\":1164:1174  msg.sender */\n  caller\n    /* \"contracts/elections/elections.sol\":1146:1161  electionCreator */\n  0x00\n  dup1\n    /* \"contracts/elections/elections.sol\":1146:1174  electionCreator = msg.sender */\n  0x0100\n  exp\n  dup2\n  sload\n  dup2\n  0xffffffffffffffffffffffffffffffffffffffff\n  mul\n  not\n  and\n  swap1\n  dup4\n  0xffffffffffffffffffffffffffffffffffffffff\n  and\n  mul\n  or\n  swap1\n  sstore\n  pop\n    /* \"contracts/elections/elections.sol\":57:2957  contract Election {... */\n  dataSize(sub_0)\n  dup1\n  dataOffset(sub_0)\n  0x00\n  codecopy\n  0x00\n  return\nstop\n\nsub_0: assembly {\n        /* \"contracts/elections/elections.sol\":57:2957  contract Election {... */\n      mstore(0x40, 0x80)\n      callvalue\n      dup1\n      iszero\n      tag_1\n      jumpi\n      0x00\n      dup1\n      revert\n    tag_1:\n      pop\n      jumpi(tag_2, lt(calldatasize, 0x04))\n      shr(0xe0, calldataload(0x00))\n      dup1\n      0x62d73eb8\n      gt\n      tag_18\n      jumpi\n      dup1\n      0xc94ca9e3\n      gt\n      tag_19\n      jumpi\n      dup1\n      0xc94ca9e3\n      eq\n      tag_14\n      jumpi\n      dup1\n      0xd4f50f98\n      eq\n      tag_15\n      jumpi\n      dup1\n      0xd5346da1\n      eq\n      tag_16\n      jumpi\n      dup1\n      0xf36f4ff0\n      eq\n      tag_17\n      jumpi\n      jump(tag_2)\n    tag_19:\n      dup1\n      0x62d73eb8\n      eq\n      tag_10\n      jumpi\n      dup1\n      0x9a0e7d66\n      eq\n      tag_11\n      jumpi\n      dup1\n      0xa3ec138d\n      eq\n      tag_12\n      jumpi\n      dup1\n      0xad71f8dc\n      eq\n      tag_13\n      jumpi\n      jump(tag_2)\n    tag_18:\n      dup1\n      0x2d35a8a2\n      gt\n      tag_20\n      jumpi\n      dup1\n      0x2d35a8a2\n      eq\n      tag_6\n      jumpi\n      dup1\n      0x3477ee2e\n      eq\n      tag_7\n      jumpi\n      dup1\n      0x35b8e820\n      eq\n      tag_8\n      jumpi\n      dup1\n      0x59f78468\n      eq\n      tag_9\n      jumpi\n      jump(tag_2)\n    tag_20:\n      dup1\n      0x0121b93f\n      eq\n      tag_3\n      jumpi\n      dup1\n      0x0d15fd77\n      eq\n      tag_4\n      jumpi\n      dup1\n      0x0deb56ab\n      eq\n      tag_5\n      jumpi\n    tag_2:\n      0x00\n      dup1\n      revert\n        /* \"contracts/elections/elections.sol\":1790:2145  function vote(uint _candidateId) public electionInProgress hasNotVoted {... */\n    tag_3:\n      tag_21\n      0x04\n      dup1\n      calldatasize\n      sub\n      dup2\n      add\n      swap1\n      tag_22\n      swap2\n      swap1\n      tag_23\n      jump\t// in\n    tag_22:\n      tag_24\n      jump\t// in\n    tag_21:\n      stop\n        /* \"contracts/elections/elections.sol\":559:581  uint public totalVotes */\n    tag_4:\n      tag_25\n      tag_26\n      jump\t// in\n    tag_25:\n      mload(0x40)\n      tag_27\n      swap2\n      swap1\n      tag_28\n      jump\t// in\n    tag_27:\n      mload(0x40)\n      dup1\n      swap2\n      sub\n      swap1\n      return\n        /* \"contracts/elections/elections.sol\":2151:2247  function getTotalCandidates() public view returns (uint) {... */\n    tag_5:\n      tag_29\n      tag_30\n      jump\t// in\n    tag_29:\n      mload(0x40)\n      tag_31\n      swap2\n      swap1\n      tag_28\n      jump\t// in\n    tag_31:\n      mload(0x40)\n      dup1\n      swap2\n      sub\n      swap1\n      return\n        /* \"contracts/elections/elections.sol\":526:553  uint public candidatesCount */\n    tag_6:\n      tag_32\n      tag_33\n      jump\t// in\n    tag_32:\n      mload(0x40)\n      tag_34\n      swap2\n      swap1\n      tag_28\n      jump\t// in\n    tag_34:\n      mload(0x40)\n      dup1\n      swap2\n      sub\n      swap1\n      return\n        /* \"contracts/elections/elections.sol\":476:520  mapping(uint => Candidate) public candidates */\n    tag_7:\n      tag_35\n      0x04\n      dup1\n      calldatasize\n      sub\n      dup2\n      add\n      swap1\n      tag_36\n      swap2\n      swap1\n      tag_23\n      jump\t// in\n    tag_36:\n      tag_37\n      jump\t// in\n    tag_35:\n      mload(0x40)\n      tag_38\n      swap6\n      swap5\n      swap4\n      swap3\n      swap2\n      swap1\n      tag_39\n      jump\t// in\n    tag_38:\n      mload(0x40)\n      dup1\n      swap2\n      sub\n      swap1\n      return\n        /* \"contracts/elections/elections.sol\":2345:2773  function getCandidate(uint _candidateId) public view returns (uint, string memory, string memory, string memory, uint, address[] memory) {... */\n    tag_8:\n      tag_40\n      0x04\n      dup1\n      calldatasize\n      sub\n      dup2\n      add\n      swap1\n      tag_41\n      swap2\n      swap1\n      tag_23\n      jump\t// in\n    tag_41:\n      tag_42\n      jump\t// in\n    tag_40:\n      mload(0x40)\n      tag_43\n      swap7\n      swap6\n      swap5\n      swap4\n      swap3\n      swap2\n      swap1\n      tag_44\n      jump\t// in\n    tag_43:\n      mload(0x40)\n      dup1\n      swap2\n      sub\n      swap1\n      return\n        /* \"contracts/elections/elections.sol\":1631:1784  function endElection() public onlyElectionCreator {... */\n    tag_9:\n      tag_45\n      tag_46\n      jump\t// in\n    tag_45:\n      stop\n        /* \"contracts/elections/elections.sol\":1515:1625  function startElection() public onlyElectionCreator electionNotStarted {... */\n    tag_10:\n      tag_47\n      tag_48\n      jump\t// in\n    tag_47:\n      stop\n        /* \"contracts/elections/elections.sol\":2253:2339  function getTotalVotes() public view returns (uint) {... */\n    tag_11:\n      tag_49\n      tag_50\n      jump\t// in\n    tag_49:\n      mload(0x40)\n      tag_51\n      swap2\n      swap1\n      tag_28\n      jump\t// in\n    tag_51:\n      mload(0x40)\n      dup1\n      swap2\n      sub\n      swap1\n      return\n        /* \"contracts/elections/elections.sol\":431:470  mapping(address => Voter) public voters */\n    tag_12:\n      tag_52\n      0x04\n      dup1\n      calldatasize\n      sub\n      dup2\n      add\n      swap1\n      tag_53\n      swap2\n      swap1\n      tag_54\n      jump\t// in\n    tag_53:\n      tag_55\n      jump\t// in\n    tag_52:\n      mload(0x40)\n      tag_56\n      swap3\n      swap2\n      swap1\n      tag_57\n      jump\t// in\n    tag_56:\n      mload(0x40)\n      dup1\n      swap2\n      sub\n      swap1\n      return\n        /* \"contracts/elections/elections.sol\":1187:1509  function addCandidate(string memory _name, string memory _description, string memory _symbol) public onlyElectionCreator electionNotStarted {... */\n    tag_13:\n      tag_58\n      0x04\n      dup1\n      calldatasize\n      sub\n      dup2\n      add\n      swap1\n      tag_59\n      swap2\n      swap1\n      tag_60\n      jump\t// in\n    tag_59:\n      tag_61\n      jump\t// in\n    tag_58:\n      stop\n        /* \"contracts/elections/elections.sol\":150:175  bool public electionEnded */\n    tag_14:\n      tag_62\n      tag_63\n      jump\t// in\n    tag_62:\n      mload(0x40)\n      tag_64\n      swap2\n      swap1\n      tag_65\n      jump\t// in\n    tag_64:\n      mload(0x40)\n      dup1\n      swap2\n      sub\n      swap1\n      return\n        /* \"contracts/elections/elections.sol\":2779:2955  function getVoter(address _voter) public view returns (bool, uint) {... */\n    tag_15:\n      tag_66\n      0x04\n      dup1\n      calldatasize\n      sub\n      dup2\n      add\n      swap1\n      tag_67\n      swap2\n      swap1\n      tag_54\n      jump\t// in\n    tag_67:\n      tag_68\n      jump\t// in\n    tag_66:\n      mload(0x40)\n      tag_69\n      swap3\n      swap2\n      swap1\n      tag_57\n      jump\t// in\n    tag_69:\n      mload(0x40)\n      dup1\n      swap2\n      sub\n      swap1\n      return\n        /* \"contracts/elections/elections.sol\":117:144  bool public electionStarted */\n    tag_16:\n      tag_70\n      tag_71\n      jump\t// in\n    tag_70:\n      mload(0x40)\n      tag_72\n      swap2\n      swap1\n      tag_65\n      jump\t// in\n    tag_72:\n      mload(0x40)\n      dup1\n      swap2\n      sub\n      swap1\n      return\n        /* \"contracts/elections/elections.sol\":81:111  address public electionCreator */\n    tag_17:\n      tag_73\n      tag_74\n      jump\t// in\n    tag_73:\n      mload(0x40)\n      tag_75\n      swap2\n      swap1\n      tag_76\n      jump\t// in\n    tag_75:\n      mload(0x40)\n      dup1\n      swap2\n      sub\n      swap1\n      return\n        /* \"contracts/elections/elections.sol\":1790:2145  function vote(uint _candidateId) public electionInProgress hasNotVoted {... */\n    tag_24:\n        /* \"contracts/elections/elections.sol\":913:928  electionStarted */\n      0x00\n      0x14\n      swap1\n      sload\n      swap1\n      0x0100\n      exp\n      swap1\n      div\n      0xff\n      and\n        /* \"contracts/elections/elections.sol\":913:946  electionStarted && !electionEnded */\n      dup1\n      iszero\n      tag_78\n      jumpi\n      pop\n        /* \"contracts/elections/elections.sol\":933:946  electionEnded */\n      0x00\n      0x15\n      swap1\n      sload\n      swap1\n      0x0100\n      exp\n      swap1\n      div\n      0xff\n      and\n        /* \"contracts/elections/elections.sol\":932:946  !electionEnded */\n      iszero\n        /* \"contracts/elections/elections.sol\":913:946  electionStarted && !electionEnded */\n    tag_78:\n        /* \"contracts/elections/elections.sol\":905:978  require(electionStarted && !electionEnded, \"Election is not in progress\") */\n      tag_79\n      jumpi\n      mload(0x40)\n      0x08c379a000000000000000000000000000000000000000000000000000000000\n      dup2\n      mstore\n      0x04\n      add\n      tag_80\n      swap1\n      tag_81\n      jump\t// in\n    tag_80:\n      mload(0x40)\n      dup1\n      swap2\n      sub\n      swap1\n      revert\n    tag_79:\n        /* \"contracts/elections/elections.sol\":1044:1050  voters */\n      0x01\n        /* \"contracts/elections/elections.sol\":1044:1062  voters[msg.sender] */\n      0x00\n        /* \"contracts/elections/elections.sol\":1051:1061  msg.sender */\n      caller\n        /* \"contracts/elections/elections.sol\":1044:1062  voters[msg.sender] */\n      0xffffffffffffffffffffffffffffffffffffffff\n      and\n      0xffffffffffffffffffffffffffffffffffffffff\n      and\n      dup2\n      mstore\n      0x20\n      add\n      swap1\n      dup2\n      mstore\n      0x20\n      add\n      0x00\n      keccak256\n        /* \"contracts/elections/elections.sol\":1044:1071  voters[msg.sender].hasVoted */\n      0x00\n      add\n      0x00\n      swap1\n      sload\n      swap1\n      0x0100\n      exp\n      swap1\n      div\n      0xff\n      and\n        /* \"contracts/elections/elections.sol\":1043:1071  !voters[msg.sender].hasVoted */\n      iszero\n        /* \"contracts/elections/elections.sol\":1035:1098  require(!voters[msg.sender].hasVoted, \"You have already voted\") */\n      tag_83\n      jumpi\n      mload(0x40)\n      0x08c379a000000000000000000000000000000000000000000000000000000000\n      dup2\n      mstore\n      0x04\n      add\n      tag_84\n      swap1\n      tag_85\n      jump\t// in\n    tag_84:\n      mload(0x40)\n      dup1\n      swap2\n      sub\n      swap1\n      revert\n    tag_83:\n        /* \"contracts/elections/elections.sol\":1894:1895  0 */\n      0x00\n        /* \"contracts/elections/elections.sol\":1879:1891  _candidateId */\n      dup2\n        /* \"contracts/elections/elections.sol\":1879:1895  _candidateId > 0 */\n      gt\n        /* \"contracts/elections/elections.sol\":1879:1930  _candidateId > 0 && _candidateId <= candidatesCount */\n      dup1\n      iszero\n      tag_87\n      jumpi\n      pop\n        /* \"contracts/elections/elections.sol\":1915:1930  candidatesCount */\n      sload(0x03)\n        /* \"contracts/elections/elections.sol\":1899:1911  _candidateId */\n      dup2\n        /* \"contracts/elections/elections.sol\":1899:1930  _candidateId <= candidatesCount */\n      gt\n      iszero\n        /* \"contracts/elections/elections.sol\":1879:1930  _candidateId > 0 && _candidateId <= candidatesCount */\n    tag_87:\n        /* \"contracts/elections/elections.sol\":1871:1955  require(_candidateId > 0 && _candidateId <= candidatesCount, \"Invalid candidate ID\") */\n      tag_88\n      jumpi\n      mload(0x40)\n      0x08c379a000000000000000000000000000000000000000000000000000000000\n      dup2\n      mstore\n      0x04\n      add\n      tag_89\n      swap1\n      tag_90\n      jump\t// in\n    tag_89:\n      mload(0x40)\n      dup1\n      swap2\n      sub\n      swap1\n      revert\n    tag_88:\n        /* \"contracts/elections/elections.sol\":1987:2012  Voter(true, _candidateId) */\n      mload(0x40)\n      dup1\n      0x40\n      add\n      0x40\n      mstore\n      dup1\n        /* \"contracts/elections/elections.sol\":1993:1997  true */\n      0x01\n        /* \"contracts/elections/elections.sol\":1987:2012  Voter(true, _candidateId) */\n      iszero\n      iszero\n      dup2\n      mstore\n      0x20\n      add\n        /* \"contracts/elections/elections.sol\":1999:2011  _candidateId */\n      dup3\n        /* \"contracts/elections/elections.sol\":1987:2012  Voter(true, _candidateId) */\n      dup2\n      mstore\n      pop\n        /* \"contracts/elections/elections.sol\":1966:1972  voters */\n      0x01\n        /* \"contracts/elections/elections.sol\":1966:1984  voters[msg.sender] */\n      0x00\n        /* \"contracts/elections/elections.sol\":1973:1983  msg.sender */\n      caller\n        /* \"contracts/elections/elections.sol\":1966:1984  voters[msg.sender] */\n      0xffffffffffffffffffffffffffffffffffffffff\n      and\n      0xffffffffffffffffffffffffffffffffffffffff\n      and\n      dup2\n      mstore\n      0x20\n      add\n      swap1\n      dup2\n      mstore\n      0x20\n      add\n      0x00\n      keccak256\n        /* \"contracts/elections/elections.sol\":1966:2012  voters[msg.sender] = Voter(true, _candidateId) */\n      0x00\n      dup3\n      add\n      mload\n      dup2\n      0x00\n      add\n      exp(0x0100, 0x00)\n      dup2\n      sload\n      dup2\n      0xff\n      mul\n      not\n      and\n      swap1\n      dup4\n      iszero\n      iszero\n      mul\n      or\n      swap1\n      sstore\n      pop\n      0x20\n      dup3\n      add\n      mload\n      dup2\n      0x01\n      add\n      sstore\n      swap1\n      pop\n      pop\n        /* \"contracts/elections/elections.sol\":2022:2032  candidates */\n      0x02\n        /* \"contracts/elections/elections.sol\":2022:2046  candidates[_candidateId] */\n      0x00\n        /* \"contracts/elections/elections.sol\":2033:2045  _candidateId */\n      dup3\n        /* \"contracts/elections/elections.sol\":2022:2046  candidates[_candidateId] */\n      dup2\n      mstore\n      0x20\n      add\n      swap1\n      dup2\n      mstore\n      0x20\n      add\n      0x00\n      keccak256\n        /* \"contracts/elections/elections.sol\":2022:2056  candidates[_candidateId].voteCount */\n      0x04\n      add\n      0x00\n        /* \"contracts/elections/elections.sol\":2022:2058  candidates[_candidateId].voteCount++ */\n      dup2\n      sload\n      dup1\n      swap3\n      swap2\n      swap1\n      tag_91\n      swap1\n      tag_92\n      jump\t// in\n    tag_91:\n      swap2\n      swap1\n      pop\n      sstore\n      pop\n        /* \"contracts/elections/elections.sol\":2068:2078  candidates */\n      0x02\n        /* \"contracts/elections/elections.sol\":2068:2092  candidates[_candidateId] */\n      0x00\n        /* \"contracts/elections/elections.sol\":2079:2091  _candidateId */\n      dup3\n        /* \"contracts/elections/elections.sol\":2068:2092  candidates[_candidateId] */\n      dup2\n      mstore\n      0x20\n      add\n      swap1\n      dup2\n      mstore\n      0x20\n      add\n      0x00\n      keccak256\n        /* \"contracts/elections/elections.sol\":2068:2099  candidates[_candidateId].voters */\n      0x05\n      add\n        /* \"contracts/elections/elections.sol\":2105:2115  msg.sender */\n      caller\n        /* \"contracts/elections/elections.sol\":2068:2116  candidates[_candidateId].voters.push(msg.sender) */\n      swap1\n      dup1\n      0x01\n      dup2\n      sload\n      add\n      dup1\n      dup3\n      sstore\n      dup1\n      swap2\n      pop\n      pop\n      0x01\n      swap1\n      sub\n      swap1\n      0x00\n      mstore\n      keccak256(0x00, 0x20)\n      add\n      0x00\n      swap1\n      swap2\n      swap1\n      swap2\n      swap1\n      swap2\n      0x0100\n      exp\n      dup2\n      sload\n      dup2\n      0xffffffffffffffffffffffffffffffffffffffff\n      mul\n      not\n      and\n      swap1\n      dup4\n      0xffffffffffffffffffffffffffffffffffffffff\n      and\n      mul\n      or\n      swap1\n      sstore\n      pop\n        /* \"contracts/elections/elections.sol\":2126:2136  totalVotes */\n      0x04\n      0x00\n        /* \"contracts/elections/elections.sol\":2126:2138  totalVotes++ */\n      dup2\n      sload\n      dup1\n      swap3\n      swap2\n      swap1\n      tag_94\n      swap1\n      tag_92\n      jump\t// in\n    tag_94:\n      swap2\n      swap1\n      pop\n      sstore\n      pop\n        /* \"contracts/elections/elections.sol\":1790:2145  function vote(uint _candidateId) public electionInProgress hasNotVoted {... */\n      pop\n      jump\t// out\n        /* \"contracts/elections/elections.sol\":559:581  uint public totalVotes */\n    tag_26:\n      sload(0x04)\n      dup2\n      jump\t// out\n        /* \"contracts/elections/elections.sol\":2151:2247  function getTotalCandidates() public view returns (uint) {... */\n    tag_30:\n        /* \"contracts/elections/elections.sol\":2202:2206  uint */\n      0x00\n        /* \"contracts/elections/elections.sol\":2225:2240  candidatesCount */\n      sload(0x03)\n        /* \"contracts/elections/elections.sol\":2218:2240  return candidatesCount */\n      swap1\n      pop\n        /* \"contracts/elections/elections.sol\":2151:2247  function getTotalCandidates() public view returns (uint) {... */\n      swap1\n      jump\t// out\n        /* \"contracts/elections/elections.sol\":526:553  uint public candidatesCount */\n    tag_33:\n      sload(0x03)\n      dup2\n      jump\t// out\n        /* \"contracts/elections/elections.sol\":476:520  mapping(uint => Candidate) public candidates */\n    tag_37:\n      mstore(0x20, 0x02)\n      dup1\n      0x00\n      mstore\n      keccak256(0x00, 0x40)\n      0x00\n      swap2\n      pop\n      swap1\n      pop\n      dup1\n      0x00\n      add\n      sload\n      swap1\n      dup1\n      0x01\n      add\n      dup1\n      sload\n      tag_96\n      swap1\n      tag_97\n      jump\t// in\n    tag_96:\n      dup1\n      0x1f\n      add\n      0x20\n      dup1\n      swap2\n      div\n      mul\n      0x20\n      add\n      mload(0x40)\n      swap1\n      dup2\n      add\n      0x40\n      mstore\n      dup1\n      swap3\n      swap2\n      swap1\n      dup2\n      dup2\n      mstore\n      0x20\n      add\n      dup3\n      dup1\n      sload\n      tag_98\n      swap1\n      tag_97\n      jump\t// in\n    tag_98:\n      dup1\n      iszero\n      tag_99\n      jumpi\n      dup1\n      0x1f\n      lt\n      tag_100\n      jumpi\n      0x0100\n      dup1\n      dup4\n      sload\n      div\n      mul\n      dup4\n      mstore\n      swap2\n      0x20\n      add\n      swap2\n      jump(tag_99)\n    tag_100:\n      dup3\n      add\n      swap2\n      swap1\n      0x00\n      mstore\n      keccak256(0x00, 0x20)\n      swap1\n    tag_101:\n      dup2\n      sload\n      dup2\n      mstore\n      swap1\n      0x01\n      add\n      swap1\n      0x20\n      add\n      dup1\n      dup4\n      gt\n      tag_101\n      jumpi\n      dup3\n      swap1\n      sub\n      0x1f\n      and\n      dup3\n      add\n      swap2\n    tag_99:\n      pop\n      pop\n      pop\n      pop\n      pop\n      swap1\n      dup1\n      0x02\n      add\n      dup1\n      sload\n      tag_102\n      swap1\n      tag_97\n      jump\t// in\n    tag_102:\n      dup1\n      0x1f\n      add\n      0x20\n      dup1\n      swap2\n      div\n      mul\n      0x20\n      add\n      mload(0x40)\n      swap1\n      dup2\n      add\n      0x40\n      mstore\n      dup1\n      swap3\n      swap2\n      swap1\n      dup2\n      dup2\n      mstore\n      0x20\n      add\n      dup3\n      dup1\n      sload\n      tag_103\n      swap1\n      tag_97\n      jump\t// in\n    tag_103:\n      dup1\n      iszero\n      tag_104\n      jumpi\n      dup1\n      0x1f\n      lt\n      tag_105\n      jumpi\n      0x0100\n      dup1\n      dup4\n      sload\n      div\n      mul\n      dup4\n      mstore\n      swap2\n      0x20\n      add\n      swap2\n      jump(tag_104)\n    tag_105:\n      dup3\n      add\n      swap2\n      swap1\n      0x00\n      mstore\n      keccak256(0x00, 0x20)\n      swap1\n    tag_106:\n      dup2\n      sload\n      dup2\n      mstore\n      swap1\n      0x01\n      add\n      swap1\n      0x20\n      add\n      dup1\n      dup4\n      gt\n      tag_106\n      jumpi\n      dup3\n      swap1\n      sub\n      0x1f\n      and\n      dup3\n      add\n      swap2\n    tag_104:\n      pop\n      pop\n      pop\n      pop\n      pop\n      swap1\n      dup1\n      0x03\n      add\n      dup1\n      sload\n      tag_107\n      swap1\n      tag_97\n      jump\t// in\n    tag_107:\n      dup1\n      0x1f\n      add\n      0x20\n      dup1\n      swap2\n      div\n      mul\n      0x20\n      add\n      mload(0x40)\n      swap1\n      dup2\n      add\n      0x40\n      mstore\n      dup1\n      swap3\n      swap2\n      swap1\n      dup2\n      dup2\n      mstore\n      0x20\n      add\n      dup3\n      dup1\n      sload\n      tag_108\n      swap1\n      tag_97\n      jump\t// in\n    tag_108:\n      dup1\n      iszero\n      tag_109\n      jumpi\n      dup1\n      0x1f\n      lt\n      tag_110\n      jumpi\n      0x0100\n      dup1\n      dup4\n      sload\n      div\n      mul\n      dup4\n      mstore\n      swap2\n      0x20\n      add\n      swap2\n      jump(tag_109)\n    tag_110:\n      dup3\n      add\n      swap2\n      swap1\n      0x00\n      mstore\n      keccak256(0x00, 0x20)\n      swap1\n    tag_111:\n      dup2\n      sload\n      dup2\n      mstore\n      swap1\n      0x01\n      add\n      swap1\n      0x20\n      add\n      dup1\n      dup4\n      gt\n      tag_111\n      jumpi\n      dup3\n      swap1\n      sub\n      0x1f\n      and\n      dup3\n      add\n      swap2\n    tag_109:\n      pop\n      pop\n      pop\n      pop\n      pop\n      swap1\n      dup1\n      0x04\n      add\n      sload\n      swap1\n      pop\n      dup6\n      jump\t// out\n        /* \"contracts/elections/elections.sol\":2345:2773  function getCandidate(uint _candidateId) public view returns (uint, string memory, string memory, string memory, uint, address[] memory) {... */\n    tag_42:\n        /* \"contracts/elections/elections.sol\":2407:2411  uint */\n      0x00\n        /* \"contracts/elections/elections.sol\":2413:2426  string memory */\n      0x60\n        /* \"contracts/elections/elections.sol\":2428:2441  string memory */\n      dup1\n        /* \"contracts/elections/elections.sol\":2443:2456  string memory */\n      0x60\n        /* \"contracts/elections/elections.sol\":2458:2462  uint */\n      0x00\n        /* \"contracts/elections/elections.sol\":2464:2480  address[] memory */\n      0x60\n        /* \"contracts/elections/elections.sol\":2515:2516  0 */\n      0x00\n        /* \"contracts/elections/elections.sol\":2500:2512  _candidateId */\n      dup8\n        /* \"contracts/elections/elections.sol\":2500:2516  _candidateId > 0 */\n      gt\n        /* \"contracts/elections/elections.sol\":2500:2551  _candidateId > 0 && _candidateId <= candidatesCount */\n      dup1\n      iszero\n      tag_113\n      jumpi\n      pop\n        /* \"contracts/elections/elections.sol\":2536:2551  candidatesCount */\n      sload(0x03)\n        /* \"contracts/elections/elections.sol\":2520:2532  _candidateId */\n      dup8\n        /* \"contracts/elections/elections.sol\":2520:2551  _candidateId <= candidatesCount */\n      gt\n      iszero\n        /* \"contracts/elections/elections.sol\":2500:2551  _candidateId > 0 && _candidateId <= candidatesCount */\n    tag_113:\n        /* \"contracts/elections/elections.sol\":2492:2576  require(_candidateId > 0 && _candidateId <= candidatesCount, \"Invalid candidate ID\") */\n      tag_114\n      jumpi\n      mload(0x40)\n      0x08c379a000000000000000000000000000000000000000000000000000000000\n      dup2\n      mstore\n      0x04\n      add\n      tag_115\n      swap1\n      tag_90\n      jump\t// in\n    tag_115:\n      mload(0x40)\n      dup1\n      swap2\n      sub\n      swap1\n      revert\n    tag_114:\n        /* \"contracts/elections/elections.sol\":2586:2612  Candidate memory candidate */\n      0x00\n        /* \"contracts/elections/elections.sol\":2615:2625  candidates */\n      0x02\n        /* \"contracts/elections/elections.sol\":2615:2639  candidates[_candidateId] */\n      0x00\n        /* \"contracts/elections/elections.sol\":2626:2638  _candidateId */\n      dup10\n        /* \"contracts/elections/elections.sol\":2615:2639  candidates[_candidateId] */\n      dup2\n      mstore\n      0x20\n      add\n      swap1\n      dup2\n      mstore\n      0x20\n      add\n      0x00\n      keccak256\n        /* \"contracts/elections/elections.sol\":2586:2639  Candidate memory candidate = candidates[_candidateId] */\n      mload(0x40)\n      dup1\n      0xc0\n      add\n      0x40\n      mstore\n      swap1\n      dup2\n      0x00\n      dup3\n      add\n      sload\n      dup2\n      mstore\n      0x20\n      add\n      0x01\n      dup3\n      add\n      dup1\n      sload\n      tag_116\n      swap1\n      tag_97\n      jump\t// in\n    tag_116:\n      dup1\n      0x1f\n      add\n      0x20\n      dup1\n      swap2\n      div\n      mul\n      0x20\n      add\n      mload(0x40)\n      swap1\n      dup2\n      add\n      0x40\n      mstore\n      dup1\n      swap3\n      swap2\n      swap1\n      dup2\n      dup2\n      mstore\n      0x20\n      add\n      dup3\n      dup1\n      sload\n      tag_117\n      swap1\n      tag_97\n      jump\t// in\n    tag_117:\n      dup1\n      iszero\n      tag_118\n      jumpi\n      dup1\n      0x1f\n      lt\n      tag_119\n      jumpi\n      0x0100\n      dup1\n      dup4\n      sload\n      div\n      mul\n      dup4\n      mstore\n      swap2\n      0x20\n      add\n      swap2\n      jump(tag_118)\n    tag_119:\n      dup3\n      add\n      swap2\n      swap1\n      0x00\n      mstore\n      keccak256(0x00, 0x20)\n      swap1\n    tag_120:\n      dup2\n      sload\n      dup2\n      mstore\n      swap1\n      0x01\n      add\n      swap1\n      0x20\n      add\n      dup1\n      dup4\n      gt\n      tag_120\n      jumpi\n      dup3\n      swap1\n      sub\n      0x1f\n      and\n      dup3\n      add\n      swap2\n    tag_118:\n      pop\n      pop\n      pop\n      pop\n      pop\n      dup2\n      mstore\n      0x20\n      add\n      0x02\n      dup3\n      add\n      dup1\n      sload\n      tag_121\n      swap1\n      tag_97\n      jump\t// in\n    tag_121:\n      dup1\n      0x1f\n      add\n      0x20\n      dup1\n      swap2\n      div\n      mul\n      0x20\n      add\n      mload(0x40)\n      swap1\n      dup2\n      add\n      0x40\n      mstore\n      dup1\n      swap3\n      swap2\n      swap1\n      dup2\n      dup2\n      mstore\n      0x20\n      add\n      dup3\n      dup1\n      sload\n      tag_122\n      swap1\n      tag_97\n      jump\t// in\n    tag_122:\n      dup1\n      iszero\n      tag_123\n      jumpi\n      dup1\n      0x1f\n      lt\n      tag_124\n      jumpi\n      0x0100\n      dup1\n      dup4\n      sload\n      div\n      mul\n      dup4\n      mstore\n      swap2\n      0x20\n      add\n      swap2\n      jump(tag_123)\n    tag_124:\n      dup3\n      add\n      swap2\n      swap1\n      0x00\n      mstore\n      keccak256(0x00, 0x20)\n      swap1\n    tag_125:\n      dup2\n      sload\n      dup2\n      mstore\n      swap1\n      0x01\n      add\n      swap1\n      0x20\n      add\n      dup1\n      dup4\n      gt\n      tag_125\n      jumpi\n      dup3\n      swap1\n      sub\n      0x1f\n      and\n      dup3\n      add\n      swap2\n    tag_123:\n      pop\n      pop\n      pop\n      pop\n      pop\n      dup2\n      mstore\n      0x20\n      add\n      0x03\n      dup3\n      add\n      dup1\n      sload\n      tag_126\n      swap1\n      tag_97\n      jump\t// in\n    tag_126:\n      dup1\n      0x1f\n      add\n      0x20\n      dup1\n      swap2\n      div\n      mul\n      0x20\n      add\n      mload(0x40)\n      swap1\n      dup2\n      add\n      0x40\n      mstore\n      dup1\n      swap3\n      swap2\n      swap1\n      dup2\n      dup2\n      mstore\n      0x20\n      add\n      dup3\n      dup1\n      sload\n      tag_127\n      swap1\n      tag_97\n      jump\t// in\n    tag_127:\n      dup1\n      iszero\n      tag_128\n      jumpi\n      dup1\n      0x1f\n      lt\n      tag_129\n      jumpi\n      0x0100\n      dup1\n      dup4\n      sload\n      div\n      mul\n      dup4\n      mstore\n      swap2\n      0x20\n      add\n      swap2\n      jump(tag_128)\n    tag_129:\n      dup3\n      add\n      swap2\n      swap1\n      0x00\n      mstore\n      keccak256(0x00, 0x20)\n      swap1\n    tag_130:\n      dup2\n      sload\n      dup2\n      mstore\n      swap1\n      0x01\n      add\n      swap1\n      0x20\n      add\n      dup1\n      dup4\n      gt\n      tag_130\n      jumpi\n      dup3\n      swap1\n      sub\n      0x1f\n      and\n      dup3\n      add\n      swap2\n    tag_128:\n      pop\n      pop\n      pop\n      pop\n      pop\n      dup2\n      mstore\n      0x20\n      add\n      0x04\n      dup3\n      add\n      sload\n      dup2\n      mstore\n      0x20\n      add\n      0x05\n      dup3\n      add\n      dup1\n      sload\n      dup1\n      0x20\n      mul\n      0x20\n      add\n      mload(0x40)\n      swap1\n      dup2\n      add\n      0x40\n      mstore\n      dup1\n      swap3\n      swap2\n      swap1\n      dup2\n      dup2\n      mstore\n      0x20\n      add\n      dup3\n      dup1\n      sload\n      dup1\n      iszero\n      tag_131\n      jumpi\n      0x20\n      mul\n      dup3\n      add\n      swap2\n      swap1\n      0x00\n      mstore\n      keccak256(0x00, 0x20)\n      swap1\n    tag_132:\n      dup2\n      0x00\n      swap1\n      sload\n      swap1\n      0x0100\n      exp\n      swap1\n      div\n      0xffffffffffffffffffffffffffffffffffffffff\n      and\n      0xffffffffffffffffffffffffffffffffffffffff\n      and\n      dup2\n      mstore\n      0x20\n      add\n      swap1\n      0x01\n      add\n      swap1\n      dup1\n      dup4\n      gt\n      tag_132\n      jumpi\n    tag_131:\n      pop\n      pop\n      pop\n      pop\n      pop\n      dup2\n      mstore\n      pop\n      pop\n      swap1\n      pop\n        /* \"contracts/elections/elections.sol\":2657:2666  candidate */\n      dup1\n        /* \"contracts/elections/elections.sol\":2657:2669  candidate.id */\n      0x00\n      add\n      mload\n        /* \"contracts/elections/elections.sol\":2671:2680  candidate */\n      dup2\n        /* \"contracts/elections/elections.sol\":2671:2685  candidate.name */\n      0x20\n      add\n      mload\n        /* \"contracts/elections/elections.sol\":2687:2696  candidate */\n      dup3\n        /* \"contracts/elections/elections.sol\":2687:2708  candidate.description */\n      0x40\n      add\n      mload\n        /* \"contracts/elections/elections.sol\":2710:2719  candidate */\n      dup4\n        /* \"contracts/elections/elections.sol\":2710:2726  candidate.symbol */\n      0x60\n      add\n      mload\n        /* \"contracts/elections/elections.sol\":2728:2737  candidate */\n      dup5\n        /* \"contracts/elections/elections.sol\":2728:2747  candidate.voteCount */\n      0x80\n      add\n      mload\n        /* \"contracts/elections/elections.sol\":2749:2758  candidate */\n      dup6\n        /* \"contracts/elections/elections.sol\":2749:2765  candidate.voters */\n      0xa0\n      add\n      mload\n        /* \"contracts/elections/elections.sol\":2649:2766  return (candidate.id, candidate.name, candidate.description, candidate.symbol, candidate.voteCount, candidate.voters) */\n      swap7\n      pop\n      swap7\n      pop\n      swap7\n      pop\n      swap7\n      pop\n      swap7\n      pop\n      swap7\n      pop\n      pop\n        /* \"contracts/elections/elections.sol\":2345:2773  function getCandidate(uint _candidateId) public view returns (uint, string memory, string memory, string memory, uint, address[] memory) {... */\n      swap2\n      swap4\n      swap6\n      pop\n      swap2\n      swap4\n      swap6\n      jump\t// out\n        /* \"contracts/elections/elections.sol\":1631:1784  function endElection() public onlyElectionCreator {... */\n    tag_46:\n        /* \"contracts/elections/elections.sol\":651:666  electionCreator */\n      0x00\n      dup1\n      sload\n      swap1\n      0x0100\n      exp\n      swap1\n      div\n      0xffffffffffffffffffffffffffffffffffffffff\n      and\n        /* \"contracts/elections/elections.sol\":637:666  msg.sender == electionCreator */\n      0xffffffffffffffffffffffffffffffffffffffff\n      and\n        /* \"contracts/elections/elections.sol\":637:647  msg.sender */\n      caller\n        /* \"contracts/elections/elections.sol\":637:666  msg.sender == electionCreator */\n      0xffffffffffffffffffffffffffffffffffffffff\n      and\n      eq\n        /* \"contracts/elections/elections.sol\":629:720  require(msg.sender == electionCreator, \"Only the election creator can perform this action\") */\n      tag_134\n      jumpi\n      mload(0x40)\n      0x08c379a000000000000000000000000000000000000000000000000000000000\n      dup2\n      mstore\n      0x04\n      add\n      tag_135\n      swap1\n      tag_136\n      jump\t// in\n    tag_135:\n      mload(0x40)\n      dup1\n      swap2\n      sub\n      swap1\n      revert\n    tag_134:\n        /* \"contracts/elections/elections.sol\":1699:1714  electionStarted */\n      0x00\n      0x14\n      swap1\n      sload\n      swap1\n      0x0100\n      exp\n      swap1\n      div\n      0xff\n      and\n        /* \"contracts/elections/elections.sol\":1691:1747  require(electionStarted, \"Election has not started yet\") */\n      tag_138\n      jumpi\n      mload(0x40)\n      0x08c379a000000000000000000000000000000000000000000000000000000000\n      dup2\n      mstore\n      0x04\n      add\n      tag_139\n      swap1\n      tag_140\n      jump\t// in\n    tag_139:\n      mload(0x40)\n      dup1\n      swap2\n      sub\n      swap1\n      revert\n    tag_138:\n        /* \"contracts/elections/elections.sol\":1773:1777  true */\n      0x01\n        /* \"contracts/elections/elections.sol\":1757:1770  electionEnded */\n      0x00\n      0x15\n        /* \"contracts/elections/elections.sol\":1757:1777  electionEnded = true */\n      0x0100\n      exp\n      dup2\n      sload\n      dup2\n      0xff\n      mul\n      not\n      and\n      swap1\n      dup4\n      iszero\n      iszero\n      mul\n      or\n      swap1\n      sstore\n      pop\n        /* \"contracts/elections/elections.sol\":1631:1784  function endElection() public onlyElectionCreator {... */\n      jump\t// out\n        /* \"contracts/elections/elections.sol\":1515:1625  function startElection() public onlyElectionCreator electionNotStarted {... */\n    tag_48:\n        /* \"contracts/elections/elections.sol\":651:666  electionCreator */\n      0x00\n      dup1\n      sload\n      swap1\n      0x0100\n      exp\n      swap1\n      div\n      0xffffffffffffffffffffffffffffffffffffffff\n      and\n        /* \"contracts/elections/elections.sol\":637:666  msg.sender == electionCreator */\n      0xffffffffffffffffffffffffffffffffffffffff\n      and\n        /* \"contracts/elections/elections.sol\":637:647  msg.sender */\n      caller\n        /* \"contracts/elections/elections.sol\":637:666  msg.sender == electionCreator */\n      0xffffffffffffffffffffffffffffffffffffffff\n      and\n      eq\n        /* \"contracts/elections/elections.sol\":629:720  require(msg.sender == electionCreator, \"Only the election creator can perform this action\") */\n      tag_142\n      jumpi\n      mload(0x40)\n      0x08c379a000000000000000000000000000000000000000000000000000000000\n      dup2\n      mstore\n      0x04\n      add\n      tag_143\n      swap1\n      tag_136\n      jump\t// in\n    tag_143:\n      mload(0x40)\n      dup1\n      swap2\n      sub\n      swap1\n      revert\n    tag_142:\n        /* \"contracts/elections/elections.sol\":793:808  electionStarted */\n      0x00\n      0x14\n      swap1\n      sload\n      swap1\n      0x0100\n      exp\n      swap1\n      div\n      0xff\n      and\n        /* \"contracts/elections/elections.sol\":792:808  !electionStarted */\n      iszero\n        /* \"contracts/elections/elections.sol\":784:841  require(!electionStarted, \"Election has already started\") */\n      tag_145\n      jumpi\n      mload(0x40)\n      0x08c379a000000000000000000000000000000000000000000000000000000000\n      dup2\n      mstore\n      0x04\n      add\n      tag_146\n      swap1\n      tag_147\n      jump\t// in\n    tag_146:\n      mload(0x40)\n      dup1\n      swap2\n      sub\n      swap1\n      revert\n    tag_145:\n        /* \"contracts/elections/elections.sol\":1614:1618  true */\n      0x01\n        /* \"contracts/elections/elections.sol\":1596:1611  electionStarted */\n      0x00\n      0x14\n        /* \"contracts/elections/elections.sol\":1596:1618  electionStarted = true */\n      0x0100\n      exp\n      dup2\n      sload\n      dup2\n      0xff\n      mul\n      not\n      and\n      swap1\n      dup4\n      iszero\n      iszero\n      mul\n      or\n      swap1\n      sstore\n      pop\n        /* \"contracts/elections/elections.sol\":1515:1625  function startElection() public onlyElectionCreator electionNotStarted {... */\n      jump\t// out\n        /* \"contracts/elections/elections.sol\":2253:2339  function getTotalVotes() public view returns (uint) {... */\n    tag_50:\n        /* \"contracts/elections/elections.sol\":2299:2303  uint */\n      0x00\n        /* \"contracts/elections/elections.sol\":2322:2332  totalVotes */\n      sload(0x04)\n        /* \"contracts/elections/elections.sol\":2315:2332  return totalVotes */\n      swap1\n      pop\n        /* \"contracts/elections/elections.sol\":2253:2339  function getTotalVotes() public view returns (uint) {... */\n      swap1\n      jump\t// out\n        /* \"contracts/elections/elections.sol\":431:470  mapping(address => Voter) public voters */\n    tag_55:\n      mstore(0x20, 0x01)\n      dup1\n      0x00\n      mstore\n      keccak256(0x00, 0x40)\n      0x00\n      swap2\n      pop\n      swap1\n      pop\n      dup1\n      0x00\n      add\n      0x00\n      swap1\n      sload\n      swap1\n      0x0100\n      exp\n      swap1\n      div\n      0xff\n      and\n      swap1\n      dup1\n      0x01\n      add\n      sload\n      swap1\n      pop\n      dup3\n      jump\t// out\n        /* \"contracts/elections/elections.sol\":1187:1509  function addCandidate(string memory _name, string memory _description, string memory _symbol) public onlyElectionCreator electionNotStarted {... */\n    tag_61:\n        /* \"contracts/elections/elections.sol\":651:666  electionCreator */\n      0x00\n      dup1\n      sload\n      swap1\n      0x0100\n      exp\n      swap1\n      div\n      0xffffffffffffffffffffffffffffffffffffffff\n      and\n        /* \"contracts/elections/elections.sol\":637:666  msg.sender == electionCreator */\n      0xffffffffffffffffffffffffffffffffffffffff\n      and\n        /* \"contracts/elections/elections.sol\":637:647  msg.sender */\n      caller\n        /* \"contracts/elections/elections.sol\":637:666  msg.sender == electionCreator */\n      0xffffffffffffffffffffffffffffffffffffffff\n      and\n      eq\n        /* \"contracts/elections/elections.sol\":629:720  require(msg.sender == electionCreator, \"Only the election creator can perform this action\") */\n      tag_151\n      jumpi\n      mload(0x40)\n      0x08c379a000000000000000000000000000000000000000000000000000000000\n      dup2\n      mstore\n      0x04\n      add\n      tag_152\n      swap1\n      tag_136\n      jump\t// in\n    tag_152:\n      mload(0x40)\n      dup1\n      swap2\n      sub\n      swap1\n      revert\n    tag_151:\n        /* \"contracts/elections/elections.sol\":793:808  electionStarted */\n      0x00\n      0x14\n      swap1\n      sload\n      swap1\n      0x0100\n      exp\n      swap1\n      div\n      0xff\n      and\n        /* \"contracts/elections/elections.sol\":792:808  !electionStarted */\n      iszero\n        /* \"contracts/elections/elections.sol\":784:841  require(!electionStarted, \"Election has already started\") */\n      tag_154\n      jumpi\n      mload(0x40)\n      0x08c379a000000000000000000000000000000000000000000000000000000000\n      dup2\n      mstore\n      0x04\n      add\n      tag_155\n      swap1\n      tag_147\n      jump\t// in\n    tag_155:\n      mload(0x40)\n      dup1\n      swap2\n      sub\n      swap1\n      revert\n    tag_154:\n        /* \"contracts/elections/elections.sol\":1337:1352  candidatesCount */\n      0x03\n      0x00\n        /* \"contracts/elections/elections.sol\":1337:1354  candidatesCount++ */\n      dup2\n      sload\n      dup1\n      swap3\n      swap2\n      swap1\n      tag_157\n      swap1\n      tag_92\n      jump\t// in\n    tag_157:\n      swap2\n      swap1\n      pop\n      sstore\n      pop\n        /* \"contracts/elections/elections.sol\":1364:1391  address[] memory emptyArray */\n      0x60\n        /* \"contracts/elections/elections.sol\":1431:1502  Candidate(candidatesCount, _name, _description, _symbol, 0, emptyArray) */\n      mload(0x40)\n      dup1\n      0xc0\n      add\n      0x40\n      mstore\n      dup1\n        /* \"contracts/elections/elections.sol\":1441:1456  candidatesCount */\n      sload(0x03)\n        /* \"contracts/elections/elections.sol\":1431:1502  Candidate(candidatesCount, _name, _description, _symbol, 0, emptyArray) */\n      dup2\n      mstore\n      0x20\n      add\n        /* \"contracts/elections/elections.sol\":1458:1463  _name */\n      dup6\n        /* \"contracts/elections/elections.sol\":1431:1502  Candidate(candidatesCount, _name, _description, _symbol, 0, emptyArray) */\n      dup2\n      mstore\n      0x20\n      add\n        /* \"contracts/elections/elections.sol\":1465:1477  _description */\n      dup5\n        /* \"contracts/elections/elections.sol\":1431:1502  Candidate(candidatesCount, _name, _description, _symbol, 0, emptyArray) */\n      dup2\n      mstore\n      0x20\n      add\n        /* \"contracts/elections/elections.sol\":1479:1486  _symbol */\n      dup4\n        /* \"contracts/elections/elections.sol\":1431:1502  Candidate(candidatesCount, _name, _description, _symbol, 0, emptyArray) */\n      dup2\n      mstore\n      0x20\n      add\n        /* \"contracts/elections/elections.sol\":1488:1489  0 */\n      0x00\n        /* \"contracts/elections/elections.sol\":1431:1502  Candidate(candidatesCount, _name, _description, _symbol, 0, emptyArray) */\n      dup2\n      mstore\n      0x20\n      add\n        /* \"contracts/elections/elections.sol\":1491:1501  emptyArray */\n      dup3\n        /* \"contracts/elections/elections.sol\":1431:1502  Candidate(candidatesCount, _name, _description, _symbol, 0, emptyArray) */\n      dup2\n      mstore\n      pop\n        /* \"contracts/elections/elections.sol\":1401:1411  candidates */\n      0x02\n        /* \"contracts/elections/elections.sol\":1401:1428  candidates[candidatesCount] */\n      0x00\n        /* \"contracts/elections/elections.sol\":1412:1427  candidatesCount */\n      sload(0x03)\n        /* \"contracts/elections/elections.sol\":1401:1428  candidates[candidatesCount] */\n      dup2\n      mstore\n      0x20\n      add\n      swap1\n      dup2\n      mstore\n      0x20\n      add\n      0x00\n      keccak256\n        /* \"contracts/elections/elections.sol\":1401:1502  candidates[candidatesCount] = Candidate(candidatesCount, _name, _description, _symbol, 0, emptyArray) */\n      0x00\n      dup3\n      add\n      mload\n      dup2\n      0x00\n      add\n      sstore\n      0x20\n      dup3\n      add\n      mload\n      dup2\n      0x01\n      add\n      swap1\n      dup2\n      tag_158\n      swap2\n      swap1\n      tag_159\n      jump\t// in\n    tag_158:\n      pop\n      0x40\n      dup3\n      add\n      mload\n      dup2\n      0x02\n      add\n      swap1\n      dup2\n      tag_160\n      swap2\n      swap1\n      tag_159\n      jump\t// in\n    tag_160:\n      pop\n      0x60\n      dup3\n      add\n      mload\n      dup2\n      0x03\n      add\n      swap1\n      dup2\n      tag_161\n      swap2\n      swap1\n      tag_159\n      jump\t// in\n    tag_161:\n      pop\n      0x80\n      dup3\n      add\n      mload\n      dup2\n      0x04\n      add\n      sstore\n      0xa0\n      dup3\n      add\n      mload\n      dup2\n      0x05\n      add\n      swap1\n      dup1\n      mload\n      swap1\n      0x20\n      add\n      swap1\n      tag_162\n      swap3\n      swap2\n      swap1\n      tag_163\n      jump\t// in\n    tag_162:\n      pop\n      swap1\n      pop\n      pop\n        /* \"contracts/elections/elections.sol\":1327:1509  {... */\n      pop\n        /* \"contracts/elections/elections.sol\":1187:1509  function addCandidate(string memory _name, string memory _description, string memory _symbol) public onlyElectionCreator electionNotStarted {... */\n      pop\n      pop\n      pop\n      jump\t// out\n        /* \"contracts/elections/elections.sol\":150:175  bool public electionEnded */\n    tag_63:\n      0x00\n      0x15\n      swap1\n      sload\n      swap1\n      0x0100\n      exp\n      swap1\n      div\n      0xff\n      and\n      dup2\n      jump\t// out\n        /* \"contracts/elections/elections.sol\":2779:2955  function getVoter(address _voter) public view returns (bool, uint) {... */\n    tag_68:\n        /* \"contracts/elections/elections.sol\":2834:2838  bool */\n      0x00\n        /* \"contracts/elections/elections.sol\":2840:2844  uint */\n      dup1\n        /* \"contracts/elections/elections.sol\":2856:2874  Voter memory voter */\n      0x00\n        /* \"contracts/elections/elections.sol\":2877:2883  voters */\n      0x01\n        /* \"contracts/elections/elections.sol\":2877:2891  voters[_voter] */\n      0x00\n        /* \"contracts/elections/elections.sol\":2884:2890  _voter */\n      dup6\n        /* \"contracts/elections/elections.sol\":2877:2891  voters[_voter] */\n      0xffffffffffffffffffffffffffffffffffffffff\n      and\n      0xffffffffffffffffffffffffffffffffffffffff\n      and\n      dup2\n      mstore\n      0x20\n      add\n      swap1\n      dup2\n      mstore\n      0x20\n      add\n      0x00\n      keccak256\n        /* \"contracts/elections/elections.sol\":2856:2891  Voter memory voter = voters[_voter] */\n      mload(0x40)\n      dup1\n      0x40\n      add\n      0x40\n      mstore\n      swap1\n      dup2\n      0x00\n      dup3\n      add\n      0x00\n      swap1\n      sload\n      swap1\n      0x0100\n      exp\n      swap1\n      div\n      0xff\n      and\n      iszero\n      iszero\n      iszero\n      iszero\n      dup2\n      mstore\n      0x20\n      add\n      0x01\n      dup3\n      add\n      sload\n      dup2\n      mstore\n      pop\n      pop\n      swap1\n      pop\n        /* \"contracts/elections/elections.sol\":2909:2914  voter */\n      dup1\n        /* \"contracts/elections/elections.sol\":2909:2923  voter.hasVoted */\n      0x00\n      add\n      mload\n        /* \"contracts/elections/elections.sol\":2925:2930  voter */\n      dup2\n        /* \"contracts/elections/elections.sol\":2925:2947  voter.votedCandidateId */\n      0x20\n      add\n      mload\n        /* \"contracts/elections/elections.sol\":2901:2948  return (voter.hasVoted, voter.votedCandidateId) */\n      swap3\n      pop\n      swap3\n      pop\n      pop\n        /* \"contracts/elections/elections.sol\":2779:2955  function getVoter(address _voter) public view returns (bool, uint) {... */\n      swap2\n      pop\n      swap2\n      jump\t// out\n        /* \"contracts/elections/elections.sol\":117:144  bool public electionStarted */\n    tag_71:\n      0x00\n      0x14\n      swap1\n      sload\n      swap1\n      0x0100\n      exp\n      swap1\n      div\n      0xff\n      and\n      dup2\n      jump\t// out\n        /* \"contracts/elections/elections.sol\":81:111  address public electionCreator */\n    tag_74:\n      0x00\n      dup1\n      sload\n      swap1\n      0x0100\n      exp\n      swap1\n      div\n      0xffffffffffffffffffffffffffffffffffffffff\n      and\n      dup2\n      jump\t// out\n    tag_163:\n      dup3\n      dup1\n      sload\n      dup3\n      dup3\n      sstore\n      swap1\n      0x00\n      mstore\n      keccak256(0x00, 0x20)\n      swap1\n      dup2\n      add\n      swap3\n      dup3\n      iszero\n      tag_165\n      jumpi\n      swap2\n      0x20\n      mul\n      dup3\n      add\n    tag_166:\n      dup3\n      dup2\n      gt\n      iszero\n      tag_167\n      jumpi\n      dup3\n      mload\n      dup3\n      exp(0x0100, 0x00)\n      dup2\n      sload\n      dup2\n      0xffffffffffffffffffffffffffffffffffffffff\n      mul\n      not\n      and\n      swap1\n      dup4\n      0xffffffffffffffffffffffffffffffffffffffff\n      and\n      mul\n      or\n      swap1\n      sstore\n      pop\n      swap2\n      0x20\n      add\n      swap2\n      swap1\n      0x01\n      add\n      swap1\n      jump(tag_166)\n    tag_167:\n    tag_165:\n      pop\n      swap1\n      pop\n      tag_168\n      swap2\n      swap1\n      tag_169\n      jump\t// in\n    tag_168:\n      pop\n      swap1\n      jump\t// out\n    tag_169:\n    tag_170:\n      dup1\n      dup3\n      gt\n      iszero\n      tag_171\n      jumpi\n      0x00\n      dup2\n      0x00\n      swap1\n      sstore\n      pop\n      0x01\n      add\n      jump(tag_170)\n    tag_171:\n      pop\n      swap1\n      jump\t// out\n        /* \"#utility.yul\":7:82   */\n    tag_172:\n        /* \"#utility.yul\":40:46   */\n      0x00\n        /* \"#utility.yul\":73:75   */\n      0x40\n        /* \"#utility.yul\":67:76   */\n      mload\n        /* \"#utility.yul\":57:76   */\n      swap1\n      pop\n        /* \"#utility.yul\":7:82   */\n      swap1\n      jump\t// out\n        /* \"#utility.yul\":88:205   */\n    tag_173:\n        /* \"#utility.yul\":197:198   */\n      0x00\n        /* \"#utility.yul\":194:195   */\n      dup1\n        /* \"#utility.yul\":187:199   */\n      revert\n        /* \"#utility.yul\":211:328   */\n    tag_174:\n        /* \"#utility.yul\":320:321   */\n      0x00\n        /* \"#utility.yul\":317:318   */\n      dup1\n        /* \"#utility.yul\":310:322   */\n      revert\n        /* \"#utility.yul\":334:411   */\n    tag_175:\n        /* \"#utility.yul\":371:378   */\n      0x00\n        /* \"#utility.yul\":400:405   */\n      dup2\n        /* \"#utility.yul\":389:405   */\n      swap1\n      pop\n        /* \"#utility.yul\":334:411   */\n      swap2\n      swap1\n      pop\n      jump\t// out\n        /* \"#utility.yul\":417:539   */\n    tag_176:\n        /* \"#utility.yul\":490:514   */\n      tag_242\n        /* \"#utility.yul\":508:513   */\n      dup2\n        /* \"#utility.yul\":490:514   */\n      tag_175\n      jump\t// in\n    tag_242:\n        /* \"#utility.yul\":483:488   */\n      dup2\n        /* \"#utility.yul\":480:515   */\n      eq\n        /* \"#utility.yul\":470:533   */\n      tag_243\n      jumpi\n        /* \"#utility.yul\":529:530   */\n      0x00\n        /* \"#utility.yul\":526:527   */\n      dup1\n        /* \"#utility.yul\":519:531   */\n      revert\n        /* \"#utility.yul\":470:533   */\n    tag_243:\n        /* \"#utility.yul\":417:539   */\n      pop\n      jump\t// out\n        /* \"#utility.yul\":545:684   */\n    tag_177:\n        /* \"#utility.yul\":591:596   */\n      0x00\n        /* \"#utility.yul\":629:635   */\n      dup2\n        /* \"#utility.yul\":616:636   */\n      calldataload\n        /* \"#utility.yul\":607:636   */\n      swap1\n      pop\n        /* \"#utility.yul\":645:678   */\n      tag_245\n        /* \"#utility.yul\":672:677   */\n      dup2\n        /* \"#utility.yul\":645:678   */\n      tag_176\n      jump\t// in\n    tag_245:\n        /* \"#utility.yul\":545:684   */\n      swap3\n      swap2\n      pop\n      pop\n      jump\t// out\n        /* \"#utility.yul\":690:1019   */\n    tag_23:\n        /* \"#utility.yul\":749:755   */\n      0x00\n        /* \"#utility.yul\":798:800   */\n      0x20\n        /* \"#utility.yul\":786:795   */\n      dup3\n        /* \"#utility.yul\":777:784   */\n      dup5\n        /* \"#utility.yul\":773:796   */\n      sub\n        /* \"#utility.yul\":769:801   */\n      slt\n        /* \"#utility.yul\":766:885   */\n      iszero\n      tag_247\n      jumpi\n        /* \"#utility.yul\":804:883   */\n      tag_248\n      tag_173\n      jump\t// in\n    tag_248:\n        /* \"#utility.yul\":766:885   */\n    tag_247:\n        /* \"#utility.yul\":924:925   */\n      0x00\n        /* \"#utility.yul\":949:1002   */\n      tag_249\n        /* \"#utility.yul\":994:1001   */\n      dup5\n        /* \"#utility.yul\":985:991   */\n      dup3\n        /* \"#utility.yul\":974:983   */\n      dup6\n        /* \"#utility.yul\":970:992   */\n      add\n        /* \"#utility.yul\":949:1002   */\n      tag_177\n      jump\t// in\n    tag_249:\n        /* \"#utility.yul\":939:1002   */\n      swap2\n      pop\n        /* \"#utility.yul\":895:1012   */\n      pop\n        /* \"#utility.yul\":690:1019   */\n      swap3\n      swap2\n      pop\n      pop\n      jump\t// out\n        /* \"#utility.yul\":1025:1143   */\n    tag_178:\n        /* \"#utility.yul\":1112:1136   */\n      tag_251\n        /* \"#utility.yul\":1130:1135   */\n      dup2\n        /* \"#utility.yul\":1112:1136   */\n      tag_175\n      jump\t// in\n    tag_251:\n        /* \"#utility.yul\":1107:1110   */\n      dup3\n        /* \"#utility.yul\":1100:1137   */\n      mstore\n        /* \"#utility.yul\":1025:1143   */\n      pop\n      pop\n      jump\t// out\n        /* \"#utility.yul\":1149:1371   */\n    tag_28:\n        /* \"#utility.yul\":1242:1246   */\n      0x00\n        /* \"#utility.yul\":1280:1282   */\n      0x20\n        /* \"#utility.yul\":1269:1278   */\n      dup3\n        /* \"#utility.yul\":1265:1283   */\n      add\n        /* \"#utility.yul\":1257:1283   */\n      swap1\n      pop\n        /* \"#utility.yul\":1293:1364   */\n      tag_253\n        /* \"#utility.yul\":1361:1362   */\n      0x00\n        /* \"#utility.yul\":1350:1359   */\n      dup4\n        /* \"#utility.yul\":1346:1363   */\n      add\n        /* \"#utility.yul\":1337:1343   */\n      dup5\n        /* \"#utility.yul\":1293:1364   */\n      tag_178\n      jump\t// in\n    tag_253:\n        /* \"#utility.yul\":1149:1371   */\n      swap3\n      swap2\n      pop\n      pop\n      jump\t// out\n        /* \"#utility.yul\":1377:1476   */\n    tag_179:\n        /* \"#utility.yul\":1429:1435   */\n      0x00\n        /* \"#utility.yul\":1463:1468   */\n      dup2\n        /* \"#utility.yul\":1457:1469   */\n      mload\n        /* \"#utility.yul\":1447:1469   */\n      swap1\n      pop\n        /* \"#utility.yul\":1377:1476   */\n      swap2\n      swap1\n      pop\n      jump\t// out\n        /* \"#utility.yul\":1482:1651   */\n    tag_180:\n        /* \"#utility.yul\":1566:1577   */\n      0x00\n        /* \"#utility.yul\":1600:1606   */\n      dup3\n        /* \"#utility.yul\":1595:1598   */\n      dup3\n        /* \"#utility.yul\":1588:1607   */\n      mstore\n        /* \"#utility.yul\":1640:1644   */\n      0x20\n        /* \"#utility.yul\":1635:1638   */\n      dup3\n        /* \"#utility.yul\":1631:1645   */\n      add\n        /* \"#utility.yul\":1616:1645   */\n      swap1\n      pop\n        /* \"#utility.yul\":1482:1651   */\n      swap3\n      swap2\n      pop\n      pop\n      jump\t// out\n        /* \"#utility.yul\":1657:1796   */\n    tag_181:\n        /* \"#utility.yul\":1746:1752   */\n      dup3\n        /* \"#utility.yul\":1741:1744   */\n      dup2\n        /* \"#utility.yul\":1736:1739   */\n      dup4\n        /* \"#utility.yul\":1730:1753   */\n      mcopy\n        /* \"#utility.yul\":1787:1788   */\n      0x00\n        /* \"#utility.yul\":1778:1784   */\n      dup4\n        /* \"#utility.yul\":1773:1776   */\n      dup4\n        /* \"#utility.yul\":1769:1785   */\n      add\n        /* \"#utility.yul\":1762:1789   */\n      mstore\n        /* \"#utility.yul\":1657:1796   */\n      pop\n      pop\n      pop\n      jump\t// out\n        /* \"#utility.yul\":1802:1904   */\n    tag_182:\n        /* \"#utility.yul\":1843:1849   */\n      0x00\n        /* \"#utility.yul\":1894:1896   */\n      0x1f\n        /* \"#utility.yul\":1890:1897   */\n      not\n        /* \"#utility.yul\":1885:1887   */\n      0x1f\n        /* \"#utility.yul\":1878:1883   */\n      dup4\n        /* \"#utility.yul\":1874:1888   */\n      add\n        /* \"#utility.yul\":1870:1898   */\n      and\n        /* \"#utility.yul\":1860:1898   */\n      swap1\n      pop\n        /* \"#utility.yul\":1802:1904   */\n      swap2\n      swap1\n      pop\n      jump\t// out\n        /* \"#utility.yul\":1910:2287   */\n    tag_183:\n        /* \"#utility.yul\":1998:2001   */\n      0x00\n        /* \"#utility.yul\":2026:2065   */\n      tag_259\n        /* \"#utility.yul\":2059:2064   */\n      dup3\n        /* \"#utility.yul\":2026:2065   */\n      tag_179\n      jump\t// in\n    tag_259:\n        /* \"#utility.yul\":2081:2152   */\n      tag_260\n        /* \"#utility.yul\":2145:2151   */\n      dup2\n        /* \"#utility.yul\":2140:2143   */\n      dup6\n        /* \"#utility.yul\":2081:2152   */\n      tag_180\n      jump\t// in\n    tag_260:\n        /* \"#utility.yul\":2074:2152   */\n      swap4\n      pop\n        /* \"#utility.yul\":2161:2226   */\n      tag_261\n        /* \"#utility.yul\":2219:2225   */\n      dup2\n        /* \"#utility.yul\":2214:2217   */\n      dup6\n        /* \"#utility.yul\":2207:2211   */\n      0x20\n        /* \"#utility.yul\":2200:2205   */\n      dup7\n        /* \"#utility.yul\":2196:2212   */\n      add\n        /* \"#utility.yul\":2161:2226   */\n      tag_181\n      jump\t// in\n    tag_261:\n        /* \"#utility.yul\":2251:2280   */\n      tag_262\n        /* \"#utility.yul\":2273:2279   */\n      dup2\n        /* \"#utility.yul\":2251:2280   */\n      tag_182\n      jump\t// in\n    tag_262:\n        /* \"#utility.yul\":2246:2249   */\n      dup5\n        /* \"#utility.yul\":2242:2281   */\n      add\n        /* \"#utility.yul\":2235:2281   */\n      swap2\n      pop\n        /* \"#utility.yul\":2002:2287   */\n      pop\n        /* \"#utility.yul\":1910:2287   */\n      swap3\n      swap2\n      pop\n      pop\n      jump\t// out\n        /* \"#utility.yul\":2293:3230   */\n    tag_39:\n        /* \"#utility.yul\":2558:2562   */\n      0x00\n        /* \"#utility.yul\":2596:2599   */\n      0xa0\n        /* \"#utility.yul\":2585:2594   */\n      dup3\n        /* \"#utility.yul\":2581:2600   */\n      add\n        /* \"#utility.yul\":2573:2600   */\n      swap1\n      pop\n        /* \"#utility.yul\":2610:2681   */\n      tag_264\n        /* \"#utility.yul\":2678:2679   */\n      0x00\n        /* \"#utility.yul\":2667:2676   */\n      dup4\n        /* \"#utility.yul\":2663:2680   */\n      add\n        /* \"#utility.yul\":2654:2660   */\n      dup9\n        /* \"#utility.yul\":2610:2681   */\n      tag_178\n      jump\t// in\n    tag_264:\n        /* \"#utility.yul\":2728:2737   */\n      dup2\n        /* \"#utility.yul\":2722:2726   */\n      dup2\n        /* \"#utility.yul\":2718:2738   */\n      sub\n        /* \"#utility.yul\":2713:2715   */\n      0x20\n        /* \"#utility.yul\":2702:2711   */\n      dup4\n        /* \"#utility.yul\":2698:2716   */\n      add\n        /* \"#utility.yul\":2691:2739   */\n      mstore\n        /* \"#utility.yul\":2756:2834   */\n      tag_265\n        /* \"#utility.yul\":2829:2833   */\n      dup2\n        /* \"#utility.yul\":2820:2826   */\n      dup8\n        /* \"#utility.yul\":2756:2834   */\n      tag_183\n      jump\t// in\n    tag_265:\n        /* \"#utility.yul\":2748:2834   */\n      swap1\n      pop\n        /* \"#utility.yul\":2881:2890   */\n      dup2\n        /* \"#utility.yul\":2875:2879   */\n      dup2\n        /* \"#utility.yul\":2871:2891   */\n      sub\n        /* \"#utility.yul\":2866:2868   */\n      0x40\n        /* \"#utility.yul\":2855:2864   */\n      dup4\n        /* \"#utility.yul\":2851:2869   */\n      add\n        /* \"#utility.yul\":2844:2892   */\n      mstore\n        /* \"#utility.yul\":2909:2987   */\n      tag_266\n        /* \"#utility.yul\":2982:2986   */\n      dup2\n        /* \"#utility.yul\":2973:2979   */\n      dup7\n        /* \"#utility.yul\":2909:2987   */\n      tag_183\n      jump\t// in\n    tag_266:\n        /* \"#utility.yul\":2901:2987   */\n      swap1\n      pop\n        /* \"#utility.yul\":3034:3043   */\n      dup2\n        /* \"#utility.yul\":3028:3032   */\n      dup2\n        /* \"#utility.yul\":3024:3044   */\n      sub\n        /* \"#utility.yul\":3019:3021   */\n      0x60\n        /* \"#utility.yul\":3008:3017   */\n      dup4\n        /* \"#utility.yul\":3004:3022   */\n      add\n        /* \"#utility.yul\":2997:3045   */\n      mstore\n        /* \"#utility.yul\":3062:3140   */\n      tag_267\n        /* \"#utility.yul\":3135:3139   */\n      dup2\n        /* \"#utility.yul\":3126:3132   */\n      dup6\n        /* \"#utility.yul\":3062:3140   */\n      tag_183\n      jump\t// in\n    tag_267:\n        /* \"#utility.yul\":3054:3140   */\n      swap1\n      pop\n        /* \"#utility.yul\":3150:3223   */\n      tag_268\n        /* \"#utility.yul\":3218:3221   */\n      0x80\n        /* \"#utility.yul\":3207:3216   */\n      dup4\n        /* \"#utility.yul\":3203:3222   */\n      add\n        /* \"#utility.yul\":3194:3200   */\n      dup5\n        /* \"#utility.yul\":3150:3223   */\n      tag_178\n      jump\t// in\n    tag_268:\n        /* \"#utility.yul\":2293:3230   */\n      swap7\n      swap6\n      pop\n      pop\n      pop\n      pop\n      pop\n      pop\n      jump\t// out\n        /* \"#utility.yul\":3236:3350   */\n    tag_184:\n        /* \"#utility.yul\":3303:3309   */\n      0x00\n        /* \"#utility.yul\":3337:3342   */\n      dup2\n        /* \"#utility.yul\":3331:3343   */\n      mload\n        /* \"#utility.yul\":3321:3343   */\n      swap1\n      pop\n        /* \"#utility.yul\":3236:3350   */\n      swap2\n      swap1\n      pop\n      jump\t// out\n        /* \"#utility.yul\":3356:3540   */\n    tag_185:\n        /* \"#utility.yul\":3455:3466   */\n      0x00\n        /* \"#utility.yul\":3489:3495   */\n      dup3\n        /* \"#utility.yul\":3484:3487   */\n      dup3\n        /* \"#utility.yul\":3477:3496   */\n      mstore\n        /* \"#utility.yul\":3529:3533   */\n      0x20\n        /* \"#utility.yul\":3524:3527   */\n      dup3\n        /* \"#utility.yul\":3520:3534   */\n      add\n        /* \"#utility.yul\":3505:3534   */\n      swap1\n      pop\n        /* \"#utility.yul\":3356:3540   */\n      swap3\n      swap2\n      pop\n      pop\n      jump\t// out\n        /* \"#utility.yul\":3546:3678   */\n    tag_186:\n        /* \"#utility.yul\":3613:3617   */\n      0x00\n        /* \"#utility.yul\":3636:3639   */\n      dup2\n        /* \"#utility.yul\":3628:3639   */\n      swap1\n      pop\n        /* \"#utility.yul\":3666:3670   */\n      0x20\n        /* \"#utility.yul\":3661:3664   */\n      dup3\n        /* \"#utility.yul\":3657:3671   */\n      add\n        /* \"#utility.yul\":3649:3671   */\n      swap1\n      pop\n        /* \"#utility.yul\":3546:3678   */\n      swap2\n      swap1\n      pop\n      jump\t// out\n        /* \"#utility.yul\":3684:3810   */\n    tag_187:\n        /* \"#utility.yul\":3721:3728   */\n      0x00\n        /* \"#utility.yul\":3761:3803   */\n      0xffffffffffffffffffffffffffffffffffffffff\n        /* \"#utility.yul\":3754:3759   */\n      dup3\n        /* \"#utility.yul\":3750:3804   */\n      and\n        /* \"#utility.yul\":3739:3804   */\n      swap1\n      pop\n        /* \"#utility.yul\":3684:3810   */\n      swap2\n      swap1\n      pop\n      jump\t// out\n        /* \"#utility.yul\":3816:3912   */\n    tag_188:\n        /* \"#utility.yul\":3853:3860   */\n      0x00\n        /* \"#utility.yul\":3882:3906   */\n      tag_274\n        /* \"#utility.yul\":3900:3905   */\n      dup3\n        /* \"#utility.yul\":3882:3906   */\n      tag_187\n      jump\t// in\n    tag_274:\n        /* \"#utility.yul\":3871:3906   */\n      swap1\n      pop\n        /* \"#utility.yul\":3816:3912   */\n      swap2\n      swap1\n      pop\n      jump\t// out\n        /* \"#utility.yul\":3918:4026   */\n    tag_189:\n        /* \"#utility.yul\":3995:4019   */\n      tag_276\n        /* \"#utility.yul\":4013:4018   */\n      dup2\n        /* \"#utility.yul\":3995:4019   */\n      tag_188\n      jump\t// in\n    tag_276:\n        /* \"#utility.yul\":3990:3993   */\n      dup3\n        /* \"#utility.yul\":3983:4020   */\n      mstore\n        /* \"#utility.yul\":3918:4026   */\n      pop\n      pop\n      jump\t// out\n        /* \"#utility.yul\":4032:4211   */\n    tag_190:\n        /* \"#utility.yul\":4101:4111   */\n      0x00\n        /* \"#utility.yul\":4122:4168   */\n      tag_278\n        /* \"#utility.yul\":4164:4167   */\n      dup4\n        /* \"#utility.yul\":4156:4162   */\n      dup4\n        /* \"#utility.yul\":4122:4168   */\n      tag_189\n      jump\t// in\n    tag_278:\n        /* \"#utility.yul\":4200:4204   */\n      0x20\n        /* \"#utility.yul\":4195:4198   */\n      dup4\n        /* \"#utility.yul\":4191:4205   */\n      add\n        /* \"#utility.yul\":4177:4205   */\n      swap1\n      pop\n        /* \"#utility.yul\":4032:4211   */\n      swap3\n      swap2\n      pop\n      pop\n      jump\t// out\n        /* \"#utility.yul\":4217:4330   */\n    tag_191:\n        /* \"#utility.yul\":4287:4291   */\n      0x00\n        /* \"#utility.yul\":4319:4323   */\n      0x20\n        /* \"#utility.yul\":4314:4317   */\n      dup3\n        /* \"#utility.yul\":4310:4324   */\n      add\n        /* \"#utility.yul\":4302:4324   */\n      swap1\n      pop\n        /* \"#utility.yul\":4217:4330   */\n      swap2\n      swap1\n      pop\n      jump\t// out\n        /* \"#utility.yul\":4366:5098   */\n    tag_192:\n        /* \"#utility.yul\":4485:4488   */\n      0x00\n        /* \"#utility.yul\":4514:4568   */\n      tag_281\n        /* \"#utility.yul\":4562:4567   */\n      dup3\n        /* \"#utility.yul\":4514:4568   */\n      tag_184\n      jump\t// in\n    tag_281:\n        /* \"#utility.yul\":4584:4670   */\n      tag_282\n        /* \"#utility.yul\":4663:4669   */\n      dup2\n        /* \"#utility.yul\":4658:4661   */\n      dup6\n        /* \"#utility.yul\":4584:4670   */\n      tag_185\n      jump\t// in\n    tag_282:\n        /* \"#utility.yul\":4577:4670   */\n      swap4\n      pop\n        /* \"#utility.yul\":4694:4750   */\n      tag_283\n        /* \"#utility.yul\":4744:4749   */\n      dup4\n        /* \"#utility.yul\":4694:4750   */\n      tag_186\n      jump\t// in\n    tag_283:\n        /* \"#utility.yul\":4773:4780   */\n      dup1\n        /* \"#utility.yul\":4804:4805   */\n      0x00\n        /* \"#utility.yul\":4789:5073   */\n    tag_284:\n        /* \"#utility.yul\":4814:4820   */\n      dup4\n        /* \"#utility.yul\":4811:4812   */\n      dup2\n        /* \"#utility.yul\":4808:4821   */\n      lt\n        /* \"#utility.yul\":4789:5073   */\n      iszero\n      tag_286\n      jumpi\n        /* \"#utility.yul\":4890:4896   */\n      dup2\n        /* \"#utility.yul\":4884:4897   */\n      mload\n        /* \"#utility.yul\":4917:4980   */\n      tag_287\n        /* \"#utility.yul\":4976:4979   */\n      dup9\n        /* \"#utility.yul\":4961:4974   */\n      dup3\n        /* \"#utility.yul\":4917:4980   */\n      tag_190\n      jump\t// in\n    tag_287:\n        /* \"#utility.yul\":4910:4980   */\n      swap8\n      pop\n        /* \"#utility.yul\":5003:5063   */\n      tag_288\n        /* \"#utility.yul\":5056:5062   */\n      dup4\n        /* \"#utility.yul\":5003:5063   */\n      tag_191\n      jump\t// in\n    tag_288:\n        /* \"#utility.yul\":4993:5063   */\n      swap3\n      pop\n        /* \"#utility.yul\":4849:5073   */\n      pop\n        /* \"#utility.yul\":4836:4837   */\n      0x01\n        /* \"#utility.yul\":4833:4834   */\n      dup2\n        /* \"#utility.yul\":4829:4838   */\n      add\n        /* \"#utility.yul\":4824:4838   */\n      swap1\n      pop\n        /* \"#utility.yul\":4789:5073   */\n      jump(tag_284)\n    tag_286:\n        /* \"#utility.yul\":4793:4807   */\n      pop\n        /* \"#utility.yul\":5089:5092   */\n      dup6\n        /* \"#utility.yul\":5082:5092   */\n      swap4\n      pop\n        /* \"#utility.yul\":4490:5098   */\n      pop\n      pop\n      pop\n        /* \"#utility.yul\":4366:5098   */\n      swap3\n      swap2\n      pop\n      pop\n      jump\t// out\n        /* \"#utility.yul\":5104:6303   */\n    tag_44:\n        /* \"#utility.yul\":5447:5451   */\n      0x00\n        /* \"#utility.yul\":5485:5488   */\n      0xc0\n        /* \"#utility.yul\":5474:5483   */\n      dup3\n        /* \"#utility.yul\":5470:5489   */\n      add\n        /* \"#utility.yul\":5462:5489   */\n      swap1\n      pop\n        /* \"#utility.yul\":5499:5570   */\n      tag_290\n        /* \"#utility.yul\":5567:5568   */\n      0x00\n        /* \"#utility.yul\":5556:5565   */\n      dup4\n        /* \"#utility.yul\":5552:5569   */\n      add\n        /* \"#utility.yul\":5543:5549   */\n      dup10\n        /* \"#utility.yul\":5499:5570   */\n      tag_178\n      jump\t// in\n    tag_290:\n        /* \"#utility.yul\":5617:5626   */\n      dup2\n        /* \"#utility.yul\":5611:5615   */\n      dup2\n        /* \"#utility.yul\":5607:5627   */\n      sub\n        /* \"#utility.yul\":5602:5604   */\n      0x20\n        /* \"#utility.yul\":5591:5600   */\n      dup4\n        /* \"#utility.yul\":5587:5605   */\n      add\n        /* \"#utility.yul\":5580:5628   */\n      mstore\n        /* \"#utility.yul\":5645:5723   */\n      tag_291\n        /* \"#utility.yul\":5718:5722   */\n      dup2\n        /* \"#utility.yul\":5709:5715   */\n      dup9\n        /* \"#utility.yul\":5645:5723   */\n      tag_183\n      jump\t// in\n    tag_291:\n        /* \"#utility.yul\":5637:5723   */\n      swap1\n      pop\n        /* \"#utility.yul\":5770:5779   */\n      dup2\n        /* \"#utility.yul\":5764:5768   */\n      dup2\n        /* \"#utility.yul\":5760:5780   */\n      sub\n        /* \"#utility.yul\":5755:5757   */\n      0x40\n        /* \"#utility.yul\":5744:5753   */\n      dup4\n        /* \"#utility.yul\":5740:5758   */\n      add\n        /* \"#utility.yul\":5733:5781   */\n      mstore\n        /* \"#utility.yul\":5798:5876   */\n      tag_292\n        /* \"#utility.yul\":5871:5875   */\n      dup2\n        /* \"#utility.yul\":5862:5868   */\n      dup8\n        /* \"#utility.yul\":5798:5876   */\n      tag_183\n      jump\t// in\n    tag_292:\n        /* \"#utility.yul\":5790:5876   */\n      swap1\n      pop\n        /* \"#utility.yul\":5923:5932   */\n      dup2\n        /* \"#utility.yul\":5917:5921   */\n      dup2\n        /* \"#utility.yul\":5913:5933   */\n      sub\n        /* \"#utility.yul\":5908:5910   */\n      0x60\n        /* \"#utility.yul\":5897:5906   */\n      dup4\n        /* \"#utility.yul\":5893:5911   */\n      add\n        /* \"#utility.yul\":5886:5934   */\n      mstore\n        /* \"#utility.yul\":5951:6029   */\n      tag_293\n        /* \"#utility.yul\":6024:6028   */\n      dup2\n        /* \"#utility.yul\":6015:6021   */\n      dup7\n        /* \"#utility.yul\":5951:6029   */\n      tag_183\n      jump\t// in\n    tag_293:\n        /* \"#utility.yul\":5943:6029   */\n      swap1\n      pop\n        /* \"#utility.yul\":6039:6112   */\n      tag_294\n        /* \"#utility.yul\":6107:6110   */\n      0x80\n        /* \"#utility.yul\":6096:6105   */\n      dup4\n        /* \"#utility.yul\":6092:6111   */\n      add\n        /* \"#utility.yul\":6083:6089   */\n      dup6\n        /* \"#utility.yul\":6039:6112   */\n      tag_178\n      jump\t// in\n    tag_294:\n        /* \"#utility.yul\":6160:6169   */\n      dup2\n        /* \"#utility.yul\":6154:6158   */\n      dup2\n        /* \"#utility.yul\":6150:6170   */\n      sub\n        /* \"#utility.yul\":6144:6147   */\n      0xa0\n        /* \"#utility.yul\":6133:6142   */\n      dup4\n        /* \"#utility.yul\":6129:6148   */\n      add\n        /* \"#utility.yul\":6122:6171   */\n      mstore\n        /* \"#utility.yul\":6188:6296   */\n      tag_295\n        /* \"#utility.yul\":6291:6295   */\n      dup2\n        /* \"#utility.yul\":6282:6288   */\n      dup5\n        /* \"#utility.yul\":6188:6296   */\n      tag_192\n      jump\t// in\n    tag_295:\n        /* \"#utility.yul\":6180:6296   */\n      swap1\n      pop\n        /* \"#utility.yul\":5104:6303   */\n      swap8\n      swap7\n      pop\n      pop\n      pop\n      pop\n      pop\n      pop\n      pop\n      jump\t// out\n        /* \"#utility.yul\":6309:6431   */\n    tag_193:\n        /* \"#utility.yul\":6382:6406   */\n      tag_297\n        /* \"#utility.yul\":6400:6405   */\n      dup2\n        /* \"#utility.yul\":6382:6406   */\n      tag_188\n      jump\t// in\n    tag_297:\n        /* \"#utility.yul\":6375:6380   */\n      dup2\n        /* \"#utility.yul\":6372:6407   */\n      eq\n        /* \"#utility.yul\":6362:6425   */\n      tag_298\n      jumpi\n        /* \"#utility.yul\":6421:6422   */\n      0x00\n        /* \"#utility.yul\":6418:6419   */\n      dup1\n        /* \"#utility.yul\":6411:6423   */\n      revert\n        /* \"#utility.yul\":6362:6425   */\n    tag_298:\n        /* \"#utility.yul\":6309:6431   */\n      pop\n      jump\t// out\n        /* \"#utility.yul\":6437:6576   */\n    tag_194:\n        /* \"#utility.yul\":6483:6488   */\n      0x00\n        /* \"#utility.yul\":6521:6527   */\n      dup2\n        /* \"#utility.yul\":6508:6528   */\n      calldataload\n        /* \"#utility.yul\":6499:6528   */\n      swap1\n      pop\n        /* \"#utility.yul\":6537:6570   */\n      tag_300\n        /* \"#utility.yul\":6564:6569   */\n      dup2\n        /* \"#utility.yul\":6537:6570   */\n      tag_193\n      jump\t// in\n    tag_300:\n        /* \"#utility.yul\":6437:6576   */\n      swap3\n      swap2\n      pop\n      pop\n      jump\t// out\n        /* \"#utility.yul\":6582:6911   */\n    tag_54:\n        /* \"#utility.yul\":6641:6647   */\n      0x00\n        /* \"#utility.yul\":6690:6692   */\n      0x20\n        /* \"#utility.yul\":6678:6687   */\n      dup3\n        /* \"#utility.yul\":6669:6676   */\n      dup5\n        /* \"#utility.yul\":6665:6688   */\n      sub\n        /* \"#utility.yul\":6661:6693   */\n      slt\n        /* \"#utility.yul\":6658:6777   */\n      iszero\n      tag_302\n      jumpi\n        /* \"#utility.yul\":6696:6775   */\n      tag_303\n      tag_173\n      jump\t// in\n    tag_303:\n        /* \"#utility.yul\":6658:6777   */\n    tag_302:\n        /* \"#utility.yul\":6816:6817   */\n      0x00\n        /* \"#utility.yul\":6841:6894   */\n      tag_304\n        /* \"#utility.yul\":6886:6893   */\n      dup5\n        /* \"#utility.yul\":6877:6883   */\n      dup3\n        /* \"#utility.yul\":6866:6875   */\n      dup6\n        /* \"#utility.yul\":6862:6884   */\n      add\n        /* \"#utility.yul\":6841:6894   */\n      tag_194\n      jump\t// in\n    tag_304:\n        /* \"#utility.yul\":6831:6894   */\n      swap2\n      pop\n        /* \"#utility.yul\":6787:6904   */\n      pop\n        /* \"#utility.yul\":6582:6911   */\n      swap3\n      swap2\n      pop\n      pop\n      jump\t// out\n        /* \"#utility.yul\":6917:7007   */\n    tag_195:\n        /* \"#utility.yul\":6951:6958   */\n      0x00\n        /* \"#utility.yul\":6994:6999   */\n      dup2\n        /* \"#utility.yul\":6987:7000   */\n      iszero\n        /* \"#utility.yul\":6980:7001   */\n      iszero\n        /* \"#utility.yul\":6969:7001   */\n      swap1\n      pop\n        /* \"#utility.yul\":6917:7007   */\n      swap2\n      swap1\n      pop\n      jump\t// out\n        /* \"#utility.yul\":7013:7122   */\n    tag_196:\n        /* \"#utility.yul\":7094:7115   */\n      tag_307\n        /* \"#utility.yul\":7109:7114   */\n      dup2\n        /* \"#utility.yul\":7094:7115   */\n      tag_195\n      jump\t// in\n    tag_307:\n        /* \"#utility.yul\":7089:7092   */\n      dup3\n        /* \"#utility.yul\":7082:7116   */\n      mstore\n        /* \"#utility.yul\":7013:7122   */\n      pop\n      pop\n      jump\t// out\n        /* \"#utility.yul\":7128:7448   */\n    tag_57:\n        /* \"#utility.yul\":7243:7247   */\n      0x00\n        /* \"#utility.yul\":7281:7283   */\n      0x40\n        /* \"#utility.yul\":7270:7279   */\n      dup3\n        /* \"#utility.yul\":7266:7284   */\n      add\n        /* \"#utility.yul\":7258:7284   */\n      swap1\n      pop\n        /* \"#utility.yul\":7294:7359   */\n      tag_309\n        /* \"#utility.yul\":7356:7357   */\n      0x00\n        /* \"#utility.yul\":7345:7354   */\n      dup4\n        /* \"#utility.yul\":7341:7358   */\n      add\n        /* \"#utility.yul\":7332:7338   */\n      dup6\n        /* \"#utility.yul\":7294:7359   */\n      tag_196\n      jump\t// in\n    tag_309:\n        /* \"#utility.yul\":7369:7441   */\n      tag_310\n        /* \"#utility.yul\":7437:7439   */\n      0x20\n        /* \"#utility.yul\":7426:7435   */\n      dup4\n        /* \"#utility.yul\":7422:7440   */\n      add\n        /* \"#utility.yul\":7413:7419   */\n      dup5\n        /* \"#utility.yul\":7369:7441   */\n      tag_178\n      jump\t// in\n    tag_310:\n        /* \"#utility.yul\":7128:7448   */\n      swap4\n      swap3\n      pop\n      pop\n      pop\n      jump\t// out\n        /* \"#utility.yul\":7454:7571   */\n    tag_197:\n        /* \"#utility.yul\":7563:7564   */\n      0x00\n        /* \"#utility.yul\":7560:7561   */\n      dup1\n        /* \"#utility.yul\":7553:7565   */\n      revert\n        /* \"#utility.yul\":7577:7694   */\n    tag_198:\n        /* \"#utility.yul\":7686:7687   */\n      0x00\n        /* \"#utility.yul\":7683:7684   */\n      dup1\n        /* \"#utility.yul\":7676:7688   */\n      revert\n        /* \"#utility.yul\":7700:7880   */\n    tag_199:\n        /* \"#utility.yul\":7748:7825   */\n      0x4e487b7100000000000000000000000000000000000000000000000000000000\n        /* \"#utility.yul\":7745:7746   */\n      0x00\n        /* \"#utility.yul\":7738:7826   */\n      mstore\n        /* \"#utility.yul\":7845:7849   */\n      0x41\n        /* \"#utility.yul\":7842:7843   */\n      0x04\n        /* \"#utility.yul\":7835:7850   */\n      mstore\n        /* \"#utility.yul\":7869:7873   */\n      0x24\n        /* \"#utility.yul\":7866:7867   */\n      0x00\n        /* \"#utility.yul\":7859:7874   */\n      revert\n        /* \"#utility.yul\":7886:8167   */\n    tag_200:\n        /* \"#utility.yul\":7969:7996   */\n      tag_315\n        /* \"#utility.yul\":7991:7995   */\n      dup3\n        /* \"#utility.yul\":7969:7996   */\n      tag_182\n      jump\t// in\n    tag_315:\n        /* \"#utility.yul\":7961:7967   */\n      dup2\n        /* \"#utility.yul\":7957:7997   */\n      add\n        /* \"#utility.yul\":8099:8105   */\n      dup2\n        /* \"#utility.yul\":8087:8097   */\n      dup2\n        /* \"#utility.yul\":8084:8106   */\n      lt\n        /* \"#utility.yul\":8063:8081   */\n      0xffffffffffffffff\n        /* \"#utility.yul\":8051:8061   */\n      dup3\n        /* \"#utility.yul\":8048:8082   */\n      gt\n        /* \"#utility.yul\":8045:8107   */\n      or\n        /* \"#utility.yul\":8042:8130   */\n      iszero\n      tag_316\n      jumpi\n        /* \"#utility.yul\":8110:8128   */\n      tag_317\n      tag_199\n      jump\t// in\n    tag_317:\n        /* \"#utility.yul\":8042:8130   */\n    tag_316:\n        /* \"#utility.yul\":8150:8160   */\n      dup1\n        /* \"#utility.yul\":8146:8148   */\n      0x40\n        /* \"#utility.yul\":8139:8161   */\n      mstore\n        /* \"#utility.yul\":7929:8167   */\n      pop\n        /* \"#utility.yul\":7886:8167   */\n      pop\n      pop\n      jump\t// out\n        /* \"#utility.yul\":8173:8302   */\n    tag_201:\n        /* \"#utility.yul\":8207:8213   */\n      0x00\n        /* \"#utility.yul\":8234:8254   */\n      tag_319\n      tag_172\n      jump\t// in\n    tag_319:\n        /* \"#utility.yul\":8224:8254   */\n      swap1\n      pop\n        /* \"#utility.yul\":8263:8296   */\n      tag_320\n        /* \"#utility.yul\":8291:8295   */\n      dup3\n        /* \"#utility.yul\":8283:8289   */\n      dup3\n        /* \"#utility.yul\":8263:8296   */\n      tag_200\n      jump\t// in\n    tag_320:\n        /* \"#utility.yul\":8173:8302   */\n      swap2\n      swap1\n      pop\n      jump\t// out\n        /* \"#utility.yul\":8308:8616   */\n    tag_202:\n        /* \"#utility.yul\":8370:8374   */\n      0x00\n        /* \"#utility.yul\":8460:8478   */\n      0xffffffffffffffff\n        /* \"#utility.yul\":8452:8458   */\n      dup3\n        /* \"#utility.yul\":8449:8479   */\n      gt\n        /* \"#utility.yul\":8446:8502   */\n      iszero\n      tag_322\n      jumpi\n        /* \"#utility.yul\":8482:8500   */\n      tag_323\n      tag_199\n      jump\t// in\n    tag_323:\n        /* \"#utility.yul\":8446:8502   */\n    tag_322:\n        /* \"#utility.yul\":8520:8549   */\n      tag_324\n        /* \"#utility.yul\":8542:8548   */\n      dup3\n        /* \"#utility.yul\":8520:8549   */\n      tag_182\n      jump\t// in\n    tag_324:\n        /* \"#utility.yul\":8512:8549   */\n      swap1\n      pop\n        /* \"#utility.yul\":8604:8608   */\n      0x20\n        /* \"#utility.yul\":8598:8602   */\n      dup2\n        /* \"#utility.yul\":8594:8609   */\n      add\n        /* \"#utility.yul\":8586:8609   */\n      swap1\n      pop\n        /* \"#utility.yul\":8308:8616   */\n      swap2\n      swap1\n      pop\n      jump\t// out\n        /* \"#utility.yul\":8622:8770   */\n    tag_203:\n        /* \"#utility.yul\":8720:8726   */\n      dup3\n        /* \"#utility.yul\":8715:8718   */\n      dup2\n        /* \"#utility.yul\":8710:8713   */\n      dup4\n        /* \"#utility.yul\":8697:8727   */\n      calldatacopy\n        /* \"#utility.yul\":8761:8762   */\n      0x00\n        /* \"#utility.yul\":8752:8758   */\n      dup4\n        /* \"#utility.yul\":8747:8750   */\n      dup4\n        /* \"#utility.yul\":8743:8759   */\n      add\n        /* \"#utility.yul\":8736:8763   */\n      mstore\n        /* \"#utility.yul\":8622:8770   */\n      pop\n      pop\n      pop\n      jump\t// out\n        /* \"#utility.yul\":8776:9201   */\n    tag_204:\n        /* \"#utility.yul\":8854:8859   */\n      0x00\n        /* \"#utility.yul\":8879:8945   */\n      tag_327\n        /* \"#utility.yul\":8895:8944   */\n      tag_328\n        /* \"#utility.yul\":8937:8943   */\n      dup5\n        /* \"#utility.yul\":8895:8944   */\n      tag_202\n      jump\t// in\n    tag_328:\n        /* \"#utility.yul\":8879:8945   */\n      tag_201\n      jump\t// in\n    tag_327:\n        /* \"#utility.yul\":8870:8945   */\n      swap1\n      pop\n        /* \"#utility.yul\":8968:8974   */\n      dup3\n        /* \"#utility.yul\":8961:8966   */\n      dup2\n        /* \"#utility.yul\":8954:8975   */\n      mstore\n        /* \"#utility.yul\":9006:9010   */\n      0x20\n        /* \"#utility.yul\":8999:9004   */\n      dup2\n        /* \"#utility.yul\":8995:9011   */\n      add\n        /* \"#utility.yul\":9044:9047   */\n      dup5\n        /* \"#utility.yul\":9035:9041   */\n      dup5\n        /* \"#utility.yul\":9030:9033   */\n      dup5\n        /* \"#utility.yul\":9026:9042   */\n      add\n        /* \"#utility.yul\":9023:9048   */\n      gt\n        /* \"#utility.yul\":9020:9132   */\n      iszero\n      tag_329\n      jumpi\n        /* \"#utility.yul\":9051:9130   */\n      tag_330\n      tag_198\n      jump\t// in\n    tag_330:\n        /* \"#utility.yul\":9020:9132   */\n    tag_329:\n        /* \"#utility.yul\":9141:9195   */\n      tag_331\n        /* \"#utility.yul\":9188:9194   */\n      dup5\n        /* \"#utility.yul\":9183:9186   */\n      dup3\n        /* \"#utility.yul\":9178:9181   */\n      dup6\n        /* \"#utility.yul\":9141:9195   */\n      tag_203\n      jump\t// in\n    tag_331:\n        /* \"#utility.yul\":8860:9201   */\n      pop\n        /* \"#utility.yul\":8776:9201   */\n      swap4\n      swap3\n      pop\n      pop\n      pop\n      jump\t// out\n        /* \"#utility.yul\":9221:9561   */\n    tag_205:\n        /* \"#utility.yul\":9277:9282   */\n      0x00\n        /* \"#utility.yul\":9326:9329   */\n      dup3\n        /* \"#utility.yul\":9319:9323   */\n      0x1f\n        /* \"#utility.yul\":9311:9317   */\n      dup4\n        /* \"#utility.yul\":9307:9324   */\n      add\n        /* \"#utility.yul\":9303:9330   */\n      slt\n        /* \"#utility.yul\":9293:9415   */\n      tag_333\n      jumpi\n        /* \"#utility.yul\":9334:9413   */\n      tag_334\n      tag_197\n      jump\t// in\n    tag_334:\n        /* \"#utility.yul\":9293:9415   */\n    tag_333:\n        /* \"#utility.yul\":9451:9457   */\n      dup2\n        /* \"#utility.yul\":9438:9458   */\n      calldataload\n        /* \"#utility.yul\":9476:9555   */\n      tag_335\n        /* \"#utility.yul\":9551:9554   */\n      dup5\n        /* \"#utility.yul\":9543:9549   */\n      dup3\n        /* \"#utility.yul\":9536:9540   */\n      0x20\n        /* \"#utility.yul\":9528:9534   */\n      dup7\n        /* \"#utility.yul\":9524:9541   */\n      add\n        /* \"#utility.yul\":9476:9555   */\n      tag_204\n      jump\t// in\n    tag_335:\n        /* \"#utility.yul\":9467:9555   */\n      swap2\n      pop\n        /* \"#utility.yul\":9283:9561   */\n      pop\n        /* \"#utility.yul\":9221:9561   */\n      swap3\n      swap2\n      pop\n      pop\n      jump\t// out\n        /* \"#utility.yul\":9567:10726   */\n    tag_60:\n        /* \"#utility.yul\":9674:9680   */\n      0x00\n        /* \"#utility.yul\":9682:9688   */\n      dup1\n        /* \"#utility.yul\":9690:9696   */\n      0x00\n        /* \"#utility.yul\":9739:9741   */\n      0x60\n        /* \"#utility.yul\":9727:9736   */\n      dup5\n        /* \"#utility.yul\":9718:9725   */\n      dup7\n        /* \"#utility.yul\":9714:9737   */\n      sub\n        /* \"#utility.yul\":9710:9742   */\n      slt\n        /* \"#utility.yul\":9707:9826   */\n      iszero\n      tag_337\n      jumpi\n        /* \"#utility.yul\":9745:9824   */\n      tag_338\n      tag_173\n      jump\t// in\n    tag_338:\n        /* \"#utility.yul\":9707:9826   */\n    tag_337:\n        /* \"#utility.yul\":9893:9894   */\n      0x00\n        /* \"#utility.yul\":9882:9891   */\n      dup5\n        /* \"#utility.yul\":9878:9895   */\n      add\n        /* \"#utility.yul\":9865:9896   */\n      calldataload\n        /* \"#utility.yul\":9923:9941   */\n      0xffffffffffffffff\n        /* \"#utility.yul\":9915:9921   */\n      dup2\n        /* \"#utility.yul\":9912:9942   */\n      gt\n        /* \"#utility.yul\":9909:10026   */\n      iszero\n      tag_339\n      jumpi\n        /* \"#utility.yul\":9945:10024   */\n      tag_340\n      tag_174\n      jump\t// in\n    tag_340:\n        /* \"#utility.yul\":9909:10026   */\n    tag_339:\n        /* \"#utility.yul\":10050:10113   */\n      tag_341\n        /* \"#utility.yul\":10105:10112   */\n      dup7\n        /* \"#utility.yul\":10096:10102   */\n      dup3\n        /* \"#utility.yul\":10085:10094   */\n      dup8\n        /* \"#utility.yul\":10081:10103   */\n      add\n        /* \"#utility.yul\":10050:10113   */\n      tag_205\n      jump\t// in\n    tag_341:\n        /* \"#utility.yul\":10040:10113   */\n      swap4\n      pop\n        /* \"#utility.yul\":9836:10123   */\n      pop\n        /* \"#utility.yul\":10190:10192   */\n      0x20\n        /* \"#utility.yul\":10179:10188   */\n      dup5\n        /* \"#utility.yul\":10175:10193   */\n      add\n        /* \"#utility.yul\":10162:10194   */\n      calldataload\n        /* \"#utility.yul\":10221:10239   */\n      0xffffffffffffffff\n        /* \"#utility.yul\":10213:10219   */\n      dup2\n        /* \"#utility.yul\":10210:10240   */\n      gt\n        /* \"#utility.yul\":10207:10324   */\n      iszero\n      tag_342\n      jumpi\n        /* \"#utility.yul\":10243:10322   */\n      tag_343\n      tag_174\n      jump\t// in\n    tag_343:\n        /* \"#utility.yul\":10207:10324   */\n    tag_342:\n        /* \"#utility.yul\":10348:10411   */\n      tag_344\n        /* \"#utility.yul\":10403:10410   */\n      dup7\n        /* \"#utility.yul\":10394:10400   */\n      dup3\n        /* \"#utility.yul\":10383:10392   */\n      dup8\n        /* \"#utility.yul\":10379:10401   */\n      add\n        /* \"#utility.yul\":10348:10411   */\n      tag_205\n      jump\t// in\n    tag_344:\n        /* \"#utility.yul\":10338:10411   */\n      swap3\n      pop\n        /* \"#utility.yul\":10133:10421   */\n      pop\n        /* \"#utility.yul\":10488:10490   */\n      0x40\n        /* \"#utility.yul\":10477:10486   */\n      dup5\n        /* \"#utility.yul\":10473:10491   */\n      add\n        /* \"#utility.yul\":10460:10492   */\n      calldataload\n        /* \"#utility.yul\":10519:10537   */\n      0xffffffffffffffff\n        /* \"#utility.yul\":10511:10517   */\n      dup2\n        /* \"#utility.yul\":10508:10538   */\n      gt\n        /* \"#utility.yul\":10505:10622   */\n      iszero\n      tag_345\n      jumpi\n        /* \"#utility.yul\":10541:10620   */\n      tag_346\n      tag_174\n      jump\t// in\n    tag_346:\n        /* \"#utility.yul\":10505:10622   */\n    tag_345:\n        /* \"#utility.yul\":10646:10709   */\n      tag_347\n        /* \"#utility.yul\":10701:10708   */\n      dup7\n        /* \"#utility.yul\":10692:10698   */\n      dup3\n        /* \"#utility.yul\":10681:10690   */\n      dup8\n        /* \"#utility.yul\":10677:10699   */\n      add\n        /* \"#utility.yul\":10646:10709   */\n      tag_205\n      jump\t// in\n    tag_347:\n        /* \"#utility.yul\":10636:10709   */\n      swap2\n      pop\n        /* \"#utility.yul\":10431:10719   */\n      pop\n        /* \"#utility.yul\":9567:10726   */\n      swap3\n      pop\n      swap3\n      pop\n      swap3\n      jump\t// out\n        /* \"#utility.yul\":10732:10942   */\n    tag_65:\n        /* \"#utility.yul\":10819:10823   */\n      0x00\n        /* \"#utility.yul\":10857:10859   */\n      0x20\n        /* \"#utility.yul\":10846:10855   */\n      dup3\n        /* \"#utility.yul\":10842:10860   */\n      add\n        /* \"#utility.yul\":10834:10860   */\n      swap1\n      pop\n        /* \"#utility.yul\":10870:10935   */\n      tag_349\n        /* \"#utility.yul\":10932:10933   */\n      0x00\n        /* \"#utility.yul\":10921:10930   */\n      dup4\n        /* \"#utility.yul\":10917:10934   */\n      add\n        /* \"#utility.yul\":10908:10914   */\n      dup5\n        /* \"#utility.yul\":10870:10935   */\n      tag_196\n      jump\t// in\n    tag_349:\n        /* \"#utility.yul\":10732:10942   */\n      swap3\n      swap2\n      pop\n      pop\n      jump\t// out\n        /* \"#utility.yul\":10948:11066   */\n    tag_206:\n        /* \"#utility.yul\":11035:11059   */\n      tag_351\n        /* \"#utility.yul\":11053:11058   */\n      dup2\n        /* \"#utility.yul\":11035:11059   */\n      tag_188\n      jump\t// in\n    tag_351:\n        /* \"#utility.yul\":11030:11033   */\n      dup3\n        /* \"#utility.yul\":11023:11060   */\n      mstore\n        /* \"#utility.yul\":10948:11066   */\n      pop\n      pop\n      jump\t// out\n        /* \"#utility.yul\":11072:11294   */\n    tag_76:\n        /* \"#utility.yul\":11165:11169   */\n      0x00\n        /* \"#utility.yul\":11203:11205   */\n      0x20\n        /* \"#utility.yul\":11192:11201   */\n      dup3\n        /* \"#utility.yul\":11188:11206   */\n      add\n        /* \"#utility.yul\":11180:11206   */\n      swap1\n      pop\n        /* \"#utility.yul\":11216:11287   */\n      tag_353\n        /* \"#utility.yul\":11284:11285   */\n      0x00\n        /* \"#utility.yul\":11273:11282   */\n      dup4\n        /* \"#utility.yul\":11269:11286   */\n      add\n        /* \"#utility.yul\":11260:11266   */\n      dup5\n        /* \"#utility.yul\":11216:11287   */\n      tag_206\n      jump\t// in\n    tag_353:\n        /* \"#utility.yul\":11072:11294   */\n      swap3\n      swap2\n      pop\n      pop\n      jump\t// out\n        /* \"#utility.yul\":11300:11477   */\n    tag_207:\n        /* \"#utility.yul\":11440:11469   */\n      0x456c656374696f6e206973206e6f7420696e2070726f67726573730000000000\n        /* \"#utility.yul\":11436:11437   */\n      0x00\n        /* \"#utility.yul\":11428:11434   */\n      dup3\n        /* \"#utility.yul\":11424:11438   */\n      add\n        /* \"#utility.yul\":11417:11470   */\n      mstore\n        /* \"#utility.yul\":11300:11477   */\n      pop\n      jump\t// out\n        /* \"#utility.yul\":11483:11849   */\n    tag_208:\n        /* \"#utility.yul\":11625:11628   */\n      0x00\n        /* \"#utility.yul\":11646:11713   */\n      tag_356\n        /* \"#utility.yul\":11710:11712   */\n      0x1b\n        /* \"#utility.yul\":11705:11708   */\n      dup4\n        /* \"#utility.yul\":11646:11713   */\n      tag_180\n      jump\t// in\n    tag_356:\n        /* \"#utility.yul\":11639:11713   */\n      swap2\n      pop\n        /* \"#utility.yul\":11722:11815   */\n      tag_357\n        /* \"#utility.yul\":11811:11814   */\n      dup3\n        /* \"#utility.yul\":11722:11815   */\n      tag_207\n      jump\t// in\n    tag_357:\n        /* \"#utility.yul\":11840:11842   */\n      0x20\n        /* \"#utility.yul\":11835:11838   */\n      dup3\n        /* \"#utility.yul\":11831:11843   */\n      add\n        /* \"#utility.yul\":11824:11843   */\n      swap1\n      pop\n        /* \"#utility.yul\":11483:11849   */\n      swap2\n      swap1\n      pop\n      jump\t// out\n        /* \"#utility.yul\":11855:12274   */\n    tag_81:\n        /* \"#utility.yul\":12021:12025   */\n      0x00\n        /* \"#utility.yul\":12059:12061   */\n      0x20\n        /* \"#utility.yul\":12048:12057   */\n      dup3\n        /* \"#utility.yul\":12044:12062   */\n      add\n        /* \"#utility.yul\":12036:12062   */\n      swap1\n      pop\n        /* \"#utility.yul\":12108:12117   */\n      dup2\n        /* \"#utility.yul\":12102:12106   */\n      dup2\n        /* \"#utility.yul\":12098:12118   */\n      sub\n        /* \"#utility.yul\":12094:12095   */\n      0x00\n        /* \"#utility.yul\":12083:12092   */\n      dup4\n        /* \"#utility.yul\":12079:12096   */\n      add\n        /* \"#utility.yul\":12072:12119   */\n      mstore\n        /* \"#utility.yul\":12136:12267   */\n      tag_359\n        /* \"#utility.yul\":12262:12266   */\n      dup2\n        /* \"#utility.yul\":12136:12267   */\n      tag_208\n      jump\t// in\n    tag_359:\n        /* \"#utility.yul\":12128:12267   */\n      swap1\n      pop\n        /* \"#utility.yul\":11855:12274   */\n      swap2\n      swap1\n      pop\n      jump\t// out\n        /* \"#utility.yul\":12280:12452   */\n    tag_209:\n        /* \"#utility.yul\":12420:12444   */\n      0x596f75206861766520616c726561647920766f74656400000000000000000000\n        /* \"#utility.yul\":12416:12417   */\n      0x00\n        /* \"#utility.yul\":12408:12414   */\n      dup3\n        /* \"#utility.yul\":12404:12418   */\n      add\n        /* \"#utility.yul\":12397:12445   */\n      mstore\n        /* \"#utility.yul\":12280:12452   */\n      pop\n      jump\t// out\n        /* \"#utility.yul\":12458:12824   */\n    tag_210:\n        /* \"#utility.yul\":12600:12603   */\n      0x00\n        /* \"#utility.yul\":12621:12688   */\n      tag_362\n        /* \"#utility.yul\":12685:12687   */\n      0x16\n        /* \"#utility.yul\":12680:12683   */\n      dup4\n        /* \"#utility.yul\":12621:12688   */\n      tag_180\n      jump\t// in\n    tag_362:\n        /* \"#utility.yul\":12614:12688   */\n      swap2\n      pop\n        /* \"#utility.yul\":12697:12790   */\n      tag_363\n        /* \"#utility.yul\":12786:12789   */\n      dup3\n        /* \"#utility.yul\":12697:12790   */\n      tag_209\n      jump\t// in\n    tag_363:\n        /* \"#utility.yul\":12815:12817   */\n      0x20\n        /* \"#utility.yul\":12810:12813   */\n      dup3\n        /* \"#utility.yul\":12806:12818   */\n      add\n        /* \"#utility.yul\":12799:12818   */\n      swap1\n      pop\n        /* \"#utility.yul\":12458:12824   */\n      swap2\n      swap1\n      pop\n      jump\t// out\n        /* \"#utility.yul\":12830:13249   */\n    tag_85:\n        /* \"#utility.yul\":12996:13000   */\n      0x00\n        /* \"#utility.yul\":13034:13036   */\n      0x20\n        /* \"#utility.yul\":13023:13032   */\n      dup3\n        /* \"#utility.yul\":13019:13037   */\n      add\n        /* \"#utility.yul\":13011:13037   */\n      swap1\n      pop\n        /* \"#utility.yul\":13083:13092   */\n      dup2\n        /* \"#utility.yul\":13077:13081   */\n      dup2\n        /* \"#utility.yul\":13073:13093   */\n      sub\n        /* \"#utility.yul\":13069:13070   */\n      0x00\n        /* \"#utility.yul\":13058:13067   */\n      dup4\n        /* \"#utility.yul\":13054:13071   */\n      add\n        /* \"#utility.yul\":13047:13094   */\n      mstore\n        /* \"#utility.yul\":13111:13242   */\n      tag_365\n        /* \"#utility.yul\":13237:13241   */\n      dup2\n        /* \"#utility.yul\":13111:13242   */\n      tag_210\n      jump\t// in\n    tag_365:\n        /* \"#utility.yul\":13103:13242   */\n      swap1\n      pop\n        /* \"#utility.yul\":12830:13249   */\n      swap2\n      swap1\n      pop\n      jump\t// out\n        /* \"#utility.yul\":13255:13425   */\n    tag_211:\n        /* \"#utility.yul\":13395:13417   */\n      0x496e76616c69642063616e646964617465204944000000000000000000000000\n        /* \"#utility.yul\":13391:13392   */\n      0x00\n        /* \"#utility.yul\":13383:13389   */\n      dup3\n        /* \"#utility.yul\":13379:13393   */\n      add\n        /* \"#utility.yul\":13372:13418   */\n      mstore\n        /* \"#utility.yul\":13255:13425   */\n      pop\n      jump\t// out\n        /* \"#utility.yul\":13431:13797   */\n    tag_212:\n        /* \"#utility.yul\":13573:13576   */\n      0x00\n        /* \"#utility.yul\":13594:13661   */\n      tag_368\n        /* \"#utility.yul\":13658:13660   */\n      0x14\n        /* \"#utility.yul\":13653:13656   */\n      dup4\n        /* \"#utility.yul\":13594:13661   */\n      tag_180\n      jump\t// in\n    tag_368:\n        /* \"#utility.yul\":13587:13661   */\n      swap2\n      pop\n        /* \"#utility.yul\":13670:13763   */\n      tag_369\n        /* \"#utility.yul\":13759:13762   */\n      dup3\n        /* \"#utility.yul\":13670:13763   */\n      tag_211\n      jump\t// in\n    tag_369:\n        /* \"#utility.yul\":13788:13790   */\n      0x20\n        /* \"#utility.yul\":13783:13786   */\n      dup3\n        /* \"#utility.yul\":13779:13791   */\n      add\n        /* \"#utility.yul\":13772:13791   */\n      swap1\n      pop\n        /* \"#utility.yul\":13431:13797   */\n      swap2\n      swap1\n      pop\n      jump\t// out\n        /* \"#utility.yul\":13803:14222   */\n    tag_90:\n        /* \"#utility.yul\":13969:13973   */\n      0x00\n        /* \"#utility.yul\":14007:14009   */\n      0x20\n        /* \"#utility.yul\":13996:14005   */\n      dup3\n        /* \"#utility.yul\":13992:14010   */\n      add\n        /* \"#utility.yul\":13984:14010   */\n      swap1\n      pop\n        /* \"#utility.yul\":14056:14065   */\n      dup2\n        /* \"#utility.yul\":14050:14054   */\n      dup2\n        /* \"#utility.yul\":14046:14066   */\n      sub\n        /* \"#utility.yul\":14042:14043   */\n      0x00\n        /* \"#utility.yul\":14031:14040   */\n      dup4\n        /* \"#utility.yul\":14027:14044   */\n      add\n        /* \"#utility.yul\":14020:14067   */\n      mstore\n        /* \"#utility.yul\":14084:14215   */\n      tag_371\n        /* \"#utility.yul\":14210:14214   */\n      dup2\n        /* \"#utility.yul\":14084:14215   */\n      tag_212\n      jump\t// in\n    tag_371:\n        /* \"#utility.yul\":14076:14215   */\n      swap1\n      pop\n        /* \"#utility.yul\":13803:14222   */\n      swap2\n      swap1\n      pop\n      jump\t// out\n        /* \"#utility.yul\":14228:14408   */\n    tag_213:\n        /* \"#utility.yul\":14276:14353   */\n      0x4e487b7100000000000000000000000000000000000000000000000000000000\n        /* \"#utility.yul\":14273:14274   */\n      0x00\n        /* \"#utility.yul\":14266:14354   */\n      mstore\n        /* \"#utility.yul\":14373:14377   */\n      0x11\n        /* \"#utility.yul\":14370:14371   */\n      0x04\n        /* \"#utility.yul\":14363:14378   */\n      mstore\n        /* \"#utility.yul\":14397:14401   */\n      0x24\n        /* \"#utility.yul\":14394:14395   */\n      0x00\n        /* \"#utility.yul\":14387:14402   */\n      revert\n        /* \"#utility.yul\":14414:14647   */\n    tag_92:\n        /* \"#utility.yul\":14453:14456   */\n      0x00\n        /* \"#utility.yul\":14476:14500   */\n      tag_374\n        /* \"#utility.yul\":14494:14499   */\n      dup3\n        /* \"#utility.yul\":14476:14500   */\n      tag_175\n      jump\t// in\n    tag_374:\n        /* \"#utility.yul\":14467:14500   */\n      swap2\n      pop\n        /* \"#utility.yul\":14522:14588   */\n      0xffffffffffffffffffffffffffffffffffffffffffffffffffffffffffffffff\n        /* \"#utility.yul\":14515:14520   */\n      dup3\n        /* \"#utility.yul\":14512:14589   */\n      sub\n        /* \"#utility.yul\":14509:14612   */\n      tag_375\n      jumpi\n        /* \"#utility.yul\":14592:14610   */\n      tag_376\n      tag_213\n      jump\t// in\n    tag_376:\n        /* \"#utility.yul\":14509:14612   */\n    tag_375:\n        /* \"#utility.yul\":14639:14640   */\n      0x01\n        /* \"#utility.yul\":14632:14637   */\n      dup3\n        /* \"#utility.yul\":14628:14641   */\n      add\n        /* \"#utility.yul\":14621:14641   */\n      swap1\n      pop\n        /* \"#utility.yul\":14414:14647   */\n      swap2\n      swap1\n      pop\n      jump\t// out\n        /* \"#utility.yul\":14653:14833   */\n    tag_214:\n        /* \"#utility.yul\":14701:14778   */\n      0x4e487b7100000000000000000000000000000000000000000000000000000000\n        /* \"#utility.yul\":14698:14699   */\n      0x00\n        /* \"#utility.yul\":14691:14779   */\n      mstore\n        /* \"#utility.yul\":14798:14802   */\n      0x22\n        /* \"#utility.yul\":14795:14796   */\n      0x04\n        /* \"#utility.yul\":14788:14803   */\n      mstore\n        /* \"#utility.yul\":14822:14826   */\n      0x24\n        /* \"#utility.yul\":14819:14820   */\n      0x00\n        /* \"#utility.yul\":14812:14827   */\n      revert\n        /* \"#utility.yul\":14839:15159   */\n    tag_97:\n        /* \"#utility.yul\":14883:14889   */\n      0x00\n        /* \"#utility.yul\":14920:14921   */\n      0x02\n        /* \"#utility.yul\":14914:14918   */\n      dup3\n        /* \"#utility.yul\":14910:14922   */\n      div\n        /* \"#utility.yul\":14900:14922   */\n      swap1\n      pop\n        /* \"#utility.yul\":14967:14968   */\n      0x01\n        /* \"#utility.yul\":14961:14965   */\n      dup3\n        /* \"#utility.yul\":14957:14969   */\n      and\n        /* \"#utility.yul\":14988:15006   */\n      dup1\n        /* \"#utility.yul\":14978:15059   */\n      tag_379\n      jumpi\n        /* \"#utility.yul\":15044:15048   */\n      0x7f\n        /* \"#utility.yul\":15036:15042   */\n      dup3\n        /* \"#utility.yul\":15032:15049   */\n      and\n        /* \"#utility.yul\":15022:15049   */\n      swap2\n      pop\n        /* \"#utility.yul\":14978:15059   */\n    tag_379:\n        /* \"#utility.yul\":15106:15108   */\n      0x20\n        /* \"#utility.yul\":15098:15104   */\n      dup3\n        /* \"#utility.yul\":15095:15109   */\n      lt\n        /* \"#utility.yul\":15075:15093   */\n      dup2\n        /* \"#utility.yul\":15072:15110   */\n      sub\n        /* \"#utility.yul\":15069:15153   */\n      tag_380\n      jumpi\n        /* \"#utility.yul\":15125:15143   */\n      tag_381\n      tag_214\n      jump\t// in\n    tag_381:\n        /* \"#utility.yul\":15069:15153   */\n    tag_380:\n        /* \"#utility.yul\":14890:15159   */\n      pop\n        /* \"#utility.yul\":14839:15159   */\n      swap2\n      swap1\n      pop\n      jump\t// out\n        /* \"#utility.yul\":15165:15401   */\n    tag_215:\n        /* \"#utility.yul\":15305:15339   */\n      0x4f6e6c792074686520656c656374696f6e2063726561746f722063616e207065\n        /* \"#utility.yul\":15301:15302   */\n      0x00\n        /* \"#utility.yul\":15293:15299   */\n      dup3\n        /* \"#utility.yul\":15289:15303   */\n      add\n        /* \"#utility.yul\":15282:15340   */\n      mstore\n        /* \"#utility.yul\":15374:15393   */\n      0x72666f726d207468697320616374696f6e000000000000000000000000000000\n        /* \"#utility.yul\":15369:15371   */\n      0x20\n        /* \"#utility.yul\":15361:15367   */\n      dup3\n        /* \"#utility.yul\":15357:15372   */\n      add\n        /* \"#utility.yul\":15350:15394   */\n      mstore\n        /* \"#utility.yul\":15165:15401   */\n      pop\n      jump\t// out\n        /* \"#utility.yul\":15407:15773   */\n    tag_216:\n        /* \"#utility.yul\":15549:15552   */\n      0x00\n        /* \"#utility.yul\":15570:15637   */\n      tag_384\n        /* \"#utility.yul\":15634:15636   */\n      0x31\n        /* \"#utility.yul\":15629:15632   */\n      dup4\n        /* \"#utility.yul\":15570:15637   */\n      tag_180\n      jump\t// in\n    tag_384:\n        /* \"#utility.yul\":15563:15637   */\n      swap2\n      pop\n        /* \"#utility.yul\":15646:15739   */\n      tag_385\n        /* \"#utility.yul\":15735:15738   */\n      dup3\n        /* \"#utility.yul\":15646:15739   */\n      tag_215\n      jump\t// in\n    tag_385:\n        /* \"#utility.yul\":15764:15766   */\n      0x40\n        /* \"#utility.yul\":15759:15762   */\n      dup3\n        /* \"#utility.yul\":15755:15767   */\n      add\n        /* \"#utility.yul\":15748:15767   */\n      swap1\n      pop\n        /* \"#utility.yul\":15407:15773   */\n      swap2\n      swap1\n      pop\n      jump\t// out\n        /* \"#utility.yul\":15779:16198   */\n    tag_136:\n        /* \"#utility.yul\":15945:15949   */\n      0x00\n        /* \"#utility.yul\":15983:15985   */\n      0x20\n        /* \"#utility.yul\":15972:15981   */\n      dup3\n        /* \"#utility.yul\":15968:15986   */\n      add\n        /* \"#utility.yul\":15960:15986   */\n      swap1\n      pop\n        /* \"#utility.yul\":16032:16041   */\n      dup2\n        /* \"#utility.yul\":16026:16030   */\n      dup2\n        /* \"#utility.yul\":16022:16042   */\n      sub\n        /* \"#utility.yul\":16018:16019   */\n      0x00\n        /* \"#utility.yul\":16007:16016   */\n      dup4\n        /* \"#utility.yul\":16003:16020   */\n      add\n        /* \"#utility.yul\":15996:16043   */\n      mstore\n        /* \"#utility.yul\":16060:16191   */\n      tag_387\n        /* \"#utility.yul\":16186:16190   */\n      dup2\n        /* \"#utility.yul\":16060:16191   */\n      tag_216\n      jump\t// in\n    tag_387:\n        /* \"#utility.yul\":16052:16191   */\n      swap1\n      pop\n        /* \"#utility.yul\":15779:16198   */\n      swap2\n      swap1\n      pop\n      jump\t// out\n        /* \"#utility.yul\":16204:16382   */\n    tag_217:\n        /* \"#utility.yul\":16344:16374   */\n      0x456c656374696f6e20686173206e6f7420737461727465642079657400000000\n        /* \"#utility.yul\":16340:16341   */\n      0x00\n        /* \"#utility.yul\":16332:16338   */\n      dup3\n        /* \"#utility.yul\":16328:16342   */\n      add\n        /* \"#utility.yul\":16321:16375   */\n      mstore\n        /* \"#utility.yul\":16204:16382   */\n      pop\n      jump\t// out\n        /* \"#utility.yul\":16388:16754   */\n    tag_218:\n        /* \"#utility.yul\":16530:16533   */\n      0x00\n        /* \"#utility.yul\":16551:16618   */\n      tag_390\n        /* \"#utility.yul\":16615:16617   */\n      0x1c\n        /* \"#utility.yul\":16610:16613   */\n      dup4\n        /* \"#utility.yul\":16551:16618   */\n      tag_180\n      jump\t// in\n    tag_390:\n        /* \"#utility.yul\":16544:16618   */\n      swap2\n      pop\n        /* \"#utility.yul\":16627:16720   */\n      tag_391\n        /* \"#utility.yul\":16716:16719   */\n      dup3\n        /* \"#utility.yul\":16627:16720   */\n      tag_217\n      jump\t// in\n    tag_391:\n        /* \"#utility.yul\":16745:16747   */\n      0x20\n        /* \"#utility.yul\":16740:16743   */\n      dup3\n        /* \"#utility.yul\":16736:16748   */\n      add\n        /* \"#utility.yul\":16729:16748   */\n      swap1\n      pop\n        /* \"#utility.yul\":16388:16754   */\n      swap2\n      swap1\n      pop\n      jump\t// out\n        /* \"#utility.yul\":16760:17179   */\n    tag_140:\n        /* \"#utility.yul\":16926:16930   */\n      0x00\n        /* \"#utility.yul\":16964:16966   */\n      0x20\n        /* \"#utility.yul\":16953:16962   */\n      dup3\n        /* \"#utility.yul\":16949:16967   */\n      add\n        /* \"#utility.yul\":16941:16967   */\n      swap1\n      pop\n        /* \"#utility.yul\":17013:17022   */\n      dup2\n        /* \"#utility.yul\":17007:17011   */\n      dup2\n        /* \"#utility.yul\":17003:17023   */\n      sub\n        /* \"#utility.yul\":16999:17000   */\n      0x00\n        /* \"#utility.yul\":16988:16997   */\n      dup4\n        /* \"#utility.yul\":16984:17001   */\n      add\n        /* \"#utility.yul\":16977:17024   */\n      mstore\n        /* \"#utility.yul\":17041:17172   */\n      tag_393\n        /* \"#utility.yul\":17167:17171   */\n      dup2\n        /* \"#utility.yul\":17041:17172   */\n      tag_218\n      jump\t// in\n    tag_393:\n        /* \"#utility.yul\":17033:17172   */\n      swap1\n      pop\n        /* \"#utility.yul\":16760:17179   */\n      swap2\n      swap1\n      pop\n      jump\t// out\n        /* \"#utility.yul\":17185:17363   */\n    tag_219:\n        /* \"#utility.yul\":17325:17355   */\n      0x456c656374696f6e2068617320616c7265616479207374617274656400000000\n        /* \"#utility.yul\":17321:17322   */\n      0x00\n        /* \"#utility.yul\":17313:17319   */\n      dup3\n        /* \"#utility.yul\":17309:17323   */\n      add\n        /* \"#utility.yul\":17302:17356   */\n      mstore\n        /* \"#utility.yul\":17185:17363   */\n      pop\n      jump\t// out\n        /* \"#utility.yul\":17369:17735   */\n    tag_220:\n        /* \"#utility.yul\":17511:17514   */\n      0x00\n        /* \"#utility.yul\":17532:17599   */\n      tag_396\n        /* \"#utility.yul\":17596:17598   */\n      0x1c\n        /* \"#utility.yul\":17591:17594   */\n      dup4\n        /* \"#utility.yul\":17532:17599   */\n      tag_180\n      jump\t// in\n    tag_396:\n        /* \"#utility.yul\":17525:17599   */\n      swap2\n      pop\n        /* \"#utility.yul\":17608:17701   */\n      tag_397\n        /* \"#utility.yul\":17697:17700   */\n      dup3\n        /* \"#utility.yul\":17608:17701   */\n      tag_219\n      jump\t// in\n    tag_397:\n        /* \"#utility.yul\":17726:17728   */\n      0x20\n        /* \"#utility.yul\":17721:17724   */\n      dup3\n        /* \"#utility.yul\":17717:17729   */\n      add\n        /* \"#utility.yul\":17710:17729   */\n      swap1\n      pop\n        /* \"#utility.yul\":17369:17735   */\n      swap2\n      swap1\n      pop\n      jump\t// out\n        /* \"#utility.yul\":17741:18160   */\n    tag_147:\n        /* \"#utility.yul\":17907:17911   */\n      0x00\n        /* \"#utility.yul\":17945:17947   */\n      0x20\n        /* \"#utility.yul\":17934:17943   */\n      dup3\n        /* \"#utility.yul\":17930:17948   */\n      add\n        /* \"#utility.yul\":17922:17948   */\n      swap1\n      pop\n        /* \"#utility.yul\":17994:18003   */\n      dup2\n        /* \"#utility.yul\":17988:17992   */\n      dup2\n        /* \"#utility.yul\":17984:18004   */\n      sub\n        /* \"#utility.yul\":17980:17981   */\n      0x00\n        /* \"#utility.yul\":17969:17978   */\n      dup4\n        /* \"#utility.yul\":17965:17982   */\n      add\n        /* \"#utility.yul\":17958:18005   */\n      mstore\n        /* \"#utility.yul\":18022:18153   */\n      tag_399\n        /* \"#utility.yul\":18148:18152   */\n      dup2\n        /* \"#utility.yul\":18022:18153   */\n      tag_220\n      jump\t// in\n    tag_399:\n        /* \"#utility.yul\":18014:18153   */\n      swap1\n      pop\n        /* \"#utility.yul\":17741:18160   */\n      swap2\n      swap1\n      pop\n      jump\t// out\n        /* \"#utility.yul\":18166:18307   */\n    tag_221:\n        /* \"#utility.yul\":18215:18219   */\n      0x00\n        /* \"#utility.yul\":18238:18241   */\n      dup2\n        /* \"#utility.yul\":18230:18241   */\n      swap1\n      pop\n        /* \"#utility.yul\":18261:18264   */\n      dup2\n        /* \"#utility.yul\":18258:18259   */\n      0x00\n        /* \"#utility.yul\":18251:18265   */\n      mstore\n        /* \"#utility.yul\":18295:18299   */\n      0x20\n        /* \"#utility.yul\":18292:18293   */\n      0x00\n        /* \"#utility.yul\":18282:18300   */\n      keccak256\n        /* \"#utility.yul\":18274:18300   */\n      swap1\n      pop\n        /* \"#utility.yul\":18166:18307   */\n      swap2\n      swap1\n      pop\n      jump\t// out\n        /* \"#utility.yul\":18313:18406   */\n    tag_222:\n        /* \"#utility.yul\":18350:18356   */\n      0x00\n        /* \"#utility.yul\":18397:18399   */\n      0x20\n        /* \"#utility.yul\":18392:18394   */\n      0x1f\n        /* \"#utility.yul\":18385:18390   */\n      dup4\n        /* \"#utility.yul\":18381:18395   */\n      add\n        /* \"#utility.yul\":18377:18400   */\n      div\n        /* \"#utility.yul\":18367:18400   */\n      swap1\n      pop\n        /* \"#utility.yul\":18313:18406   */\n      swap2\n      swap1\n      pop\n      jump\t// out\n        /* \"#utility.yul\":18412:18519   */\n    tag_223:\n        /* \"#utility.yul\":18456:18464   */\n      0x00\n        /* \"#utility.yul\":18506:18511   */\n      dup3\n        /* \"#utility.yul\":18500:18504   */\n      dup3\n        /* \"#utility.yul\":18496:18512   */\n      shl\n        /* \"#utility.yul\":18475:18512   */\n      swap1\n      pop\n        /* \"#utility.yul\":18412:18519   */\n      swap3\n      swap2\n      pop\n      pop\n      jump\t// out\n        /* \"#utility.yul\":18525:18918   */\n    tag_224:\n        /* \"#utility.yul\":18594:18600   */\n      0x00\n        /* \"#utility.yul\":18644:18645   */\n      0x08\n        /* \"#utility.yul\":18632:18642   */\n      dup4\n        /* \"#utility.yul\":18628:18646   */\n      mul\n        /* \"#utility.yul\":18667:18764   */\n      tag_404\n        /* \"#utility.yul\":18697:18763   */\n      0xffffffffffffffffffffffffffffffffffffffffffffffffffffffffffffffff\n        /* \"#utility.yul\":18686:18695   */\n      dup3\n        /* \"#utility.yul\":18667:18764   */\n      tag_223\n      jump\t// in\n    tag_404:\n        /* \"#utility.yul\":18785:18824   */\n      tag_405\n        /* \"#utility.yul\":18815:18823   */\n      dup7\n        /* \"#utility.yul\":18804:18813   */\n      dup4\n        /* \"#utility.yul\":18785:18824   */\n      tag_223\n      jump\t// in\n    tag_405:\n        /* \"#utility.yul\":18773:18824   */\n      swap6\n      pop\n        /* \"#utility.yul\":18857:18861   */\n      dup1\n        /* \"#utility.yul\":18853:18862   */\n      not\n        /* \"#utility.yul\":18846:18851   */\n      dup5\n        /* \"#utility.yul\":18842:18863   */\n      and\n        /* \"#utility.yul\":18833:18863   */\n      swap4\n      pop\n        /* \"#utility.yul\":18906:18910   */\n      dup1\n        /* \"#utility.yul\":18896:18904   */\n      dup7\n        /* \"#utility.yul\":18892:18911   */\n      and\n        /* \"#utility.yul\":18885:18890   */\n      dup5\n        /* \"#utility.yul\":18882:18912   */\n      or\n        /* \"#utility.yul\":18872:18912   */\n      swap3\n      pop\n        /* \"#utility.yul\":18601:18918   */\n      pop\n      pop\n        /* \"#utility.yul\":18525:18918   */\n      swap4\n      swap3\n      pop\n      pop\n      pop\n      jump\t// out\n        /* \"#utility.yul\":18924:18984   */\n    tag_225:\n        /* \"#utility.yul\":18952:18955   */\n      0x00\n        /* \"#utility.yul\":18973:18978   */\n      dup2\n        /* \"#utility.yul\":18966:18978   */\n      swap1\n      pop\n        /* \"#utility.yul\":18924:18984   */\n      swap2\n      swap1\n      pop\n      jump\t// out\n        /* \"#utility.yul\":18990:19132   */\n    tag_226:\n        /* \"#utility.yul\":19040:19049   */\n      0x00\n        /* \"#utility.yul\":19073:19126   */\n      tag_408\n        /* \"#utility.yul\":19091:19125   */\n      tag_409\n        /* \"#utility.yul\":19100:19124   */\n      tag_410\n        /* \"#utility.yul\":19118:19123   */\n      dup5\n        /* \"#utility.yul\":19100:19124   */\n      tag_175\n      jump\t// in\n    tag_410:\n        /* \"#utility.yul\":19091:19125   */\n      tag_225\n      jump\t// in\n    tag_409:\n        /* \"#utility.yul\":19073:19126   */\n      tag_175\n      jump\t// in\n    tag_408:\n        /* \"#utility.yul\":19060:19126   */\n      swap1\n      pop\n        /* \"#utility.yul\":18990:19132   */\n      swap2\n      swap1\n      pop\n      jump\t// out\n        /* \"#utility.yul\":19138:19213   */\n    tag_227:\n        /* \"#utility.yul\":19181:19184   */\n      0x00\n        /* \"#utility.yul\":19202:19207   */\n      dup2\n        /* \"#utility.yul\":19195:19207   */\n      swap1\n      pop\n        /* \"#utility.yul\":19138:19213   */\n      swap2\n      swap1\n      pop\n      jump\t// out\n        /* \"#utility.yul\":19219:19488   */\n    tag_228:\n        /* \"#utility.yul\":19329:19368   */\n      tag_413\n        /* \"#utility.yul\":19360:19367   */\n      dup4\n        /* \"#utility.yul\":19329:19368   */\n      tag_226\n      jump\t// in\n    tag_413:\n        /* \"#utility.yul\":19390:19481   */\n      tag_414\n        /* \"#utility.yul\":19439:19480   */\n      tag_415\n        /* \"#utility.yul\":19463:19479   */\n      dup3\n        /* \"#utility.yul\":19439:19480   */\n      tag_227\n      jump\t// in\n    tag_415:\n        /* \"#utility.yul\":19431:19437   */\n      dup5\n        /* \"#utility.yul\":19424:19428   */\n      dup5\n        /* \"#utility.yul\":19418:19429   */\n      sload\n        /* \"#utility.yul\":19390:19481   */\n      tag_224\n      jump\t// in\n    tag_414:\n        /* \"#utility.yul\":19384:19388   */\n      dup3\n        /* \"#utility.yul\":19377:19482   */\n      sstore\n        /* \"#utility.yul\":19295:19488   */\n      pop\n        /* \"#utility.yul\":19219:19488   */\n      pop\n      pop\n      pop\n      jump\t// out\n        /* \"#utility.yul\":19494:19567   */\n    tag_229:\n        /* \"#utility.yul\":19539:19542   */\n      0x00\n        /* \"#utility.yul\":19494:19567   */\n      swap1\n      jump\t// out\n        /* \"#utility.yul\":19573:19762   */\n    tag_230:\n        /* \"#utility.yul\":19650:19682   */\n      tag_418\n      tag_229\n      jump\t// in\n    tag_418:\n        /* \"#utility.yul\":19691:19756   */\n      tag_419\n        /* \"#utility.yul\":19749:19755   */\n      dup2\n        /* \"#utility.yul\":19741:19747   */\n      dup5\n        /* \"#utility.yul\":19735:19739   */\n      dup5\n        /* \"#utility.yul\":19691:19756   */\n      tag_228\n      jump\t// in\n    tag_419:\n        /* \"#utility.yul\":19626:19762   */\n      pop\n        /* \"#utility.yul\":19573:19762   */\n      pop\n      pop\n      jump\t// out\n        /* \"#utility.yul\":19768:19954   */\n    tag_231:\n        /* \"#utility.yul\":19828:19948   */\n    tag_421:\n        /* \"#utility.yul\":19845:19848   */\n      dup2\n        /* \"#utility.yul\":19838:19843   */\n      dup2\n        /* \"#utility.yul\":19835:19849   */\n      lt\n        /* \"#utility.yul\":19828:19948   */\n      iszero\n      tag_423\n      jumpi\n        /* \"#utility.yul\":19899:19938   */\n      tag_424\n        /* \"#utility.yul\":19936:19937   */\n      0x00\n        /* \"#utility.yul\":19929:19934   */\n      dup3\n        /* \"#utility.yul\":19899:19938   */\n      tag_230\n      jump\t// in\n    tag_424:\n        /* \"#utility.yul\":19872:19873   */\n      0x01\n        /* \"#utility.yul\":19865:19870   */\n      dup2\n        /* \"#utility.yul\":19861:19874   */\n      add\n        /* \"#utility.yul\":19852:19874   */\n      swap1\n      pop\n        /* \"#utility.yul\":19828:19948   */\n      jump(tag_421)\n    tag_423:\n        /* \"#utility.yul\":19768:19954   */\n      pop\n      pop\n      jump\t// out\n        /* \"#utility.yul\":19960:20503   */\n    tag_232:\n        /* \"#utility.yul\":20061:20063   */\n      0x1f\n        /* \"#utility.yul\":20056:20059   */\n      dup3\n        /* \"#utility.yul\":20053:20064   */\n      gt\n        /* \"#utility.yul\":20050:20496   */\n      iszero\n      tag_426\n      jumpi\n        /* \"#utility.yul\":20095:20133   */\n      tag_427\n        /* \"#utility.yul\":20127:20132   */\n      dup2\n        /* \"#utility.yul\":20095:20133   */\n      tag_221\n      jump\t// in\n    tag_427:\n        /* \"#utility.yul\":20179:20208   */\n      tag_428\n        /* \"#utility.yul\":20197:20207   */\n      dup5\n        /* \"#utility.yul\":20179:20208   */\n      tag_222\n      jump\t// in\n    tag_428:\n        /* \"#utility.yul\":20169:20177   */\n      dup2\n        /* \"#utility.yul\":20165:20209   */\n      add\n        /* \"#utility.yul\":20362:20364   */\n      0x20\n        /* \"#utility.yul\":20350:20360   */\n      dup6\n        /* \"#utility.yul\":20347:20365   */\n      lt\n        /* \"#utility.yul\":20344:20393   */\n      iszero\n      tag_429\n      jumpi\n        /* \"#utility.yul\":20383:20391   */\n      dup2\n        /* \"#utility.yul\":20368:20391   */\n      swap1\n      pop\n        /* \"#utility.yul\":20344:20393   */\n    tag_429:\n        /* \"#utility.yul\":20406:20486   */\n      tag_430\n        /* \"#utility.yul\":20462:20484   */\n      tag_431\n        /* \"#utility.yul\":20480:20483   */\n      dup6\n        /* \"#utility.yul\":20462:20484   */\n      tag_222\n      jump\t// in\n    tag_431:\n        /* \"#utility.yul\":20452:20460   */\n      dup4\n        /* \"#utility.yul\":20448:20485   */\n      add\n        /* \"#utility.yul\":20435:20446   */\n      dup3\n        /* \"#utility.yul\":20406:20486   */\n      tag_231\n      jump\t// in\n    tag_430:\n        /* \"#utility.yul\":20065:20496   */\n      pop\n      pop\n        /* \"#utility.yul\":20050:20496   */\n    tag_426:\n        /* \"#utility.yul\":19960:20503   */\n      pop\n      pop\n      pop\n      jump\t// out\n        /* \"#utility.yul\":20509:20626   */\n    tag_233:\n        /* \"#utility.yul\":20563:20571   */\n      0x00\n        /* \"#utility.yul\":20613:20618   */\n      dup3\n        /* \"#utility.yul\":20607:20611   */\n      dup3\n        /* \"#utility.yul\":20603:20619   */\n      shr\n        /* \"#utility.yul\":20582:20619   */\n      swap1\n      pop\n        /* \"#utility.yul\":20509:20626   */\n      swap3\n      swap2\n      pop\n      pop\n      jump\t// out\n        /* \"#utility.yul\":20632:20801   */\n    tag_234:\n        /* \"#utility.yul\":20676:20682   */\n      0x00\n        /* \"#utility.yul\":20709:20760   */\n      tag_434\n        /* \"#utility.yul\":20757:20758   */\n      0x00\n        /* \"#utility.yul\":20753:20759   */\n      not\n        /* \"#utility.yul\":20745:20750   */\n      dup5\n        /* \"#utility.yul\":20742:20743   */\n      0x08\n        /* \"#utility.yul\":20738:20751   */\n      mul\n        /* \"#utility.yul\":20709:20760   */\n      tag_233\n      jump\t// in\n    tag_434:\n        /* \"#utility.yul\":20705:20761   */\n      not\n        /* \"#utility.yul\":20790:20794   */\n      dup1\n        /* \"#utility.yul\":20784:20788   */\n      dup4\n        /* \"#utility.yul\":20780:20795   */\n      and\n        /* \"#utility.yul\":20770:20795   */\n      swap2\n      pop\n        /* \"#utility.yul\":20683:20801   */\n      pop\n        /* \"#utility.yul\":20632:20801   */\n      swap3\n      swap2\n      pop\n      pop\n      jump\t// out\n        /* \"#utility.yul\":20806:21101   */\n    tag_235:\n        /* \"#utility.yul\":20882:20886   */\n      0x00\n        /* \"#utility.yul\":21028:21057   */\n      tag_436\n        /* \"#utility.yul\":21053:21056   */\n      dup4\n        /* \"#utility.yul\":21047:21051   */\n      dup4\n        /* \"#utility.yul\":21028:21057   */\n      tag_234\n      jump\t// in\n    tag_436:\n        /* \"#utility.yul\":21020:21057   */\n      swap2\n      pop\n        /* \"#utility.yul\":21090:21093   */\n      dup3\n        /* \"#utility.yul\":21087:21088   */\n      0x02\n        /* \"#utility.yul\":21083:21094   */\n      mul\n        /* \"#utility.yul\":21077:21081   */\n      dup3\n        /* \"#utility.yul\":21074:21095   */\n      or\n        /* \"#utility.yul\":21066:21095   */\n      swap1\n      pop\n        /* \"#utility.yul\":20806:21101   */\n      swap3\n      swap2\n      pop\n      pop\n      jump\t// out\n        /* \"#utility.yul\":21106:22501   */\n    tag_159:\n        /* \"#utility.yul\":21223:21260   */\n      tag_438\n        /* \"#utility.yul\":21256:21259   */\n      dup3\n        /* \"#utility.yul\":21223:21260   */\n      tag_179\n      jump\t// in\n    tag_438:\n        /* \"#utility.yul\":21325:21343   */\n      0xffffffffffffffff\n        /* \"#utility.yul\":21317:21323   */\n      dup2\n        /* \"#utility.yul\":21314:21344   */\n      gt\n        /* \"#utility.yul\":21311:21367   */\n      iszero\n      tag_439\n      jumpi\n        /* \"#utility.yul\":21347:21365   */\n      tag_440\n      tag_199\n      jump\t// in\n    tag_440:\n        /* \"#utility.yul\":21311:21367   */\n    tag_439:\n        /* \"#utility.yul\":21391:21429   */\n      tag_441\n        /* \"#utility.yul\":21423:21427   */\n      dup3\n        /* \"#utility.yul\":21417:21428   */\n      sload\n        /* \"#utility.yul\":21391:21429   */\n      tag_97\n      jump\t// in\n    tag_441:\n        /* \"#utility.yul\":21476:21543   */\n      tag_442\n        /* \"#utility.yul\":21536:21542   */\n      dup3\n        /* \"#utility.yul\":21528:21534   */\n      dup3\n        /* \"#utility.yul\":21522:21526   */\n      dup6\n        /* \"#utility.yul\":21476:21543   */\n      tag_232\n      jump\t// in\n    tag_442:\n        /* \"#utility.yul\":21570:21571   */\n      0x00\n        /* \"#utility.yul\":21594:21598   */\n      0x20\n        /* \"#utility.yul\":21581:21598   */\n      swap1\n      pop\n        /* \"#utility.yul\":21626:21628   */\n      0x1f\n        /* \"#utility.yul\":21618:21624   */\n      dup4\n        /* \"#utility.yul\":21615:21629   */\n      gt\n        /* \"#utility.yul\":21643:21644   */\n      0x01\n        /* \"#utility.yul\":21638:22256   */\n      dup2\n      eq\n      tag_444\n      jumpi\n        /* \"#utility.yul\":22300:22301   */\n      0x00\n        /* \"#utility.yul\":22317:22323   */\n      dup5\n        /* \"#utility.yul\":22314:22391   */\n      iszero\n      tag_445\n      jumpi\n        /* \"#utility.yul\":22366:22375   */\n      dup3\n        /* \"#utility.yul\":22361:22364   */\n      dup8\n        /* \"#utility.yul\":22357:22376   */\n      add\n        /* \"#utility.yul\":22351:22377   */\n      mload\n        /* \"#utility.yul\":22342:22377   */\n      swap1\n      pop\n        /* \"#utility.yul\":22314:22391   */\n    tag_445:\n        /* \"#utility.yul\":22417:22484   */\n      tag_446\n        /* \"#utility.yul\":22477:22483   */\n      dup6\n        /* \"#utility.yul\":22470:22475   */\n      dup3\n        /* \"#utility.yul\":22417:22484   */\n      tag_235\n      jump\t// in\n    tag_446:\n        /* \"#utility.yul\":22411:22415   */\n      dup7\n        /* \"#utility.yul\":22404:22485   */\n      sstore\n        /* \"#utility.yul\":22273:22495   */\n      pop\n        /* \"#utility.yul\":21608:22495   */\n      jump(tag_443)\n        /* \"#utility.yul\":21638:22256   */\n    tag_444:\n        /* \"#utility.yul\":21690:21694   */\n      0x1f\n        /* \"#utility.yul\":21686:21695   */\n      not\n        /* \"#utility.yul\":21678:21684   */\n      dup5\n        /* \"#utility.yul\":21674:21696   */\n      and\n        /* \"#utility.yul\":21724:21761   */\n      tag_447\n        /* \"#utility.yul\":21756:21760   */\n      dup7\n        /* \"#utility.yul\":21724:21761   */\n      tag_221\n      jump\t// in\n    tag_447:\n        /* \"#utility.yul\":21783:21784   */\n      0x00\n        /* \"#utility.yul\":21797:22005   */\n    tag_448:\n        /* \"#utility.yul\":21811:21818   */\n      dup3\n        /* \"#utility.yul\":21808:21809   */\n      dup2\n        /* \"#utility.yul\":21805:21819   */\n      lt\n        /* \"#utility.yul\":21797:22005   */\n      iszero\n      tag_450\n      jumpi\n        /* \"#utility.yul\":21890:21899   */\n      dup5\n        /* \"#utility.yul\":21885:21888   */\n      dup10\n        /* \"#utility.yul\":21881:21900   */\n      add\n        /* \"#utility.yul\":21875:21901   */\n      mload\n        /* \"#utility.yul\":21867:21873   */\n      dup3\n        /* \"#utility.yul\":21860:21902   */\n      sstore\n        /* \"#utility.yul\":21941:21942   */\n      0x01\n        /* \"#utility.yul\":21933:21939   */\n      dup3\n        /* \"#utility.yul\":21929:21943   */\n      add\n        /* \"#utility.yul\":21919:21943   */\n      swap2\n      pop\n        /* \"#utility.yul\":21988:21990   */\n      0x20\n        /* \"#utility.yul\":21977:21986   */\n      dup6\n        /* \"#utility.yul\":21973:21991   */\n      add\n        /* \"#utility.yul\":21960:21991   */\n      swap5\n      pop\n        /* \"#utility.yul\":21834:21838   */\n      0x20\n        /* \"#utility.yul\":21831:21832   */\n      dup2\n        /* \"#utility.yul\":21827:21839   */\n      add\n        /* \"#utility.yul\":21822:21839   */\n      swap1\n      pop\n        /* \"#utility.yul\":21797:22005   */\n      jump(tag_448)\n    tag_450:\n        /* \"#utility.yul\":22033:22039   */\n      dup7\n        /* \"#utility.yul\":22024:22031   */\n      dup4\n        /* \"#utility.yul\":22021:22040   */\n      lt\n        /* \"#utility.yul\":22018:22197   */\n      iszero\n      tag_451\n      jumpi\n        /* \"#utility.yul\":22091:22100   */\n      dup5\n        /* \"#utility.yul\":22086:22089   */\n      dup10\n        /* \"#utility.yul\":22082:22101   */\n      add\n        /* \"#utility.yul\":22076:22102   */\n      mload\n        /* \"#utility.yul\":22134:22182   */\n      tag_452\n        /* \"#utility.yul\":22176:22180   */\n      0x1f\n        /* \"#utility.yul\":22168:22174   */\n      dup10\n        /* \"#utility.yul\":22164:22181   */\n      and\n        /* \"#utility.yul\":22153:22162   */\n      dup3\n        /* \"#utility.yul\":22134:22182   */\n      tag_234\n      jump\t// in\n    tag_452:\n        /* \"#utility.yul\":22126:22132   */\n      dup4\n        /* \"#utility.yul\":22119:22183   */\n      sstore\n        /* \"#utility.yul\":22041:22197   */\n      pop\n        /* \"#utility.yul\":22018:22197   */\n    tag_451:\n        /* \"#utility.yul\":22243:22244   */\n      0x01\n        /* \"#utility.yul\":22239:22240   */\n      0x02\n        /* \"#utility.yul\":22231:22237   */\n      dup9\n        /* \"#utility.yul\":22227:22241   */\n      mul\n        /* \"#utility.yul\":22223:22245   */\n      add\n        /* \"#utility.yul\":22217:22221   */\n      dup9\n        /* \"#utility.yul\":22210:22246   */\n      sstore\n        /* \"#utility.yul\":21645:22256   */\n      pop\n      pop\n      pop\n        /* \"#utility.yul\":21608:22495   */\n    tag_443:\n      pop\n        /* \"#utility.yul\":21198:22501   */\n      pop\n      pop\n      pop\n        /* \"#utility.yul\":21106:22501   */\n      pop\n      pop\n      jump\t// out\n\n    auxdata: 0xa2646970667358221220ba7ce332b078368036226041e8330592202c6bcc914045fce460d0e93014f8a464736f6c63430008190033\n}\n",
				"bytecode": {
					"linkReferences": {},
					"object": "6080604052348015600e575f80fd5b50335f806101000a81548173ffffffffffffffffffffffffffffffffffffffff021916908373ffffffffffffffffffffffffffffffffffffffff160217905550611ae88061005b5f395ff3fe608060405234801561000f575f80fd5b50600436106100f3575f3560e01c806362d73eb811610095578063c94ca9e311610064578063c94ca9e314610255578063d4f50f9814610273578063d5346da1146102a4578063f36f4ff0146102c2576100f3565b806362d73eb8146101e05780639a0e7d66146101ea578063a3ec138d14610208578063ad71f8dc14610239576100f3565b80632d35a8a2116100d15780632d35a8a21461014f5780633477ee2e1461016d57806335b8e820146101a157806359f78468146101d6576100f3565b80630121b93f146100f75780630d15fd77146101135780630deb56ab14610131575b5f80fd5b610111600480360381019061010c9190610fad565b6102e0565b005b61011b610556565b6040516101289190610fe7565b60405180910390f35b61013961055c565b6040516101469190610fe7565b60405180910390f35b610157610565565b6040516101649190610fe7565b60405180910390f35b61018760048036038101906101829190610fad565b61056b565b604051610198959493929190611070565b60405180910390f35b6101bb60048036038101906101b69190610fad565b61072f565b6040516101cd969594939291906111bd565b60405180910390f35b6101de610a28565b005b6101e8610b1f565b005b6101f2610c17565b6040516101ff9190610fe7565b60405180910390f35b610222600480360381019061021d9190611262565b610c20565b6040516102309291906112a7565b60405180910390f35b610253600480360381019061024e91906113fa565b610c4c565b005b61025d610dfd565b60405161026a919061149e565b60405180910390f35b61028d60048036038101906102889190611262565b610e0f565b60405161029b9291906112a7565b60405180910390f35b6102ac610e92565b6040516102b9919061149e565b60405180910390f35b6102ca610ea4565b6040516102d791906114c6565b60405180910390f35b5f60149054906101000a900460ff16801561030757505f60159054906101000a900460ff16155b610346576040517f08c379a000000000000000000000000000000000000000000000000000000000815260040161033d90611529565b60405180910390fd5b60015f3373ffffffffffffffffffffffffffffffffffffffff1673ffffffffffffffffffffffffffffffffffffffff1681526020019081526020015f205f015f9054906101000a900460ff16156103d2576040517f08c379a00000000000000000000000000000000000000000000000000000000081526004016103c990611591565b60405180910390fd5b5f811180156103e357506003548111155b610422576040517f08c379a0000000000000000000000000000000000000000000000000000000008152600401610419906115f9565b60405180910390fd5b60405180604001604052806001151581526020018281525060015f3373ffffffffffffffffffffffffffffffffffffffff1673ffffffffffffffffffffffffffffffffffffffff1681526020019081526020015f205f820151815f015f6101000a81548160ff0219169083151502179055506020820151816001015590505060025f8281526020019081526020015f206004015f8154809291906104c590611644565b919050555060025f8281526020019081526020015f2060050133908060018154018082558091505060019003905f5260205f20015f9091909190916101000a81548173ffffffffffffffffffffffffffffffffffffffff021916908373ffffffffffffffffffffffffffffffffffffffff16021790555060045f81548092919061054e90611644565b919050555050565b60045481565b5f600354905090565b60035481565b6002602052805f5260405f205f91509050805f015490806001018054610590906116b8565b80601f01602080910402602001604051908101604052809291908181526020018280546105bc906116b8565b80156106075780601f106105de57610100808354040283529160200191610607565b820191905f5260205f20905b8154815290600101906020018083116105ea57829003601f168201915b50505050509080600201805461061c906116b8565b80601f0160208091040260200160405190810160405280929190818152602001828054610648906116b8565b80156106935780601f1061066a57610100808354040283529160200191610693565b820191905f5260205f20905b81548152906001019060200180831161067657829003601f168201915b5050505050908060030180546106a8906116b8565b80601f01602080910402602001604051908101604052809291908181526020018280546106d4906116b8565b801561071f5780601f106106f65761010080835404028352916020019161071f565b820191905f5260205f20905b81548152906001019060200180831161070257829003601f168201915b5050505050908060040154905085565b5f60608060605f60605f8711801561074957506003548711155b610788576040517f08c379a000000000000000000000000000000000000000000000000000000000815260040161077f906115f9565b60405180910390fd5b5f60025f8981526020019081526020015f206040518060c00160405290815f82015481526020016001820180546107be906116b8565b80601f01602080910402602001604051908101604052809291908181526020018280546107ea906116b8565b80156108355780601f1061080c57610100808354040283529160200191610835565b820191905f5260205f20905b81548152906001019060200180831161081857829003601f168201915b5050505050815260200160028201805461084e906116b8565b80601f016020809104026020016040519081016040528092919081815260200182805461087a906116b8565b80156108c55780601f1061089c576101008083540402835291602001916108c5565b820191905f5260205f20905b8154815290600101906020018083116108a857829003601f168201915b505050505081526020016003820180546108de906116b8565b80601f016020809104026020016040519081016040528092919081815260200182805461090a906116b8565b80156109555780601f1061092c57610100808354040283529160200191610955565b820191905f5260205f20905b81548152906001019060200180831161093857829003601f168201915b5050505050815260200160048201548152602001600582018054806020026020016040519081016040528092919081815260200182805480156109ea57602002820191905f5260205f20905b815f9054906101000a900473ffffffffffffffffffffffffffffffffffffffff1673ffffffffffffffffffffffffffffffffffffffff16815260200190600101908083116109a1575b5050505050815250509050805f015181602001518260400151836060015184608001518560a001519650965096509650965096505091939550919395565b5f8054906101000a900473ffffffffffffffffffffffffffffffffffffffff1673ffffffffffffffffffffffffffffffffffffffff163373ffffffffffffffffffffffffffffffffffffffff1614610ab5576040517f08c379a0000000000000000000000000000000000000000000000000000000008152600401610aac90611758565b60405180910390fd5b5f60149054906101000a900460ff16610b03576040517f08c379a0000000000000000000000000000000000000000000000000000000008152600401610afa906117c0565b60405180910390fd5b60015f60156101000a81548160ff021916908315150217905550565b5f8054906101000a900473ffffffffffffffffffffffffffffffffffffffff1673ffffffffffffffffffffffffffffffffffffffff163373ffffffffffffffffffffffffffffffffffffffff1614610bac576040517f08c379a0000000000000000000000000000000000000000000000000000000008152600401610ba390611758565b60405180910390fd5b5f60149054906101000a900460ff1615610bfb576040517f08c379a0000000000000000000000000000000000000000000000000000000008152600401610bf290611828565b60405180910390fd5b60015f60146101000a81548160ff021916908315150217905550565b5f600454905090565b6001602052805f5260405f205f91509050805f015f9054906101000a900460ff16908060010154905082565b5f8054906101000a900473ffffffffffffffffffffffffffffffffffffffff1673ffffffffffffffffffffffffffffffffffffffff163373ffffffffffffffffffffffffffffffffffffffff1614610cd9576040517f08c379a0000000000000000000000000000000000000000000000000000000008152600401610cd090611758565b60405180910390fd5b5f60149054906101000a900460ff1615610d28576040517f08c379a0000000000000000000000000000000000000000000000000000000008152600401610d1f90611828565b60405180910390fd5b60035f815480929190610d3a90611644565b919050555060606040518060c0016040528060035481526020018581526020018481526020018381526020015f81526020018281525060025f60035481526020019081526020015f205f820151815f01556020820151816001019081610da091906119e3565b506040820151816002019081610db691906119e3565b506060820151816003019081610dcc91906119e3565b506080820151816004015560a0820151816005019080519060200190610df3929190610ec7565b5090505050505050565b5f60159054906101000a900460ff1681565b5f805f60015f8573ffffffffffffffffffffffffffffffffffffffff1673ffffffffffffffffffffffffffffffffffffffff1681526020019081526020015f206040518060400160405290815f82015f9054906101000a900460ff161515151581526020016001820154815250509050805f015181602001519250925050915091565b5f60149054906101000a900460ff1681565b5f8054906101000a900473ffffffffffffffffffffffffffffffffffffffff1681565b828054828255905f5260205f20908101928215610f3d579160200282015b82811115610f3c578251825f6101000a81548173ffffffffffffffffffffffffffffffffffffffff021916908373ffffffffffffffffffffffffffffffffffffffff16021790555091602001919060010190610ee5565b5b509050610f4a9190610f4e565b5090565b5b80821115610f65575f815f905550600101610f4f565b5090565b5f604051905090565b5f80fd5b5f80fd5b5f819050919050565b610f8c81610f7a565b8114610f96575f80fd5b50565b5f81359050610fa781610f83565b92915050565b5f60208284031215610fc257610fc1610f72565b5b5f610fcf84828501610f99565b91505092915050565b610fe181610f7a565b82525050565b5f602082019050610ffa5f830184610fd8565b92915050565b5f81519050919050565b5f82825260208201905092915050565b8281835e5f83830152505050565b5f601f19601f8301169050919050565b5f61104282611000565b61104c818561100a565b935061105c81856020860161101a565b61106581611028565b840191505092915050565b5f60a0820190506110835f830188610fd8565b81810360208301526110958187611038565b905081810360408301526110a98186611038565b905081810360608301526110bd8185611038565b90506110cc6080830184610fd8565b9695505050505050565b5f81519050919050565b5f82825260208201905092915050565b5f819050602082019050919050565b5f73ffffffffffffffffffffffffffffffffffffffff82169050919050565b5f611128826110ff565b9050919050565b6111388161111e565b82525050565b5f611149838361112f565b60208301905092915050565b5f602082019050919050565b5f61116b826110d6565b61117581856110e0565b9350611180836110f0565b805f5b838110156111b0578151611197888261113e565b97506111a283611155565b925050600181019050611183565b5085935050505092915050565b5f60c0820190506111d05f830189610fd8565b81810360208301526111e28188611038565b905081810360408301526111f68187611038565b9050818103606083015261120a8186611038565b90506112196080830185610fd8565b81810360a083015261122b8184611161565b9050979650505050505050565b6112418161111e565b811461124b575f80fd5b50565b5f8135905061125c81611238565b92915050565b5f6020828403121561127757611276610f72565b5b5f6112848482850161124e565b91505092915050565b5f8115159050919050565b6112a18161128d565b82525050565b5f6040820190506112ba5f830185611298565b6112c76020830184610fd8565b9392505050565b5f80fd5b5f80fd5b7f4e487b71000000000000000000000000000000000000000000000000000000005f52604160045260245ffd5b61130c82611028565b810181811067ffffffffffffffff8211171561132b5761132a6112d6565b5b80604052505050565b5f61133d610f69565b90506113498282611303565b919050565b5f67ffffffffffffffff821115611368576113676112d6565b5b61137182611028565b9050602081019050919050565b828183375f83830152505050565b5f61139e6113998461134e565b611334565b9050828152602081018484840111156113ba576113b96112d2565b5b6113c584828561137e565b509392505050565b5f82601f8301126113e1576113e06112ce565b5b81356113f184826020860161138c565b91505092915050565b5f805f6060848603121561141157611410610f72565b5b5f84013567ffffffffffffffff81111561142e5761142d610f76565b5b61143a868287016113cd565b935050602084013567ffffffffffffffff81111561145b5761145a610f76565b5b611467868287016113cd565b925050604084013567ffffffffffffffff81111561148857611487610f76565b5b611494868287016113cd565b9150509250925092565b5f6020820190506114b15f830184611298565b92915050565b6114c08161111e565b82525050565b5f6020820190506114d95f8301846114b7565b92915050565b7f456c656374696f6e206973206e6f7420696e2070726f677265737300000000005f82015250565b5f611513601b8361100a565b915061151e826114df565b602082019050919050565b5f6020820190508181035f83015261154081611507565b9050919050565b7f596f75206861766520616c726561647920766f746564000000000000000000005f82015250565b5f61157b60168361100a565b915061158682611547565b602082019050919050565b5f6020820190508181035f8301526115a88161156f565b9050919050565b7f496e76616c69642063616e6469646174652049440000000000000000000000005f82015250565b5f6115e360148361100a565b91506115ee826115af565b602082019050919050565b5f6020820190508181035f830152611610816115d7565b9050919050565b7f4e487b71000000000000000000000000000000000000000000000000000000005f52601160045260245ffd5b5f61164e82610f7a565b91507fffffffffffffffffffffffffffffffffffffffffffffffffffffffffffffffff82036116805761167f611617565b5b600182019050919050565b7f4e487b71000000000000000000000000000000000000000000000000000000005f52602260045260245ffd5b5f60028204905060018216806116cf57607f821691505b6020821081036116e2576116e161168b565b5b50919050565b7f4f6e6c792074686520656c656374696f6e2063726561746f722063616e2070655f8201527f72666f726d207468697320616374696f6e000000000000000000000000000000602082015250565b5f61174260318361100a565b915061174d826116e8565b604082019050919050565b5f6020820190508181035f83015261176f81611736565b9050919050565b7f456c656374696f6e20686173206e6f74207374617274656420796574000000005f82015250565b5f6117aa601c8361100a565b91506117b582611776565b602082019050919050565b5f6020820190508181035f8301526117d78161179e565b9050919050565b7f456c656374696f6e2068617320616c72656164792073746172746564000000005f82015250565b5f611812601c8361100a565b915061181d826117de565b602082019050919050565b5f6020820190508181035f83015261183f81611806565b9050919050565b5f819050815f5260205f209050919050565b5f6020601f8301049050919050565b5f82821b905092915050565b5f600883026118a27fffffffffffffffffffffffffffffffffffffffffffffffffffffffffffffffff82611867565b6118ac8683611867565b95508019841693508086168417925050509392505050565b5f819050919050565b5f6118e76118e26118dd84610f7a565b6118c4565b610f7a565b9050919050565b5f819050919050565b611900836118cd565b61191461190c826118ee565b848454611873565b825550505050565b5f90565b61192861191c565b6119338184846118f7565b505050565b5b818110156119565761194b5f82611920565b600181019050611939565b5050565b601f82111561199b5761196c81611846565b61197584611858565b81016020851015611984578190505b61199861199085611858565b830182611938565b50505b505050565b5f82821c905092915050565b5f6119bb5f19846008026119a0565b1980831691505092915050565b5f6119d383836119ac565b9150826002028217905092915050565b6119ec82611000565b67ffffffffffffffff811115611a0557611a046112d6565b5b611a0f82546116b8565b611a1a82828561195a565b5f60209050601f831160018114611a4b575f8415611a39578287015190505b611a4385826119c8565b865550611aaa565b601f198416611a5986611846565b5f5b82811015611a8057848901518255600182019150602085019450602081019050611a5b565b86831015611a9d5784890151611a99601f8916826119ac565b8355505b6001600288020188555050505b50505050505056fea2646970667358221220ba7ce332b078368036226041e8330592202c6bcc914045fce460d0e93014f8a464736f6c63430008190033",
					"opcodes": "PUSH1 0x80 PUSH1 0x40 MSTORE CALLVALUE DUP1 ISZERO PUSH1 0xE JUMPI PUSH0 DUP1 REVERT JUMPDEST POP CALLER PUSH0 DUP1 PUSH2 0x100 EXP DUP2 SLOAD DUP2 PUSH20 0xFFFFFFFFFFFFFFFFFFFFFFFFFFFFFFFFFFFFFFFF MUL NOT AND SWAP1 DUP4 PUSH20 0xFFFFFFFFFFFFFFFFFFFFFFFFFFFFFFFFFFFFFFFF AND MUL OR SWAP1 SSTORE POP PUSH2 0x1AE8 DUP1 PUSH2 0x5B PUSH0 CODECOPY PUSH0 RETURN INVALID PUSH1 0x80 PUSH1 0x40 MSTORE CALLVALUE DUP1 ISZERO PUSH2 0xF JUMPI PUSH0 DUP1 REVERT JUMPDEST POP PUSH1 0x4 CALLDATASIZE LT PUSH2 0xF3 JUMPI PUSH0 CALLDATALOAD PUSH1 0xE0 SHR DUP1 PUSH4 0x62D73EB8 GT PUSH2 0x95 JUMPI DUP1 PUSH4 0xC94CA9E3 GT PUSH2 0x64 JUMPI DUP1 PUSH4 0xC94CA9E3 EQ PUSH2 0x255 JUMPI DUP1 PUSH4 0xD4F50F98 EQ PUSH2 0x273 JUMPI DUP1 PUSH4 0xD5346DA1 EQ PUSH2 0x2A4 JUMPI DUP1 PUSH4 0xF36F4FF0 EQ PUSH2 0x2C2 JUMPI PUSH2 0xF3 JUMP JUMPDEST DUP1 PUSH4 0x62D73EB8 EQ PUSH2 0x1E0 JUMPI DUP1 PUSH4 0x9A0E7D66 EQ PUSH2 0x1EA JUMPI DUP1 PUSH4 0xA3EC138D EQ PUSH2 0x208 JUMPI DUP1 PUSH4 0xAD71F8DC EQ PUSH2 0x239 JUMPI PUSH2 0xF3 JUMP JUMPDEST DUP1 PUSH4 0x2D35A8A2 GT PUSH2 0xD1 JUMPI DUP1 PUSH4 0x2D35A8A2 EQ PUSH2 0x14F JUMPI DUP1 PUSH4 0x3477EE2E EQ PUSH2 0x16D JUMPI DUP1 PUSH4 0x35B8E820 EQ PUSH2 0x1A1 JUMPI DUP1 PUSH4 0x59F78468 EQ PUSH2 0x1D6 JUMPI PUSH2 0xF3 JUMP JUMPDEST DUP1 PUSH4 0x121B93F EQ PUSH2 0xF7 JUMPI DUP1 PUSH4 0xD15FD77 EQ PUSH2 0x113 JUMPI DUP1 PUSH4 0xDEB56AB EQ PUSH2 0x131 JUMPI JUMPDEST PUSH0 DUP1 REVERT JUMPDEST PUSH2 0x111 PUSH1 0x4 DUP1 CALLDATASIZE SUB DUP2 ADD SWAP1 PUSH2 0x10C SWAP2 SWAP1 PUSH2 0xFAD JUMP JUMPDEST PUSH2 0x2E0 JUMP JUMPDEST STOP JUMPDEST PUSH2 0x11B PUSH2 0x556 JUMP JUMPDEST PUSH1 0x40 MLOAD PUSH2 0x128 SWAP2 SWAP1 PUSH2 0xFE7 JUMP JUMPDEST PUSH1 0x40 MLOAD DUP1 SWAP2 SUB SWAP1 RETURN JUMPDEST PUSH2 0x139 PUSH2 0x55C JUMP JUMPDEST PUSH1 0x40 MLOAD PUSH2 0x146 SWAP2 SWAP1 PUSH2 0xFE7 JUMP JUMPDEST PUSH1 0x40 MLOAD DUP1 SWAP2 SUB SWAP1 RETURN JUMPDEST PUSH2 0x157 PUSH2 0x565 JUMP JUMPDEST PUSH1 0x40 MLOAD PUSH2 0x164 SWAP2 SWAP1 PUSH2 0xFE7 JUMP JUMPDEST PUSH1 0x40 MLOAD DUP1 SWAP2 SUB SWAP1 RETURN JUMPDEST PUSH2 0x187 PUSH1 0x4 DUP1 CALLDATASIZE SUB DUP2 ADD SWAP1 PUSH2 0x182 SWAP2 SWAP1 PUSH2 0xFAD JUMP JUMPDEST PUSH2 0x56B JUMP JUMPDEST PUSH1 0x40 MLOAD PUSH2 0x198 SWAP6 SWAP5 SWAP4 SWAP3 SWAP2 SWAP1 PUSH2 0x1070 JUMP JUMPDEST PUSH1 0x40 MLOAD DUP1 SWAP2 SUB SWAP1 RETURN JUMPDEST PUSH2 0x1BB PUSH1 0x4 DUP1 CALLDATASIZE SUB DUP2 ADD SWAP1 PUSH2 0x1B6 SWAP2 SWAP1 PUSH2 0xFAD JUMP JUMPDEST PUSH2 0x72F JUMP JUMPDEST PUSH1 0x40 MLOAD PUSH2 0x1CD SWAP7 SWAP6 SWAP5 SWAP4 SWAP3 SWAP2 SWAP1 PUSH2 0x11BD JUMP JUMPDEST PUSH1 0x40 MLOAD DUP1 SWAP2 SUB SWAP1 RETURN JUMPDEST PUSH2 0x1DE PUSH2 0xA28 JUMP JUMPDEST STOP JUMPDEST PUSH2 0x1E8 PUSH2 0xB1F JUMP JUMPDEST STOP JUMPDEST PUSH2 0x1F2 PUSH2 0xC17 JUMP JUMPDEST PUSH1 0x40 MLOAD PUSH2 0x1FF SWAP2 SWAP1 PUSH2 0xFE7 JUMP JUMPDEST PUSH1 0x40 MLOAD DUP1 SWAP2 SUB SWAP1 RETURN JUMPDEST PUSH2 0x222 PUSH1 0x4 DUP1 CALLDATASIZE SUB DUP2 ADD SWAP1 PUSH2 0x21D SWAP2 SWAP1 PUSH2 0x1262 JUMP JUMPDEST PUSH2 0xC20 JUMP JUMPDEST PUSH1 0x40 MLOAD PUSH2 0x230 SWAP3 SWAP2 SWAP1 PUSH2 0x12A7 JUMP JUMPDEST PUSH1 0x40 MLOAD DUP1 SWAP2 SUB SWAP1 RETURN JUMPDEST PUSH2 0x253 PUSH1 0x4 DUP1 CALLDATASIZE SUB DUP2 ADD SWAP1 PUSH2 0x24E SWAP2 SWAP1 PUSH2 0x13FA JUMP JUMPDEST PUSH2 0xC4C JUMP JUMPDEST STOP JUMPDEST PUSH2 0x25D PUSH2 0xDFD JUMP JUMPDEST PUSH1 0x40 MLOAD PUSH2 0x26A SWAP2 SWAP1 PUSH2 0x149E JUMP JUMPDEST PUSH1 0x40 MLOAD DUP1 SWAP2 SUB SWAP1 RETURN JUMPDEST PUSH2 0x28D PUSH1 0x4 DUP1 CALLDATASIZE SUB DUP2 ADD SWAP1 PUSH2 0x288 SWAP2 SWAP1 PUSH2 0x1262 JUMP JUMPDEST PUSH2 0xE0F JUMP JUMPDEST PUSH1 0x40 MLOAD PUSH2 0x29B SWAP3 SWAP2 SWAP1 PUSH2 0x12A7 JUMP JUMPDEST PUSH1 0x40 MLOAD DUP1 SWAP2 SUB SWAP1 RETURN JUMPDEST PUSH2 0x2AC PUSH2 0xE92 JUMP JUMPDEST PUSH1 0x40 MLOAD PUSH2 0x2B9 SWAP2 SWAP1 PUSH2 0x149E JUMP JUMPDEST PUSH1 0x40 MLOAD DUP1 SWAP2 SUB SWAP1 RETURN JUMPDEST PUSH2 0x2CA PUSH2 0xEA4 JUMP JUMPDEST PUSH1 0x40 MLOAD PUSH2 0x2D7 SWAP2 SWAP1 PUSH2 0x14C6 JUMP JUMPDEST PUSH1 0x40 MLOAD DUP1 SWAP2 SUB SWAP1 RETURN JUMPDEST PUSH0 PUSH1 0x14 SWAP1 SLOAD SWAP1 PUSH2 0x100 EXP SWAP1 DIV PUSH1 0xFF AND DUP1 ISZERO PUSH2 0x307 JUMPI POP PUSH0 PUSH1 0x15 SWAP1 SLOAD SWAP1 PUSH2 0x100 EXP SWAP1 DIV PUSH1 0xFF AND ISZERO JUMPDEST PUSH2 0x346 JUMPI PUSH1 0x40 MLOAD PUSH32 0x8C379A000000000000000000000000000000000000000000000000000000000 DUP2 MSTORE PUSH1 0x4 ADD PUSH2 0x33D SWAP1 PUSH2 0x1529 JUMP JUMPDEST PUSH1 0x40 MLOAD DUP1 SWAP2 SUB SWAP1 REVERT JUMPDEST PUSH1 0x1 PUSH0 CALLER PUSH20 0xFFFFFFFFFFFFFFFFFFFFFFFFFFFFFFFFFFFFFFFF AND PUSH20 0xFFFFFFFFFFFFFFFFFFFFFFFFFFFFFFFFFFFFFFFF AND DUP2 MSTORE PUSH1 0x20 ADD SWAP1 DUP2 MSTORE PUSH1 0x20 ADD PUSH0 KECCAK256 PUSH0 ADD PUSH0 SWAP1 SLOAD SWAP1 PUSH2 0x100 EXP SWAP1 DIV PUSH1 0xFF AND ISZERO PUSH2 0x3D2 JUMPI PUSH1 0x40 MLOAD PUSH32 0x8C379A000000000000000000000000000000000000000000000000000000000 DUP2 MSTORE PUSH1 0x4 ADD PUSH2 0x3C9 SWAP1 PUSH2 0x1591 JUMP JUMPDEST PUSH1 0x40 MLOAD DUP1 SWAP2 SUB SWAP1 REVERT JUMPDEST PUSH0 DUP2 GT DUP1 ISZERO PUSH2 0x3E3 JUMPI POP PUSH1 0x3 SLOAD DUP2 GT ISZERO JUMPDEST PUSH2 0x422 JUMPI PUSH1 0x40 MLOAD PUSH32 0x8C379A000000000000000000000000000000000000000000000000000000000 DUP2 MSTORE PUSH1 0x4 ADD PUSH2 0x419 SWAP1 PUSH2 0x15F9 JUMP JUMPDEST PUSH1 0x40 MLOAD DUP1 SWAP2 SUB SWAP1 REVERT JUMPDEST PUSH1 0x40 MLOAD DUP1 PUSH1 0x40 ADD PUSH1 0x40 MSTORE DUP1 PUSH1 0x1 ISZERO ISZERO DUP2 MSTORE PUSH1 0x20 ADD DUP3 DUP2 MSTORE POP PUSH1 0x1 PUSH0 CALLER PUSH20 0xFFFFFFFFFFFFFFFFFFFFFFFFFFFFFFFFFFFFFFFF AND PUSH20 0xFFFFFFFFFFFFFFFFFFFFFFFFFFFFFFFFFFFFFFFF AND DUP2 MSTORE PUSH1 0x20 ADD SWAP1 DUP2 MSTORE PUSH1 0x20 ADD PUSH0 KECCAK256 PUSH0 DUP3 ADD MLOAD DUP2 PUSH0 ADD PUSH0 PUSH2 0x100 EXP DUP2 SLOAD DUP2 PUSH1 0xFF MUL NOT AND SWAP1 DUP4 ISZERO ISZERO MUL OR SWAP1 SSTORE POP PUSH1 0x20 DUP3 ADD MLOAD DUP2 PUSH1 0x1 ADD SSTORE SWAP1 POP POP PUSH1 0x2 PUSH0 DUP3 DUP2 MSTORE PUSH1 0x20 ADD SWAP1 DUP2 MSTORE PUSH1 0x20 ADD PUSH0 KECCAK256 PUSH1 0x4 ADD PUSH0 DUP2 SLOAD DUP1 SWAP3 SWAP2 SWAP1 PUSH2 0x4C5 SWAP1 PUSH2 0x1644 JUMP JUMPDEST SWAP2 SWAP1 POP SSTORE POP PUSH1 0x2 PUSH0 DUP3 DUP2 MSTORE PUSH1 0x20 ADD SWAP1 DUP2 MSTORE PUSH1 0x20 ADD PUSH0 KECCAK256 PUSH1 0x5 ADD CALLER SWAP1 DUP1 PUSH1 0x1 DUP2 SLOAD ADD DUP1 DUP3 SSTORE DUP1 SWAP2 POP POP PUSH1 0x1 SWAP1 SUB SWAP1 PUSH0 MSTORE PUSH1 0x20 PUSH0 KECCAK256 ADD PUSH0 SWAP1 SWAP2 SWAP1 SWAP2 SWAP1 SWAP2 PUSH2 0x100 EXP DUP2 SLOAD DUP2 PUSH20 0xFFFFFFFFFFFFFFFFFFFFFFFFFFFFFFFFFFFFFFFF MUL NOT AND SWAP1 DUP4 PUSH20 0xFFFFFFFFFFFFFFFFFFFFFFFFFFFFFFFFFFFFFFFF AND MUL OR SWAP1 SSTORE POP PUSH1 0x4 PUSH0 DUP2 SLOAD DUP1 SWAP3 SWAP2 SWAP1 PUSH2 0x54E SWAP1 PUSH2 0x1644 JUMP JUMPDEST SWAP2 SWAP1 POP SSTORE POP POP JUMP JUMPDEST PUSH1 0x4 SLOAD DUP2 JUMP JUMPDEST PUSH0 PUSH1 0x3 SLOAD SWAP1 POP SWAP1 JUMP JUMPDEST PUSH1 0x3 SLOAD DUP2 JUMP JUMPDEST PUSH1 0x2 PUSH1 0x20 MSTORE DUP1 PUSH0 MSTORE PUSH1 0x40 PUSH0 KECCAK256 PUSH0 SWAP2 POP SWAP1 POP DUP1 PUSH0 ADD SLOAD SWAP1 DUP1 PUSH1 0x1 ADD DUP1 SLOAD PUSH2 0x590 SWAP1 PUSH2 0x16B8 JUMP JUMPDEST DUP1 PUSH1 0x1F ADD PUSH1 0x20 DUP1 SWAP2 DIV MUL PUSH1 0x20 ADD PUSH1 0x40 MLOAD SWAP1 DUP2 ADD PUSH1 0x40 MSTORE DUP1 SWAP3 SWAP2 SWAP1 DUP2 DUP2 MSTORE PUSH1 0x20 ADD DUP3 DUP1 SLOAD PUSH2 0x5BC SWAP1 PUSH2 0x16B8 JUMP JUMPDEST DUP1 ISZERO PUSH2 0x607 JUMPI DUP1 PUSH1 0x1F LT PUSH2 0x5DE JUMPI PUSH2 0x100 DUP1 DUP4 SLOAD DIV MUL DUP4 MSTORE SWAP2 PUSH1 0x20 ADD SWAP2 PUSH2 0x607 JUMP JUMPDEST DUP3 ADD SWAP2 SWAP1 PUSH0 MSTORE PUSH1 0x20 PUSH0 KECCAK256 SWAP1 JUMPDEST DUP2 SLOAD DUP2 MSTORE SWAP1 PUSH1 0x1 ADD SWAP1 PUSH1 0x20 ADD DUP1 DUP4 GT PUSH2 0x5EA JUMPI DUP3 SWAP1 SUB PUSH1 0x1F AND DUP3 ADD SWAP2 JUMPDEST POP POP POP POP POP SWAP1 DUP1 PUSH1 0x2 ADD DUP1 SLOAD PUSH2 0x61C SWAP1 PUSH2 0x16B8 JUMP JUMPDEST DUP1 PUSH1 0x1F ADD PUSH1 0x20 DUP1 SWAP2 DIV MUL PUSH1 0x20 ADD PUSH1 0x40 MLOAD SWAP1 DUP2 ADD PUSH1 0x40 MSTORE DUP1 SWAP3 SWAP2 SWAP1 DUP2 DUP2 MSTORE PUSH1 0x20 ADD DUP3 DUP1 SLOAD PUSH2 0x648 SWAP1 PUSH2 0x16B8 JUMP JUMPDEST DUP1 ISZERO PUSH2 0x693 JUMPI DUP1 PUSH1 0x1F LT PUSH2 0x66A JUMPI PUSH2 0x100 DUP1 DUP4 SLOAD DIV MUL DUP4 MSTORE SWAP2 PUSH1 0x20 ADD SWAP2 PUSH2 0x693 JUMP JUMPDEST DUP3 ADD SWAP2 SWAP1 PUSH0 MSTORE PUSH1 0x20 PUSH0 KECCAK256 SWAP1 JUMPDEST DUP2 SLOAD DUP2 MSTORE SWAP1 PUSH1 0x1 ADD SWAP1 PUSH1 0x20 ADD DUP1 DUP4 GT PUSH2 0x676 JUMPI DUP3 SWAP1 SUB PUSH1 0x1F AND DUP3 ADD SWAP2 JUMPDEST POP POP POP POP POP SWAP1 DUP1 PUSH1 0x3 ADD DUP1 SLOAD PUSH2 0x6A8 SWAP1 PUSH2 0x16B8 JUMP JUMPDEST DUP1 PUSH1 0x1F ADD PUSH1 0x20 DUP1 SWAP2 DIV MUL PUSH1 0x20 ADD PUSH1 0x40 MLOAD SWAP1 DUP2 ADD PUSH1 0x40 MSTORE DUP1 SWAP3 SWAP2 SWAP1 DUP2 DUP2 MSTORE PUSH1 0x20 ADD DUP3 DUP1 SLOAD PUSH2 0x6D4 SWAP1 PUSH2 0x16B8 JUMP JUMPDEST DUP1 ISZERO PUSH2 0x71F JUMPI DUP1 PUSH1 0x1F LT PUSH2 0x6F6 JUMPI PUSH2 0x100 DUP1 DUP4 SLOAD DIV MUL DUP4 MSTORE SWAP2 PUSH1 0x20 ADD SWAP2 PUSH2 0x71F JUMP JUMPDEST DUP3 ADD SWAP2 SWAP1 PUSH0 MSTORE PUSH1 0x20 PUSH0 KECCAK256 SWAP1 JUMPDEST DUP2 SLOAD DUP2 MSTORE SWAP1 PUSH1 0x1 ADD SWAP1 PUSH1 0x20 ADD DUP1 DUP4 GT PUSH2 0x702 JUMPI DUP3 SWAP1 SUB PUSH1 0x1F AND DUP3 ADD SWAP2 JUMPDEST POP POP POP POP POP SWAP1 DUP1 PUSH1 0x4 ADD SLOAD SWAP1 POP DUP6 JUMP JUMPDEST PUSH0 PUSH1 0x60 DUP1 PUSH1 0x60 PUSH0 PUSH1 0x60 PUSH0 DUP8 GT DUP1 ISZERO PUSH2 0x749 JUMPI POP PUSH1 0x3 SLOAD DUP8 GT ISZERO JUMPDEST PUSH2 0x788 JUMPI PUSH1 0x40 MLOAD PUSH32 0x8C379A000000000000000000000000000000000000000000000000000000000 DUP2 MSTORE PUSH1 0x4 ADD PUSH2 0x77F SWAP1 PUSH2 0x15F9 JUMP JUMPDEST PUSH1 0x40 MLOAD DUP1 SWAP2 SUB SWAP1 REVERT JUMPDEST PUSH0 PUSH1 0x2 PUSH0 DUP10 DUP2 MSTORE PUSH1 0x20 ADD SWAP1 DUP2 MSTORE PUSH1 0x20 ADD PUSH0 KECCAK256 PUSH1 0x40 MLOAD DUP1 PUSH1 0xC0 ADD PUSH1 0x40 MSTORE SWAP1 DUP2 PUSH0 DUP3 ADD SLOAD DUP2 MSTORE PUSH1 0x20 ADD PUSH1 0x1 DUP3 ADD DUP1 SLOAD PUSH2 0x7BE SWAP1 PUSH2 0x16B8 JUMP JUMPDEST DUP1 PUSH1 0x1F ADD PUSH1 0x20 DUP1 SWAP2 DIV MUL PUSH1 0x20 ADD PUSH1 0x40 MLOAD SWAP1 DUP2 ADD PUSH1 0x40 MSTORE DUP1 SWAP3 SWAP2 SWAP1 DUP2 DUP2 MSTORE PUSH1 0x20 ADD DUP3 DUP1 SLOAD PUSH2 0x7EA SWAP1 PUSH2 0x16B8 JUMP JUMPDEST DUP1 ISZERO PUSH2 0x835 JUMPI DUP1 PUSH1 0x1F LT PUSH2 0x80C JUMPI PUSH2 0x100 DUP1 DUP4 SLOAD DIV MUL DUP4 MSTORE SWAP2 PUSH1 0x20 ADD SWAP2 PUSH2 0x835 JUMP JUMPDEST DUP3 ADD SWAP2 SWAP1 PUSH0 MSTORE PUSH1 0x20 PUSH0 KECCAK256 SWAP1 JUMPDEST DUP2 SLOAD DUP2 MSTORE SWAP1 PUSH1 0x1 ADD SWAP1 PUSH1 0x20 ADD DUP1 DUP4 GT PUSH2 0x818 JUMPI DUP3 SWAP1 SUB PUSH1 0x1F AND DUP3 ADD SWAP2 JUMPDEST POP POP POP POP POP DUP2 MSTORE PUSH1 0x20 ADD PUSH1 0x2 DUP3 ADD DUP1 SLOAD PUSH2 0x84E SWAP1 PUSH2 0x16B8 JUMP JUMPDEST DUP1 PUSH1 0x1F ADD PUSH1 0x20 DUP1 SWAP2 DIV MUL PUSH1 0x20 ADD PUSH1 0x40 MLOAD SWAP1 DUP2 ADD PUSH1 0x40 MSTORE DUP1 SWAP3 SWAP2 SWAP1 DUP2 DUP2 MSTORE PUSH1 0x20 ADD DUP3 DUP1 SLOAD PUSH2 0x87A SWAP1 PUSH2 0x16B8 JUMP JUMPDEST DUP1 ISZERO PUSH2 0x8C5 JUMPI DUP1 PUSH1 0x1F LT PUSH2 0x89C JUMPI PUSH2 0x100 DUP1 DUP4 SLOAD DIV MUL DUP4 MSTORE SWAP2 PUSH1 0x20 ADD SWAP2 PUSH2 0x8C5 JUMP JUMPDEST DUP3 ADD SWAP2 SWAP1 PUSH0 MSTORE PUSH1 0x20 PUSH0 KECCAK256 SWAP1 JUMPDEST DUP2 SLOAD DUP2 MSTORE SWAP1 PUSH1 0x1 ADD SWAP1 PUSH1 0x20 ADD DUP1 DUP4 GT PUSH2 0x8A8 JUMPI DUP3 SWAP1 SUB PUSH1 0x1F AND DUP3 ADD SWAP2 JUMPDEST POP POP POP POP POP DUP2 MSTORE PUSH1 0x20 ADD PUSH1 0x3 DUP3 ADD DUP1 SLOAD PUSH2 0x8DE SWAP1 PUSH2 0x16B8 JUMP JUMPDEST DUP1 PUSH1 0x1F ADD PUSH1 0x20 DUP1 SWAP2 DIV MUL PUSH1 0x20 ADD PUSH1 0x40 MLOAD SWAP1 DUP2 ADD PUSH1 0x40 MSTORE DUP1 SWAP3 SWAP2 SWAP1 DUP2 DUP2 MSTORE PUSH1 0x20 ADD DUP3 DUP1 SLOAD PUSH2 0x90A SWAP1 PUSH2 0x16B8 JUMP JUMPDEST DUP1 ISZERO PUSH2 0x955 JUMPI DUP1 PUSH1 0x1F LT PUSH2 0x92C JUMPI PUSH2 0x100 DUP1 DUP4 SLOAD DIV MUL DUP4 MSTORE SWAP2 PUSH1 0x20 ADD SWAP2 PUSH2 0x955 JUMP JUMPDEST DUP3 ADD SWAP2 SWAP1 PUSH0 MSTORE PUSH1 0x20 PUSH0 KECCAK256 SWAP1 JUMPDEST DUP2 SLOAD DUP2 MSTORE SWAP1 PUSH1 0x1 ADD SWAP1 PUSH1 0x20 ADD DUP1 DUP4 GT PUSH2 0x938 JUMPI DUP3 SWAP1 SUB PUSH1 0x1F AND DUP3 ADD SWAP2 JUMPDEST POP POP POP POP POP DUP2 MSTORE PUSH1 0x20 ADD PUSH1 0x4 DUP3 ADD SLOAD DUP2 MSTORE PUSH1 0x20 ADD PUSH1 0x5 DUP3 ADD DUP1 SLOAD DUP1 PUSH1 0x20 MUL PUSH1 0x20 ADD PUSH1 0x40 MLOAD SWAP1 DUP2 ADD PUSH1 0x40 MSTORE DUP1 SWAP3 SWAP2 SWAP1 DUP2 DUP2 MSTORE PUSH1 0x20 ADD DUP3 DUP1 SLOAD DUP1 ISZERO PUSH2 0x9EA JUMPI PUSH1 0x20 MUL DUP3 ADD SWAP2 SWAP1 PUSH0 MSTORE PUSH1 0x20 PUSH0 KECCAK256 SWAP1 JUMPDEST DUP2 PUSH0 SWAP1 SLOAD SWAP1 PUSH2 0x100 EXP SWAP1 DIV PUSH20 0xFFFFFFFFFFFFFFFFFFFFFFFFFFFFFFFFFFFFFFFF AND PUSH20 0xFFFFFFFFFFFFFFFFFFFFFFFFFFFFFFFFFFFFFFFF AND DUP2 MSTORE PUSH1 0x20 ADD SWAP1 PUSH1 0x1 ADD SWAP1 DUP1 DUP4 GT PUSH2 0x9A1 JUMPI JUMPDEST POP POP POP POP POP DUP2 MSTORE POP POP SWAP1 POP DUP1 PUSH0 ADD MLOAD DUP2 PUSH1 0x20 ADD MLOAD DUP3 PUSH1 0x40 ADD MLOAD DUP4 PUSH1 0x60 ADD MLOAD DUP5 PUSH1 0x80 ADD MLOAD DUP6 PUSH1 0xA0 ADD MLOAD SWAP7 POP SWAP7 POP SWAP7 POP SWAP7 POP SWAP7 POP SWAP7 POP POP SWAP2 SWAP4 SWAP6 POP SWAP2 SWAP4 SWAP6 JUMP JUMPDEST PUSH0 DUP1 SLOAD SWAP1 PUSH2 0x100 EXP SWAP1 DIV PUSH20 0xFFFFFFFFFFFFFFFFFFFFFFFFFFFFFFFFFFFFFFFF AND PUSH20 0xFFFFFFFFFFFFFFFFFFFFFFFFFFFFFFFFFFFFFFFF AND CALLER PUSH20 0xFFFFFFFFFFFFFFFFFFFFFFFFFFFFFFFFFFFFFFFF AND EQ PUSH2 0xAB5 JUMPI PUSH1 0x40 MLOAD PUSH32 0x8C379A000000000000000000000000000000000000000000000000000000000 DUP2 MSTORE PUSH1 0x4 ADD PUSH2 0xAAC SWAP1 PUSH2 0x1758 JUMP JUMPDEST PUSH1 0x40 MLOAD DUP1 SWAP2 SUB SWAP1 REVERT JUMPDEST PUSH0 PUSH1 0x14 SWAP1 SLOAD SWAP1 PUSH2 0x100 EXP SWAP1 DIV PUSH1 0xFF AND PUSH2 0xB03 JUMPI PUSH1 0x40 MLOAD PUSH32 0x8C379A000000000000000000000000000000000000000000000000000000000 DUP2 MSTORE PUSH1 0x4 ADD PUSH2 0xAFA SWAP1 PUSH2 0x17C0 JUMP JUMPDEST PUSH1 0x40 MLOAD DUP1 SWAP2 SUB SWAP1 REVERT JUMPDEST PUSH1 0x1 PUSH0 PUSH1 0x15 PUSH2 0x100 EXP DUP2 SLOAD DUP2 PUSH1 0xFF MUL NOT AND SWAP1 DUP4 ISZERO ISZERO MUL OR SWAP1 SSTORE POP JUMP JUMPDEST PUSH0 DUP1 SLOAD SWAP1 PUSH2 0x100 EXP SWAP1 DIV PUSH20 0xFFFFFFFFFFFFFFFFFFFFFFFFFFFFFFFFFFFFFFFF AND PUSH20 0xFFFFFFFFFFFFFFFFFFFFFFFFFFFFFFFFFFFFFFFF AND CALLER PUSH20 0xFFFFFFFFFFFFFFFFFFFFFFFFFFFFFFFFFFFFFFFF AND EQ PUSH2 0xBAC JUMPI PUSH1 0x40 MLOAD PUSH32 0x8C379A000000000000000000000000000000000000000000000000000000000 DUP2 MSTORE PUSH1 0x4 ADD PUSH2 0xBA3 SWAP1 PUSH2 0x1758 JUMP JUMPDEST PUSH1 0x40 MLOAD DUP1 SWAP2 SUB SWAP1 REVERT JUMPDEST PUSH0 PUSH1 0x14 SWAP1 SLOAD SWAP1 PUSH2 0x100 EXP SWAP1 DIV PUSH1 0xFF AND ISZERO PUSH2 0xBFB JUMPI PUSH1 0x40 MLOAD PUSH32 0x8C379A000000000000000000000000000000000000000000000000000000000 DUP2 MSTORE PUSH1 0x4 ADD PUSH2 0xBF2 SWAP1 PUSH2 0x1828 JUMP JUMPDEST PUSH1 0x40 MLOAD DUP1 SWAP2 SUB SWAP1 REVERT JUMPDEST PUSH1 0x1 PUSH0 PUSH1 0x14 PUSH2 0x100 EXP DUP2 SLOAD DUP2 PUSH1 0xFF MUL NOT AND SWAP1 DUP4 ISZERO ISZERO MUL OR SWAP1 SSTORE POP JUMP JUMPDEST PUSH0 PUSH1 0x4 SLOAD SWAP1 POP SWAP1 JUMP JUMPDEST PUSH1 0x1 PUSH1 0x20 MSTORE DUP1 PUSH0 MSTORE PUSH1 0x40 PUSH0 KECCAK256 PUSH0 SWAP2 POP SWAP1 POP DUP1 PUSH0 ADD PUSH0 SWAP1 SLOAD SWAP1 PUSH2 0x100 EXP SWAP1 DIV PUSH1 0xFF AND SWAP1 DUP1 PUSH1 0x1 ADD SLOAD SWAP1 POP DUP3 JUMP JUMPDEST PUSH0 DUP1 SLOAD SWAP1 PUSH2 0x100 EXP SWAP1 DIV PUSH20 0xFFFFFFFFFFFFFFFFFFFFFFFFFFFFFFFFFFFFFFFF AND PUSH20 0xFFFFFFFFFFFFFFFFFFFFFFFFFFFFFFFFFFFFFFFF AND CALLER PUSH20 0xFFFFFFFFFFFFFFFFFFFFFFFFFFFFFFFFFFFFFFFF AND EQ PUSH2 0xCD9 JUMPI PUSH1 0x40 MLOAD PUSH32 0x8C379A000000000000000000000000000000000000000000000000000000000 DUP2 MSTORE PUSH1 0x4 ADD PUSH2 0xCD0 SWAP1 PUSH2 0x1758 JUMP JUMPDEST PUSH1 0x40 MLOAD DUP1 SWAP2 SUB SWAP1 REVERT JUMPDEST PUSH0 PUSH1 0x14 SWAP1 SLOAD SWAP1 PUSH2 0x100 EXP SWAP1 DIV PUSH1 0xFF AND ISZERO PUSH2 0xD28 JUMPI PUSH1 0x40 MLOAD PUSH32 0x8C379A000000000000000000000000000000000000000000000000000000000 DUP2 MSTORE PUSH1 0x4 ADD PUSH2 0xD1F SWAP1 PUSH2 0x1828 JUMP JUMPDEST PUSH1 0x40 MLOAD DUP1 SWAP2 SUB SWAP1 REVERT JUMPDEST PUSH1 0x3 PUSH0 DUP2 SLOAD DUP1 SWAP3 SWAP2 SWAP1 PUSH2 0xD3A SWAP1 PUSH2 0x1644 JUMP JUMPDEST SWAP2 SWAP1 POP SSTORE POP PUSH1 0x60 PUSH1 0x40 MLOAD DUP1 PUSH1 0xC0 ADD PUSH1 0x40 MSTORE DUP1 PUSH1 0x3 SLOAD DUP2 MSTORE PUSH1 0x20 ADD DUP6 DUP2 MSTORE PUSH1 0x20 ADD DUP5 DUP2 MSTORE PUSH1 0x20 ADD DUP4 DUP2 MSTORE PUSH1 0x20 ADD PUSH0 DUP2 MSTORE PUSH1 0x20 ADD DUP3 DUP2 MSTORE POP PUSH1 0x2 PUSH0 PUSH1 0x3 SLOAD DUP2 MSTORE PUSH1 0x20 ADD SWAP1 DUP2 MSTORE PUSH1 0x20 ADD PUSH0 KECCAK256 PUSH0 DUP3 ADD MLOAD DUP2 PUSH0 ADD SSTORE PUSH1 0x20 DUP3 ADD MLOAD DUP2 PUSH1 0x1 ADD SWAP1 DUP2 PUSH2 0xDA0 SWAP2 SWAP1 PUSH2 0x19E3 JUMP JUMPDEST POP PUSH1 0x40 DUP3 ADD MLOAD DUP2 PUSH1 0x2 ADD SWAP1 DUP2 PUSH2 0xDB6 SWAP2 SWAP1 PUSH2 0x19E3 JUMP JUMPDEST POP PUSH1 0x60 DUP3 ADD MLOAD DUP2 PUSH1 0x3 ADD SWAP1 DUP2 PUSH2 0xDCC SWAP2 SWAP1 PUSH2 0x19E3 JUMP JUMPDEST POP PUSH1 0x80 DUP3 ADD MLOAD DUP2 PUSH1 0x4 ADD SSTORE PUSH1 0xA0 DUP3 ADD MLOAD DUP2 PUSH1 0x5 ADD SWAP1 DUP1 MLOAD SWAP1 PUSH1 0x20 ADD SWAP1 PUSH2 0xDF3 SWAP3 SWAP2 SWAP1 PUSH2 0xEC7 JUMP JUMPDEST POP SWAP1 POP POP POP POP POP POP JUMP JUMPDEST PUSH0 PUSH1 0x15 SWAP1 SLOAD SWAP1 PUSH2 0x100 EXP SWAP1 DIV PUSH1 0xFF AND DUP2 JUMP JUMPDEST PUSH0 DUP1 PUSH0 PUSH1 0x1 PUSH0 DUP6 PUSH20 0xFFFFFFFFFFFFFFFFFFFFFFFFFFFFFFFFFFFFFFFF AND PUSH20 0xFFFFFFFFFFFFFFFFFFFFFFFFFFFFFFFFFFFFFFFF AND DUP2 MSTORE PUSH1 0x20 ADD SWAP1 DUP2 MSTORE PUSH1 0x20 ADD PUSH0 KECCAK256 PUSH1 0x40 MLOAD DUP1 PUSH1 0x40 ADD PUSH1 0x40 MSTORE SWAP1 DUP2 PUSH0 DUP3 ADD PUSH0 SWAP1 SLOAD SWAP1 PUSH2 0x100 EXP SWAP1 DIV PUSH1 0xFF AND ISZERO ISZERO ISZERO ISZERO DUP2 MSTORE PUSH1 0x20 ADD PUSH1 0x1 DUP3 ADD SLOAD DUP2 MSTORE POP POP SWAP1 POP DUP1 PUSH0 ADD MLOAD DUP2 PUSH1 0x20 ADD MLOAD SWAP3 POP SWAP3 POP POP SWAP2 POP SWAP2 JUMP JUMPDEST PUSH0 PUSH1 0x14 SWAP1 SLOAD SWAP1 PUSH2 0x100 EXP SWAP1 DIV PUSH1 0xFF AND DUP2 JUMP JUMPDEST PUSH0 DUP1 SLOAD SWAP1 PUSH2 0x100 EXP SWAP1 DIV PUSH20 0xFFFFFFFFFFFFFFFFFFFFFFFFFFFFFFFFFFFFFFFF AND DUP2 JUMP JUMPDEST DUP3 DUP1 SLOAD DUP3 DUP3 SSTORE SWAP1 PUSH0 MSTORE PUSH1 0x20 PUSH0 KECCAK256 SWAP1 DUP2 ADD SWAP3 DUP3 ISZERO PUSH2 0xF3D JUMPI SWAP2 PUSH1 0x20 MUL DUP3 ADD JUMPDEST DUP3 DUP2 GT ISZERO PUSH2 0xF3C JUMPI DUP3 MLOAD DUP3 PUSH0 PUSH2 0x100 EXP DUP2 SLOAD DUP2 PUSH20 0xFFFFFFFFFFFFFFFFFFFFFFFFFFFFFFFFFFFFFFFF MUL NOT AND SWAP1 DUP4 PUSH20 0xFFFFFFFFFFFFFFFFFFFFFFFFFFFFFFFFFFFFFFFF AND MUL OR SWAP1 SSTORE POP SWAP2 PUSH1 0x20 ADD SWAP2 SWAP1 PUSH1 0x1 ADD SWAP1 PUSH2 0xEE5 JUMP JUMPDEST JUMPDEST POP SWAP1 POP PUSH2 0xF4A SWAP2 SWAP1 PUSH2 0xF4E JUMP JUMPDEST POP SWAP1 JUMP JUMPDEST JUMPDEST DUP1 DUP3 GT ISZERO PUSH2 0xF65 JUMPI PUSH0 DUP2 PUSH0 SWAP1 SSTORE POP PUSH1 0x1 ADD PUSH2 0xF4F JUMP JUMPDEST POP SWAP1 JUMP JUMPDEST PUSH0 PUSH1 0x40 MLOAD SWAP1 POP SWAP1 JUMP JUMPDEST PUSH0 DUP1 REVERT JUMPDEST PUSH0 DUP1 REVERT JUMPDEST PUSH0 DUP2 SWAP1 POP SWAP2 SWAP1 POP JUMP JUMPDEST PUSH2 0xF8C DUP2 PUSH2 0xF7A JUMP JUMPDEST DUP2 EQ PUSH2 0xF96 JUMPI PUSH0 DUP1 REVERT JUMPDEST POP JUMP JUMPDEST PUSH0 DUP2 CALLDATALOAD SWAP1 POP PUSH2 0xFA7 DUP2 PUSH2 0xF83 JUMP JUMPDEST SWAP3 SWAP2 POP POP JUMP JUMPDEST PUSH0 PUSH1 0x20 DUP3 DUP5 SUB SLT ISZERO PUSH2 0xFC2 JUMPI PUSH2 0xFC1 PUSH2 0xF72 JUMP JUMPDEST JUMPDEST PUSH0 PUSH2 0xFCF DUP5 DUP3 DUP6 ADD PUSH2 0xF99 JUMP JUMPDEST SWAP2 POP POP SWAP3 SWAP2 POP POP JUMP JUMPDEST PUSH2 0xFE1 DUP2 PUSH2 0xF7A JUMP JUMPDEST DUP3 MSTORE POP POP JUMP JUMPDEST PUSH0 PUSH1 0x20 DUP3 ADD SWAP1 POP PUSH2 0xFFA PUSH0 DUP4 ADD DUP5 PUSH2 0xFD8 JUMP JUMPDEST SWAP3 SWAP2 POP POP JUMP JUMPDEST PUSH0 DUP2 MLOAD SWAP1 POP SWAP2 SWAP1 POP JUMP JUMPDEST PUSH0 DUP3 DUP3 MSTORE PUSH1 0x20 DUP3 ADD SWAP1 POP SWAP3 SWAP2 POP POP JUMP JUMPDEST DUP3 DUP2 DUP4 MCOPY PUSH0 DUP4 DUP4 ADD MSTORE POP POP POP JUMP JUMPDEST PUSH0 PUSH1 0x1F NOT PUSH1 0x1F DUP4 ADD AND SWAP1 POP SWAP2 SWAP1 POP JUMP JUMPDEST PUSH0 PUSH2 0x1042 DUP3 PUSH2 0x1000 JUMP JUMPDEST PUSH2 0x104C DUP2 DUP6 PUSH2 0x100A JUMP JUMPDEST SWAP4 POP PUSH2 0x105C DUP2 DUP6 PUSH1 0x20 DUP7 ADD PUSH2 0x101A JUMP JUMPDEST PUSH2 0x1065 DUP2 PUSH2 0x1028 JUMP JUMPDEST DUP5 ADD SWAP2 POP POP SWAP3 SWAP2 POP POP JUMP JUMPDEST PUSH0 PUSH1 0xA0 DUP3 ADD SWAP1 POP PUSH2 0x1083 PUSH0 DUP4 ADD DUP9 PUSH2 0xFD8 JUMP JUMPDEST DUP2 DUP2 SUB PUSH1 0x20 DUP4 ADD MSTORE PUSH2 0x1095 DUP2 DUP8 PUSH2 0x1038 JUMP JUMPDEST SWAP1 POP DUP2 DUP2 SUB PUSH1 0x40 DUP4 ADD MSTORE PUSH2 0x10A9 DUP2 DUP7 PUSH2 0x1038 JUMP JUMPDEST SWAP1 POP DUP2 DUP2 SUB PUSH1 0x60 DUP4 ADD MSTORE PUSH2 0x10BD DUP2 DUP6 PUSH2 0x1038 JUMP JUMPDEST SWAP1 POP PUSH2 0x10CC PUSH1 0x80 DUP4 ADD DUP5 PUSH2 0xFD8 JUMP JUMPDEST SWAP7 SWAP6 POP POP POP POP POP POP JUMP JUMPDEST PUSH0 DUP2 MLOAD SWAP1 POP SWAP2 SWAP1 POP JUMP JUMPDEST PUSH0 DUP3 DUP3 MSTORE PUSH1 0x20 DUP3 ADD SWAP1 POP SWAP3 SWAP2 POP POP JUMP JUMPDEST PUSH0 DUP2 SWAP1 POP PUSH1 0x20 DUP3 ADD SWAP1 POP SWAP2 SWAP1 POP JUMP JUMPDEST PUSH0 PUSH20 0xFFFFFFFFFFFFFFFFFFFFFFFFFFFFFFFFFFFFFFFF DUP3 AND SWAP1 POP SWAP2 SWAP1 POP JUMP JUMPDEST PUSH0 PUSH2 0x1128 DUP3 PUSH2 0x10FF JUMP JUMPDEST SWAP1 POP SWAP2 SWAP1 POP JUMP JUMPDEST PUSH2 0x1138 DUP2 PUSH2 0x111E JUMP JUMPDEST DUP3 MSTORE POP POP JUMP JUMPDEST PUSH0 PUSH2 0x1149 DUP4 DUP4 PUSH2 0x112F JUMP JUMPDEST PUSH1 0x20 DUP4 ADD SWAP1 POP SWAP3 SWAP2 POP POP JUMP JUMPDEST PUSH0 PUSH1 0x20 DUP3 ADD SWAP1 POP SWAP2 SWAP1 POP JUMP JUMPDEST PUSH0 PUSH2 0x116B DUP3 PUSH2 0x10D6 JUMP JUMPDEST PUSH2 0x1175 DUP2 DUP6 PUSH2 0x10E0 JUMP JUMPDEST SWAP4 POP PUSH2 0x1180 DUP4 PUSH2 0x10F0 JUMP JUMPDEST DUP1 PUSH0 JUMPDEST DUP4 DUP2 LT ISZERO PUSH2 0x11B0 JUMPI DUP2 MLOAD PUSH2 0x1197 DUP9 DUP3 PUSH2 0x113E JUMP JUMPDEST SWAP8 POP PUSH2 0x11A2 DUP4 PUSH2 0x1155 JUMP JUMPDEST SWAP3 POP POP PUSH1 0x1 DUP2 ADD SWAP1 POP PUSH2 0x1183 JUMP JUMPDEST POP DUP6 SWAP4 POP POP POP POP SWAP3 SWAP2 POP POP JUMP JUMPDEST PUSH0 PUSH1 0xC0 DUP3 ADD SWAP1 POP PUSH2 0x11D0 PUSH0 DUP4 ADD DUP10 PUSH2 0xFD8 JUMP JUMPDEST DUP2 DUP2 SUB PUSH1 0x20 DUP4 ADD MSTORE PUSH2 0x11E2 DUP2 DUP9 PUSH2 0x1038 JUMP JUMPDEST SWAP1 POP DUP2 DUP2 SUB PUSH1 0x40 DUP4 ADD MSTORE PUSH2 0x11F6 DUP2 DUP8 PUSH2 0x1038 JUMP JUMPDEST SWAP1 POP DUP2 DUP2 SUB PUSH1 0x60 DUP4 ADD MSTORE PUSH2 0x120A DUP2 DUP7 PUSH2 0x1038 JUMP JUMPDEST SWAP1 POP PUSH2 0x1219 PUSH1 0x80 DUP4 ADD DUP6 PUSH2 0xFD8 JUMP JUMPDEST DUP2 DUP2 SUB PUSH1 0xA0 DUP4 ADD MSTORE PUSH2 0x122B DUP2 DUP5 PUSH2 0x1161 JUMP JUMPDEST SWAP1 POP SWAP8 SWAP7 POP POP POP POP POP POP POP JUMP JUMPDEST PUSH2 0x1241 DUP2 PUSH2 0x111E JUMP JUMPDEST DUP2 EQ PUSH2 0x124B JUMPI PUSH0 DUP1 REVERT JUMPDEST POP JUMP JUMPDEST PUSH0 DUP2 CALLDATALOAD SWAP1 POP PUSH2 0x125C DUP2 PUSH2 0x1238 JUMP JUMPDEST SWAP3 SWAP2 POP POP JUMP JUMPDEST PUSH0 PUSH1 0x20 DUP3 DUP5 SUB SLT ISZERO PUSH2 0x1277 JUMPI PUSH2 0x1276 PUSH2 0xF72 JUMP JUMPDEST JUMPDEST PUSH0 PUSH2 0x1284 DUP5 DUP3 DUP6 ADD PUSH2 0x124E JUMP JUMPDEST SWAP2 POP POP SWAP3 SWAP2 POP POP JUMP JUMPDEST PUSH0 DUP2 ISZERO ISZERO SWAP1 POP SWAP2 SWAP1 POP JUMP JUMPDEST PUSH2 0x12A1 DUP2 PUSH2 0x128D JUMP JUMPDEST DUP3 MSTORE POP POP JUMP JUMPDEST PUSH0 PUSH1 0x40 DUP3 ADD SWAP1 POP PUSH2 0x12BA PUSH0 DUP4 ADD DUP6 PUSH2 0x1298 JUMP JUMPDEST PUSH2 0x12C7 PUSH1 0x20 DUP4 ADD DUP5 PUSH2 0xFD8 JUMP JUMPDEST SWAP4 SWAP3 POP POP POP JUMP JUMPDEST PUSH0 DUP1 REVERT JUMPDEST PUSH0 DUP1 REVERT JUMPDEST PUSH32 0x4E487B7100000000000000000000000000000000000000000000000000000000 PUSH0 MSTORE PUSH1 0x41 PUSH1 0x4 MSTORE PUSH1 0x24 PUSH0 REVERT JUMPDEST PUSH2 0x130C DUP3 PUSH2 0x1028 JUMP JUMPDEST DUP2 ADD DUP2 DUP2 LT PUSH8 0xFFFFFFFFFFFFFFFF DUP3 GT OR ISZERO PUSH2 0x132B JUMPI PUSH2 0x132A PUSH2 0x12D6 JUMP JUMPDEST JUMPDEST DUP1 PUSH1 0x40 MSTORE POP POP POP JUMP JUMPDEST PUSH0 PUSH2 0x133D PUSH2 0xF69 JUMP JUMPDEST SWAP1 POP PUSH2 0x1349 DUP3 DUP3 PUSH2 0x1303 JUMP JUMPDEST SWAP2 SWAP1 POP JUMP JUMPDEST PUSH0 PUSH8 0xFFFFFFFFFFFFFFFF DUP3 GT ISZERO PUSH2 0x1368 JUMPI PUSH2 0x1367 PUSH2 0x12D6 JUMP JUMPDEST JUMPDEST PUSH2 0x1371 DUP3 PUSH2 0x1028 JUMP JUMPDEST SWAP1 POP PUSH1 0x20 DUP2 ADD SWAP1 POP SWAP2 SWAP1 POP JUMP JUMPDEST DUP3 DUP2 DUP4 CALLDATACOPY PUSH0 DUP4 DUP4 ADD MSTORE POP POP POP JUMP JUMPDEST PUSH0 PUSH2 0x139E PUSH2 0x1399 DUP5 PUSH2 0x134E JUMP JUMPDEST PUSH2 0x1334 JUMP JUMPDEST SWAP1 POP DUP3 DUP2 MSTORE PUSH1 0x20 DUP2 ADD DUP5 DUP5 DUP5 ADD GT ISZERO PUSH2 0x13BA JUMPI PUSH2 0x13B9 PUSH2 0x12D2 JUMP JUMPDEST JUMPDEST PUSH2 0x13C5 DUP5 DUP3 DUP6 PUSH2 0x137E JUMP JUMPDEST POP SWAP4 SWAP3 POP POP POP JUMP JUMPDEST PUSH0 DUP3 PUSH1 0x1F DUP4 ADD SLT PUSH2 0x13E1 JUMPI PUSH2 0x13E0 PUSH2 0x12CE JUMP JUMPDEST JUMPDEST DUP2 CALLDATALOAD PUSH2 0x13F1 DUP5 DUP3 PUSH1 0x20 DUP7 ADD PUSH2 0x138C JUMP JUMPDEST SWAP2 POP POP SWAP3 SWAP2 POP POP JUMP JUMPDEST PUSH0 DUP1 PUSH0 PUSH1 0x60 DUP5 DUP7 SUB SLT ISZERO PUSH2 0x1411 JUMPI PUSH2 0x1410 PUSH2 0xF72 JUMP JUMPDEST JUMPDEST PUSH0 DUP5 ADD CALLDATALOAD PUSH8 0xFFFFFFFFFFFFFFFF DUP2 GT ISZERO PUSH2 0x142E JUMPI PUSH2 0x142D PUSH2 0xF76 JUMP JUMPDEST JUMPDEST PUSH2 0x143A DUP7 DUP3 DUP8 ADD PUSH2 0x13CD JUMP JUMPDEST SWAP4 POP POP PUSH1 0x20 DUP5 ADD CALLDATALOAD PUSH8 0xFFFFFFFFFFFFFFFF DUP2 GT ISZERO PUSH2 0x145B JUMPI PUSH2 0x145A PUSH2 0xF76 JUMP JUMPDEST JUMPDEST PUSH2 0x1467 DUP7 DUP3 DUP8 ADD PUSH2 0x13CD JUMP JUMPDEST SWAP3 POP POP PUSH1 0x40 DUP5 ADD CALLDATALOAD PUSH8 0xFFFFFFFFFFFFFFFF DUP2 GT ISZERO PUSH2 0x1488 JUMPI PUSH2 0x1487 PUSH2 0xF76 JUMP JUMPDEST JUMPDEST PUSH2 0x1494 DUP7 DUP3 DUP8 ADD PUSH2 0x13CD JUMP JUMPDEST SWAP2 POP POP SWAP3 POP SWAP3 POP SWAP3 JUMP JUMPDEST PUSH0 PUSH1 0x20 DUP3 ADD SWAP1 POP PUSH2 0x14B1 PUSH0 DUP4 ADD DUP5 PUSH2 0x1298 JUMP JUMPDEST SWAP3 SWAP2 POP POP JUMP JUMPDEST PUSH2 0x14C0 DUP2 PUSH2 0x111E JUMP JUMPDEST DUP3 MSTORE POP POP JUMP JUMPDEST PUSH0 PUSH1 0x20 DUP3 ADD SWAP1 POP PUSH2 0x14D9 PUSH0 DUP4 ADD DUP5 PUSH2 0x14B7 JUMP JUMPDEST SWAP3 SWAP2 POP POP JUMP JUMPDEST PUSH32 0x456C656374696F6E206973206E6F7420696E2070726F67726573730000000000 PUSH0 DUP3 ADD MSTORE POP JUMP JUMPDEST PUSH0 PUSH2 0x1513 PUSH1 0x1B DUP4 PUSH2 0x100A JUMP JUMPDEST SWAP2 POP PUSH2 0x151E DUP3 PUSH2 0x14DF JUMP JUMPDEST PUSH1 0x20 DUP3 ADD SWAP1 POP SWAP2 SWAP1 POP JUMP JUMPDEST PUSH0 PUSH1 0x20 DUP3 ADD SWAP1 POP DUP2 DUP2 SUB PUSH0 DUP4 ADD MSTORE PUSH2 0x1540 DUP2 PUSH2 0x1507 JUMP JUMPDEST SWAP1 POP SWAP2 SWAP1 POP JUMP JUMPDEST PUSH32 0x596F75206861766520616C726561647920766F74656400000000000000000000 PUSH0 DUP3 ADD MSTORE POP JUMP JUMPDEST PUSH0 PUSH2 0x157B PUSH1 0x16 DUP4 PUSH2 0x100A JUMP JUMPDEST SWAP2 POP PUSH2 0x1586 DUP3 PUSH2 0x1547 JUMP JUMPDEST PUSH1 0x20 DUP3 ADD SWAP1 POP SWAP2 SWAP1 POP JUMP JUMPDEST PUSH0 PUSH1 0x20 DUP3 ADD SWAP1 POP DUP2 DUP2 SUB PUSH0 DUP4 ADD MSTORE PUSH2 0x15A8 DUP2 PUSH2 0x156F JUMP JUMPDEST SWAP1 POP SWAP2 SWAP1 POP JUMP JUMPDEST PUSH32 0x496E76616C69642063616E646964617465204944000000000000000000000000 PUSH0 DUP3 ADD MSTORE POP JUMP JUMPDEST PUSH0 PUSH2 0x15E3 PUSH1 0x14 DUP4 PUSH2 0x100A JUMP JUMPDEST SWAP2 POP PUSH2 0x15EE DUP3 PUSH2 0x15AF JUMP JUMPDEST PUSH1 0x20 DUP3 ADD SWAP1 POP SWAP2 SWAP1 POP JUMP JUMPDEST PUSH0 PUSH1 0x20 DUP3 ADD SWAP1 POP DUP2 DUP2 SUB PUSH0 DUP4 ADD MSTORE PUSH2 0x1610 DUP2 PUSH2 0x15D7 JUMP JUMPDEST SWAP1 POP SWAP2 SWAP1 POP JUMP JUMPDEST PUSH32 0x4E487B7100000000000000000000000000000000000000000000000000000000 PUSH0 MSTORE PUSH1 0x11 PUSH1 0x4 MSTORE PUSH1 0x24 PUSH0 REVERT JUMPDEST PUSH0 PUSH2 0x164E DUP3 PUSH2 0xF7A JUMP JUMPDEST SWAP2 POP PUSH32 0xFFFFFFFFFFFFFFFFFFFFFFFFFFFFFFFFFFFFFFFFFFFFFFFFFFFFFFFFFFFFFFFF DUP3 SUB PUSH2 0x1680 JUMPI PUSH2 0x167F PUSH2 0x1617 JUMP JUMPDEST JUMPDEST PUSH1 0x1 DUP3 ADD SWAP1 POP SWAP2 SWAP1 POP JUMP JUMPDEST PUSH32 0x4E487B7100000000000000000000000000000000000000000000000000000000 PUSH0 MSTORE PUSH1 0x22 PUSH1 0x4 MSTORE PUSH1 0x24 PUSH0 REVERT JUMPDEST PUSH0 PUSH1 0x2 DUP3 DIV SWAP1 POP PUSH1 0x1 DUP3 AND DUP1 PUSH2 0x16CF JUMPI PUSH1 0x7F DUP3 AND SWAP2 POP JUMPDEST PUSH1 0x20 DUP3 LT DUP2 SUB PUSH2 0x16E2 JUMPI PUSH2 0x16E1 PUSH2 0x168B JUMP JUMPDEST JUMPDEST POP SWAP2 SWAP1 POP JUMP JUMPDEST PUSH32 0x4F6E6C792074686520656C656374696F6E2063726561746F722063616E207065 PUSH0 DUP3 ADD MSTORE PUSH32 0x72666F726D207468697320616374696F6E000000000000000000000000000000 PUSH1 0x20 DUP3 ADD MSTORE POP JUMP JUMPDEST PUSH0 PUSH2 0x1742 PUSH1 0x31 DUP4 PUSH2 0x100A JUMP JUMPDEST SWAP2 POP PUSH2 0x174D DUP3 PUSH2 0x16E8 JUMP JUMPDEST PUSH1 0x40 DUP3 ADD SWAP1 POP SWAP2 SWAP1 POP JUMP JUMPDEST PUSH0 PUSH1 0x20 DUP3 ADD SWAP1 POP DUP2 DUP2 SUB PUSH0 DUP4 ADD MSTORE PUSH2 0x176F DUP2 PUSH2 0x1736 JUMP JUMPDEST SWAP1 POP SWAP2 SWAP1 POP JUMP JUMPDEST PUSH32 0x456C656374696F6E20686173206E6F7420737461727465642079657400000000 PUSH0 DUP3 ADD MSTORE POP JUMP JUMPDEST PUSH0 PUSH2 0x17AA PUSH1 0x1C DUP4 PUSH2 0x100A JUMP JUMPDEST SWAP2 POP PUSH2 0x17B5 DUP3 PUSH2 0x1776 JUMP JUMPDEST PUSH1 0x20 DUP3 ADD SWAP1 POP SWAP2 SWAP1 POP JUMP JUMPDEST PUSH0 PUSH1 0x20 DUP3 ADD SWAP1 POP DUP2 DUP2 SUB PUSH0 DUP4 ADD MSTORE PUSH2 0x17D7 DUP2 PUSH2 0x179E JUMP JUMPDEST SWAP1 POP SWAP2 SWAP1 POP JUMP JUMPDEST PUSH32 0x456C656374696F6E2068617320616C7265616479207374617274656400000000 PUSH0 DUP3 ADD MSTORE POP JUMP JUMPDEST PUSH0 PUSH2 0x1812 PUSH1 0x1C DUP4 PUSH2 0x100A JUMP JUMPDEST SWAP2 POP PUSH2 0x181D DUP3 PUSH2 0x17DE JUMP JUMPDEST PUSH1 0x20 DUP3 ADD SWAP1 POP SWAP2 SWAP1 POP JUMP JUMPDEST PUSH0 PUSH1 0x20 DUP3 ADD SWAP1 POP DUP2 DUP2 SUB PUSH0 DUP4 ADD MSTORE PUSH2 0x183F DUP2 PUSH2 0x1806 JUMP JUMPDEST SWAP1 POP SWAP2 SWAP1 POP JUMP JUMPDEST PUSH0 DUP2 SWAP1 POP DUP2 PUSH0 MSTORE PUSH1 0x20 PUSH0 KECCAK256 SWAP1 POP SWAP2 SWAP1 POP JUMP JUMPDEST PUSH0 PUSH1 0x20 PUSH1 0x1F DUP4 ADD DIV SWAP1 POP SWAP2 SWAP1 POP JUMP JUMPDEST PUSH0 DUP3 DUP3 SHL SWAP1 POP SWAP3 SWAP2 POP POP JUMP JUMPDEST PUSH0 PUSH1 0x8 DUP4 MUL PUSH2 0x18A2 PUSH32 0xFFFFFFFFFFFFFFFFFFFFFFFFFFFFFFFFFFFFFFFFFFFFFFFFFFFFFFFFFFFFFFFF DUP3 PUSH2 0x1867 JUMP JUMPDEST PUSH2 0x18AC DUP7 DUP4 PUSH2 0x1867 JUMP JUMPDEST SWAP6 POP DUP1 NOT DUP5 AND SWAP4 POP DUP1 DUP7 AND DUP5 OR SWAP3 POP POP POP SWAP4 SWAP3 POP POP POP JUMP JUMPDEST PUSH0 DUP2 SWAP1 POP SWAP2 SWAP1 POP JUMP JUMPDEST PUSH0 PUSH2 0x18E7 PUSH2 0x18E2 PUSH2 0x18DD DUP5 PUSH2 0xF7A JUMP JUMPDEST PUSH2 0x18C4 JUMP JUMPDEST PUSH2 0xF7A JUMP JUMPDEST SWAP1 POP SWAP2 SWAP1 POP JUMP JUMPDEST PUSH0 DUP2 SWAP1 POP SWAP2 SWAP1 POP JUMP JUMPDEST PUSH2 0x1900 DUP4 PUSH2 0x18CD JUMP JUMPDEST PUSH2 0x1914 PUSH2 0x190C DUP3 PUSH2 0x18EE JUMP JUMPDEST DUP5 DUP5 SLOAD PUSH2 0x1873 JUMP JUMPDEST DUP3 SSTORE POP POP POP POP JUMP JUMPDEST PUSH0 SWAP1 JUMP JUMPDEST PUSH2 0x1928 PUSH2 0x191C JUMP JUMPDEST PUSH2 0x1933 DUP2 DUP5 DUP5 PUSH2 0x18F7 JUMP JUMPDEST POP POP POP JUMP JUMPDEST JUMPDEST DUP2 DUP2 LT ISZERO PUSH2 0x1956 JUMPI PUSH2 0x194B PUSH0 DUP3 PUSH2 0x1920 JUMP JUMPDEST PUSH1 0x1 DUP2 ADD SWAP1 POP PUSH2 0x1939 JUMP JUMPDEST POP POP JUMP JUMPDEST PUSH1 0x1F DUP3 GT ISZERO PUSH2 0x199B JUMPI PUSH2 0x196C DUP2 PUSH2 0x1846 JUMP JUMPDEST PUSH2 0x1975 DUP5 PUSH2 0x1858 JUMP JUMPDEST DUP2 ADD PUSH1 0x20 DUP6 LT ISZERO PUSH2 0x1984 JUMPI DUP2 SWAP1 POP JUMPDEST PUSH2 0x1998 PUSH2 0x1990 DUP6 PUSH2 0x1858 JUMP JUMPDEST DUP4 ADD DUP3 PUSH2 0x1938 JUMP JUMPDEST POP POP JUMPDEST POP POP POP JUMP JUMPDEST PUSH0 DUP3 DUP3 SHR SWAP1 POP SWAP3 SWAP2 POP POP JUMP JUMPDEST PUSH0 PUSH2 0x19BB PUSH0 NOT DUP5 PUSH1 0x8 MUL PUSH2 0x19A0 JUMP JUMPDEST NOT DUP1 DUP4 AND SWAP2 POP POP SWAP3 SWAP2 POP POP JUMP JUMPDEST PUSH0 PUSH2 0x19D3 DUP4 DUP4 PUSH2 0x19AC JUMP JUMPDEST SWAP2 POP DUP3 PUSH1 0x2 MUL DUP3 OR SWAP1 POP SWAP3 SWAP2 POP POP JUMP JUMPDEST PUSH2 0x19EC DUP3 PUSH2 0x1000 JUMP JUMPDEST PUSH8 0xFFFFFFFFFFFFFFFF DUP2 GT ISZERO PUSH2 0x1A05 JUMPI PUSH2 0x1A04 PUSH2 0x12D6 JUMP JUMPDEST JUMPDEST PUSH2 0x1A0F DUP3 SLOAD PUSH2 0x16B8 JUMP JUMPDEST PUSH2 0x1A1A DUP3 DUP3 DUP6 PUSH2 0x195A JUMP JUMPDEST PUSH0 PUSH1 0x20 SWAP1 POP PUSH1 0x1F DUP4 GT PUSH1 0x1 DUP2 EQ PUSH2 0x1A4B JUMPI PUSH0 DUP5 ISZERO PUSH2 0x1A39 JUMPI DUP3 DUP8 ADD MLOAD SWAP1 POP JUMPDEST PUSH2 0x1A43 DUP6 DUP3 PUSH2 0x19C8 JUMP JUMPDEST DUP7 SSTORE POP PUSH2 0x1AAA JUMP JUMPDEST PUSH1 0x1F NOT DUP5 AND PUSH2 0x1A59 DUP7 PUSH2 0x1846 JUMP JUMPDEST PUSH0 JUMPDEST DUP3 DUP2 LT ISZERO PUSH2 0x1A80 JUMPI DUP5 DUP10 ADD MLOAD DUP3 SSTORE PUSH1 0x1 DUP3 ADD SWAP2 POP PUSH1 0x20 DUP6 ADD SWAP5 POP PUSH1 0x20 DUP2 ADD SWAP1 POP PUSH2 0x1A5B JUMP JUMPDEST DUP7 DUP4 LT ISZERO PUSH2 0x1A9D JUMPI DUP5 DUP10 ADD MLOAD PUSH2 0x1A99 PUSH1 0x1F DUP10 AND DUP3 PUSH2 0x19AC JUMP JUMPDEST DUP4 SSTORE POP JUMPDEST PUSH1 0x1 PUSH1 0x2 DUP9 MUL ADD DUP9 SSTORE POP POP POP JUMPDEST POP POP POP POP POP POP JUMP INVALID LOG2 PUSH5 0x6970667358 0x22 SLT KECCAK256 0xBA PUSH29 0xE332B078368036226041E8330592202C6BCC914045FCE460D0E93014F8 LOG4 PUSH5 0x736F6C6343 STOP ADDMOD NOT STOP CALLER "
				},
				"gasEstimates": {
					"creation": {
						"codeDepositCost": "1377600",
						"executionCost": "25701",
						"totalCost": "1403301"
					},
					"external": {
						"addCandidate(string,string,string)": "infinite",
						"candidates(uint256)": "infinite",
						"candidatesCount()": "2448",
						"electionCreator()": "2593",
						"electionEnded()": "2538",
						"electionStarted()": "2582",
						"endElection()": "28916",
						"getCandidate(uint256)": "infinite",
						"getTotalCandidates()": "2500",
						"getTotalVotes()": "2477",
						"getVoter(address)": "5237",
						"startElection()": "28853",
						"totalVotes()": "2471",
						"vote(uint256)": "infinite",
						"voters(address)": "5134"
					}
				},
				"methodIdentifiers": {
					"addCandidate(string,string,string)": "ad71f8dc",
					"candidates(uint256)": "3477ee2e",
					"candidatesCount()": "2d35a8a2",
					"electionCreator()": "f36f4ff0",
					"electionEnded()": "c94ca9e3",
					"electionStarted()": "d5346da1",
					"endElection()": "59f78468",
					"getCandidate(uint256)": "35b8e820",
					"getTotalCandidates()": "0deb56ab",
					"getTotalVotes()": "9a0e7d66",
					"getVoter(address)": "d4f50f98",
					"startElection()": "62d73eb8",
					"totalVotes()": "0d15fd77",
					"vote(uint256)": "0121b93f",
					"voters(address)": "a3ec138d"
				}
			},
			"storageLayout": {
				"storage": [
					{
						"astId": 3,
						"contract": "contracts/elections/elections.sol:Election",
						"label": "electionCreator",
						"offset": 0,
						"slot": "0",
						"type": "t_address"
					},
					{
						"astId": 5,
						"contract": "contracts/elections/elections.sol:Election",
						"label": "electionStarted",
						"offset": 20,
						"slot": "0",
						"type": "t_bool"
					},
					{
						"astId": 7,
						"contract": "contracts/elections/elections.sol:Election",
						"label": "electionEnded",
						"offset": 21,
						"slot": "0",
						"type": "t_bool"
					},
					{
						"astId": 31,
						"contract": "contracts/elections/elections.sol:Election",
						"label": "voters",
						"offset": 0,
						"slot": "1",
						"type": "t_mapping(t_address,t_struct(Voter)26_storage)"
					},
					{
						"astId": 36,
						"contract": "contracts/elections/elections.sol:Election",
						"label": "candidates",
						"offset": 0,
						"slot": "2",
						"type": "t_mapping(t_uint256,t_struct(Candidate)21_storage)"
					},
					{
						"astId": 38,
						"contract": "contracts/elections/elections.sol:Election",
						"label": "candidatesCount",
						"offset": 0,
						"slot": "3",
						"type": "t_uint256"
					},
					{
						"astId": 40,
						"contract": "contracts/elections/elections.sol:Election",
						"label": "totalVotes",
						"offset": 0,
						"slot": "4",
						"type": "t_uint256"
					}
				],
				"types": {
					"t_address": {
						"encoding": "inplace",
						"label": "address",
						"numberOfBytes": "20"
					},
					"t_array(t_address)dyn_storage": {
						"base": "t_address",
						"encoding": "dynamic_array",
						"label": "address[]",
						"numberOfBytes": "32"
					},
					"t_bool": {
						"encoding": "inplace",
						"label": "bool",
						"numberOfBytes": "1"
					},
					"t_mapping(t_address,t_struct(Voter)26_storage)": {
						"encoding": "mapping",
						"key": "t_address",
						"label": "mapping(address => struct Election.Voter)",
						"numberOfBytes": "32",
						"value": "t_struct(Voter)26_storage"
					},
					"t_mapping(t_uint256,t_struct(Candidate)21_storage)": {
						"encoding": "mapping",
						"key": "t_uint256",
						"label": "mapping(uint256 => struct Election.Candidate)",
						"numberOfBytes": "32",
						"value": "t_struct(Candidate)21_storage"
					},
					"t_string_storage": {
						"encoding": "bytes",
						"label": "string",
						"numberOfBytes": "32"
					},
					"t_struct(Candidate)21_storage": {
						"encoding": "inplace",
						"label": "struct Election.Candidate",
						"members": [
							{
								"astId": 9,
								"contract": "contracts/elections/elections.sol:Election",
								"label": "id",
								"offset": 0,
								"slot": "0",
								"type": "t_uint256"
							},
							{
								"astId": 11,
								"contract": "contracts/elections/elections.sol:Election",
								"label": "name",
								"offset": 0,
								"slot": "1",
								"type": "t_string_storage"
							},
							{
								"astId": 13,
								"contract": "contracts/elections/elections.sol:Election",
								"label": "description",
								"offset": 0,
								"slot": "2",
								"type": "t_string_storage"
							},
							{
								"astId": 15,
								"contract": "contracts/elections/elections.sol:Election",
								"label": "symbol",
								"offset": 0,
								"slot": "3",
								"type": "t_string_storage"
							},
							{
								"astId": 17,
								"contract": "contracts/elections/elections.sol:Election",
								"label": "voteCount",
								"offset": 0,
								"slot": "4",
								"type": "t_uint256"
							},
							{
								"astId": 20,
								"contract": "contracts/elections/elections.sol:Election",
								"label": "voters",
								"offset": 0,
								"slot": "5",
								"type": "t_array(t_address)dyn_storage"
							}
						],
						"numberOfBytes": "192"
					},
					"t_struct(Voter)26_storage": {
						"encoding": "inplace",
						"label": "struct Election.Voter",
						"members": [
							{
								"astId": 23,
								"contract": "contracts/elections/elections.sol:Election",
								"label": "hasVoted",
								"offset": 0,
								"slot": "0",
								"type": "t_bool"
							},
							{
								"astId": 25,
								"contract": "contracts/elections/elections.sol:Election",
								"label": "votedCandidateId",
								"offset": 0,
								"slot": "1",
								"type": "t_uint256"
							}
						],
						"numberOfBytes": "64"
					},
					"t_uint256": {
						"encoding": "inplace",
						"label": "uint256",
						"numberOfBytes": "32"
					}
				}
			},
			"userdoc": {
				"kind": "user",
				"methods": {},
				"version": 1
			}
		}
	}
}